:020000040800F2
:10000000180C0020690200088F2D0008592D0008E7
:100010008D2D0008DB040008313900087B02000840
:10002000000000000000000000000000F73300089E
:10003000DD040008000000003D320008F93300082C
:100040008502000885020008850200088502000874
:100050008502000885020008850200088502000864
:100060008502000885020008850200088502000854
:100070008502000885020008850200088502000844
:100080008502000885020008850200088502000834
:100090008502000885020008850200088502000824
:1000A000DF040008850200088502000885020008B8
:1000B0008502000885020008850200088502000804
:1000C00085020008850200088502000885020008F4
:1000D00085020008850200088502000885020008E4
:1000E00085020008850200088502000885020008D4
:1000F00085020008850200088502000885020008C4
:1001000085020008850200088502000885020008B3
:1001100085020008850200088502000885020008A3
:100120008502000885020008850200088502000893
:100130008502000885020008850200088502000883
:100140008502000885020008850200088502000873
:100150008502000885020008850200088502000863
:100160000000000000000000DB38000885020008E5
:100170008502000885020008850200088502000843
:1001800085020008850200088502000800000000C2
:1001900000000000850200080000000000000000D0
:1001A0000000000000000000850200088502000831
:1001B0008502000885020008850200088502000803
:1001C0008502000885020008000000000000000011
:1001D0000000000000000000000000008502000890
:1001E00085020008850200080000000000000000F1
:1001F0008502000885020008850200080000000052
:100200000000000085020008850200088502000841
:1002100085020008850200088502000885020008A2
:1002200085020008000000000000000085020008B0
:10023000850200080000000000000000000000002F
:10024000000000000000000000000000850200081F
:1002500085020008DFF80CD000F096F8004800474F
:1002600075450008180C00200748804707480047DC
:10027000FEE7FEE7FEE7FEE7FEE7FEE7FEE7FEE756
:10028000FEE7FEE7FEE70000A5340008550200087F
:100290002DE9F05F0546002092469B4688460646BB
:1002A000814640241BE0284641464746224600F04E
:1002B0005AF853465A46C01A914110D3114618466F
:1002C000224600F041F82D1A67EB01084F462246FE
:1002D0000120002100F038F817EB00094E41201EE4
:1002E000A4F10104DFDC484631462A464346BDE816
:1002F000F09F40EA01039B0703D009E008C9121FE1
:1003000008C0042AFAD203E011F8013B00F8013BCF
:10031000521EF9D27047D2B201E000F8012B491EFB
:10032000FBD270470022F6E710B513460A46044692
:100330001946FFF7F0FF204610BD421C10F8011BC4
:100340000029FBD1801A7047202A04DB203A00FAEA
:1003500002F1002070479140C2F1200320FA03F31C
:10036000194390407047202A04DB203A21FA02F01A
:100370000021704721FA02F3D040C2F120029140DF
:1003800008431946704700001CB509480090094809
:1003900001900546009C06E0E06840F0010394E807
:1003A000070098471034AC42F6D3FFF757FF000020
:1003B0006C5F00088C5F000808B102F03FBD2DE9BA
:1003C000F04186B03D480C4602274FF00708174D14
:1003D00002F0EEFC02F0ECFC016941F40031016135
:1003E000006900F400300190019804970297CDF85D
:1003F0001480042001900120039001AE284631466C
:1004000000F0BAF808203146CDF814800297019028
:10041000284600F0B1F80648214602F09FFC00286B
:1004200018BF6FF0030006B0BDE8F0810000024283
:10043000F80200207047000000EB4000224901EB69
:10044000800000F067B800BF10B586B004461B48B6
:10045000026842F004020260006800F004000090AC
:100460000220CDE903004FF4005001900098144899
:10047000D9B11449029101A900F07EF804EB4400BF
:10048000114901EB80041149204600F03DF8104A63
:100490002046002100F062F818200F21002200F011
:1004A000B5F9182000F0A2F904E00021029101A999
:1004B00000F062F8002006B010BD00BF8C0C0244B2
:1004C00000080242000011108C0300200D000006FD
:1004D000D50400080020FFF7ADBFFEE770470020FD
:1004E000FFF7AABF72B6FEE7B0B5044600F00AF9FE
:1004F0000546BA48611C007818BF044400F002F9B0
:10050000401BA042FAD3B0BD10B10160002070477B
:1005100001207047F8B50446006801220E4F00F034
:100520001F0102FA01F5082101EA503657F82600AA
:10053000054204D047F82650606800B18047381D56
:1005400050F82610294206D040F82650A06810B175
:10055000BDE8F8400047F8BD0C200244022903D052
:10056000012903D031B94260082100E00421425042
:1005700000207047012070472DE9FF4F584A4FF087
:1005800000084FF0000900264FF0000B029002EA2D
:100590009022009200F1200201920B6833FA0BF5D1
:1005A00008BFBDE8FF8F012202FA0BFE13EA0E001E
:1005B00000F08780D1F804C003964CF01005122D8E
:1005C00013D108F01C050F2202FA05F46FF00302A4
:1005D00002EA5B07019AD359A3430C6904F00F04A4
:1005E000AC402343D351D1F804C0029E03220CF047
:1005F000030A474602FA09F435680AFA09F3A543E3
:100600006FEA04082B43BCF1120F336061D801225A
:1006100002FA0CF313F0061F5BD0B368D1E9022491
:1006200003EA080304FA09F42343B3604FEA1C13F6
:10063000746803FA0BF324EA0E0423437360F4682E
:1006400002FA09F304EA08042343F3605FEACC03E7
:10065000B846039E35D506F018030F222BF003058C
:1006600002FA03F41F4A15442F6E27EA0404009F80
:1006700007FA03F323432B6613684D6843EA00042B
:10068000EF0258BF23EA00041460AF02536843EA44
:10069000000458BF23EA00045460AF03D2F884304A
:1006A00043EA000458BF23EA0004C2F88440ED0383
:1006B000D2F8803043EA000458BF23EA0004C2F8AD
:1006C000804008F1040809F1020908360BF1010B1A
:1006D00063E78A68BAF1030F08BF012AAFD1B5E713
:1006E0007F7F2F0000200244426902EA0103914308
:1006F00041EA0341816170471823002A08BF28237B
:10070000C150704705480068704700BF334803492F
:1007100000780A6810440860704700BF1407002082
:1007200080B5032000F098F801F0FEFB0A490B4A5F
:10073000096801F00F01515CC8402A490860042093
:1007400002F0A0FA0F2000F00BF808B1012080BDE4
:1007500000F04AF8002080BD200C02445E5E0008D4
:1007600070B51E4E04463078C8B11D490968490766
:100770000AD402F0BDFA022825D001281BD050BBB4
:1007800030784FF4FA5101E04FF47A71B1FBF0F098
:1007900014490968B1FBF0F002F09AFA08B101259A
:1007A00007E04FF0FF3021460022002500F02EF830
:1007B0007460284670BD30784FF47A71B1FBF0F068
:1007C0004FF4FA41E6E730784FF47A71B1FBF0F07C
:1007D0004FF40041DEE70020DEE700BF000000200C
:1007E00010E000E02400002070470000002809D439
:1007F00000F01F010122C0F34A1002FA01F1024A7F
:1008000042F82010704700BF00E100E0F0B5184B3F
:100810004FF0FF361C68C4F30224E51E84F0070481
:1008200038BF002506FA05F7BA43042C28BF042474
:1008300006FA04F4A14300F00F04A940043C11435C
:10084000044A234409010244002848BF03F10C0272
:100850001170F0BD00E400E005494FF6FF030A689F
:100860001A4060F30A22034810430860704700BF33
:100870000CED00E00000FA0501684A6D42F001024B
:100880004A650122C0F8D822002280F8CC22486DA7
:1008900040F0020048650020704768B37CB504460C
:1008A00090F8950228B9002084F89402204600F0C0
:1008B00053F8032084F89502206803F025F894E8A3
:1008C0000F00257C009502F0F9FF80BB2068002115
:1008D000002503F01FF850BB2079012100220023DE
:1008E00098420BD0A61828323375C6E90955F5622F
:1008F000F57571750133F3E70120704704F5B671A2
:100900000022002398420BD001F8183C41E9022252
:100910000A6001F8152C01F8172C28310133F1E792
:1009200094E80F00257C009502F0E0FF20B1022042
:1009300084F8950201207CBD00206074012084F8B9
:100940009502207B012804BF2046FFF795FF206811
:1009500002F0C6FF00207CBD10B5BCB0044637A82D
:100960001421FFF7DFFC02A8C8210830FFF7DAFCEA
:1009700020681A4988422ED110200024039030208C
:100980000294339002A800F09DFD08B1FFF7AAFD84
:1009900000F02AF81248816941F080718161816913
:1009A00001F0807102F0F9F90A203B900320CDE9B3
:1009B0003940022038904FF4C0503790019837A941
:1009C0000848FFF7D9FD4A2000210022FFF71EFF4B
:1009D0004A20FFF70BFF3CB010BD00BF0060014094
:1009E0008C0C0244000002420248016841F0007190
:1009F000016070473808024470B52F494B6B8C6A10
:100A00008A6A8D6A8E6BC2F3052272B102F0F2FB24
:100A100018D0022C0DD001EE103A0B689FED272A5A
:100A2000012C914C02F011FA16E00021C0E90011EE
:100A30003FE001EE103A9FED212A02F0EEFB9FED20
:100A4000212A07E001EE103A9FED1C2A02F0E5FB97
:100A50009FED1B2A02F041FA0A6820EE010A92017A
:100A600002D58A6AD20301D4002206E04A6BB7EEAF
:100A7000002AC2F3462202F0A8F902600A68920135
:100A800002D58A6A920301D4002206E04A6BB7EECF
:100A9000002AC2F3064202F098F942600A68920105
:100AA00002D58A6A520301D4002102E0496B02F0A8
:100AB0008DFB816070BD00BF000C02440000003956
:100AC00020BCBE4B0024744A70B52F49CB6BCC6A56
:100AD000CA6ACD6A0E6CC2F3052272B102F08AFBBB
:100AE00018D0022C0DD001EE103A0B689FED272A8A
:100AF000012C5D4C02F0A9F916E00021C0E90011BB
:100B00003FE001EE103A9FED212A02F086FB9FEDB7
:100B1000212A07E001EE103A9FED1C2A02F07DFB2E
:100B20009FED1B2A02F0D9F90A6820EE010A120192
:100B300002D5CA6AD20301D4002206E0CA6BB7EE1E
:100B4000002AC2F3462202F040F902600A6812014C
:100B500002D5CA6A920301D4002206E0CA6BB7EE3E
:100B6000002AC2F3064202F030F942600A6812011C
:100B700002D5CA6A520301D4002102E0C96B02F017
:100B800025FB816070BD00BF000C024400000039ED
:100B900020BCBE4B0024744A70B52F494B6C0C6BC3
:100BA0000A6B0D6B8E6CC2F3052272B102F022FB50
:100BB00018D0022C0DD001EE103A0B689FED272AB9
:100BC000012C294C02F041F916E00021C0E9001186
:100BD0003FE001EE103A9FED212A02F01EFB9FED4F
:100BE000212A07E001EE103A9FED1C2A02F015FBC6
:100BF0009FED1B2A02F071F90A6820EE010A9200AB
:100C000002D50A6BD20301D4002206E04A6CB7EE8B
:100C1000002AC2F3462202F0D8F802600A68920065
:100C200002D50A6B920301D4002206E04A6CB7EEAB
:100C3000002AC2F3064202F0C8F842600A68920035
:100C400002D50A6B520301D4002102E0496C02F084
:100C5000BDFA816070BD00BF000C02440000003985
:100C600020BCBE4B0024744A0090D003BFB5431E85
:100C7000024661F100040020D3F1070570EB040483
:100C800080F09E8082F010030B4300F0D08182F050
:100C900020030B4300F09F8182F480530B4300F04C
:100CA000488182F400530B4300F0768182F4804344
:100CB0000B4300F0008382F400430B4300F0B28248
:100CC00082F480330B4300F0CD8282F400330B4377
:100CD00000F01F8182F480230B4300F0088382F42C
:100CE00000130B4300F04C8282F480030B4300F0AE
:100CF000CC8181F48053134300F0CE8182F0806375
:100D00000B4300F02F8282F000630B4300F00A8255
:100D100082F080530B4300F0958282F000530B4326
:100D200000F0B68282F080430B4300F05F8281F0D6
:100D30000203134300F0478281F00403134300F0E1
:100D40001D8181F00803134300F0FC8181F0100342
:100D5000134300F0B98181F40073134300F0CD8197
:100D600082F00072114340F09583D549D1F8F0002C
:100D700000F44072D1F8F000800703D5B2F5807F0F
:100D800000F0ED81D1F8F000000103D5B2F5007F4D
:100D900000F01383086880034FF0000040F17A836D
:100DA000B2F5407F40F07683C86910F4785F00F0B8
:100DB000DD82C869C349C0F30520B1FBF0F069E3E7
:100DC000DFE813F00800840068035B006803680331
:100DD00068032F00BA48D0F8D81011F0070100F0CE
:100DE0009B820268012903D112F0006240F0C082A8
:100DF0000268022903D112F0005240F00F8203680A
:100E00000268032903D113F0020340F0368304295A
:100E100003D112F4007240F03C8302F045F805293A
:100E200030E1A748D0F8D81011F4606100F06B826F
:100E30000268B1F5007F03D112F0006240F09882A1
:100E40000268B1F5806F03D112F0005240F0E681E4
:100E500003680268B1F5C06F03D113F0020340F0DC
:100E60000C83B1F5006F03D112F4007240F01183CE
:100E700002F01AF8B1F5206F04E19148D0F8D810CB
:100E800011F4E07100F03F820268402903D112F0B2
:100E9000006240F06D820268802903D112F0005296
:100EA00040F0BC8103680268C02903D113F002033B
:100EB00040F0E382B1F5807F03D112F4007240F07C
:100EC000E88201F0F1FFB1F5A07FDBE07C48D0F8CB
:100ED000D81011F0380100F016820268082903D1F9
:100EE00012F0006240F04482102900F097810368FC
:100EF0000268182903D113F0020340F0BE822029B2
:100F000003D112F4007240F0C48201F0CDFF282911
:100F1000B8E06B48D0F8DC10C1F30221052900F2DB
:100F20002582DFE811F08B01FD01F4016F026202FE
:100F300002026348D0F8E01001F0E061B1F1007FF7
:100F400000F06C81B1F1807F00F01282002900F086
:100F5000758103680268B1F1407F03D113F0020389
:100F600040F08B82B1F1806F03D112F4007240F037
:100F7000908201F099FFB1F1A06F83E05049D1F860
:100F8000E8000968890300F4407040F1E981002815
:100F900040F0E6814B487DE24948D0F8E41001F486
:100FA0004031B1F5803F00F0B281002900F0AB8103
:100FB00002680068B1F5003F03D112F0020240F070
:100FC000118210F400701CBF40F60010C0F23D000A
:100FD000B1F5403F46E23A48D0F8D81011F46031FC
:100FE00000F091810268B1F5004F03D112F0006268
:100FF00040F0BE810268B1F5803F03D112F000528B
:1010000040F00C8103680268B1F5C03F03D113F0D2
:10101000020340F03282B1F5003F03D112F40072B6
:1010200040F0378201F040FFB1F5203F2AE024482C
:10103000D0F8D81011F4E04100F065810268B1F5F4
:10104000805F03D112F0006240F092810268B1F536
:10105000005F03D112F0005240F0E08003680268A4
:10106000B1F5405F03D113F0020340F00682B1F501
:10107000804F03D112F4007240F00B8201F014FF94
:10108000B1F5A04F08BF900304E20D48D0F8E4008A
:10109000400640F19A81A5E00949D1F8E40000F04A
:1010A0004062B2F1806F00F03281002A00F0C68009
:1010B00000200B68B2F1006F00F0E480EAE100BFAD
:1010C000000C024440787D01CC48D0F8E41001F0D7
:1010D0003001102900F079810268202903D112F033
:1010E000005240F09B80006810F400501CBF46F690
:1010F0000040C0F2DC203029B4E1C048D0F8E8104C
:10110000D0F8F02001F00801920700D539B300298A
:1011100018BF4FF4FA41D0F8F00010F0006018BF8B
:101120000846B7E1B549D1F8E00000F00702042A0B
:1011300000F21C81B248DFE812F04801F300BA0067
:10114000AD011F01AD48D0F8E810D0F8F02001F053
:10115000C001920740F12B81002940F028814FF413
:10116000004097E1A548D0F8E8100268920401F029
:10117000300140F12581002940F02281CD4889E1EC
:10118000CB48D0F8E81001F0070102292AD0012944
:1011900000F05B8111B30268032903D112F400321D
:1011A0007FF4F8AE02680068042903D112F002024D
:1011B00040F0188110F400701CBF40F60010C0F21F
:1011C0003D0005294EE1BA48D0F8E41001F00301D2
:1011D000DFE811F00400FB000800AB00BDE8BF40F1
:1011E00000F06CBE01A8FFF76FFC93E0B048D0F8A8
:1011F000E01011F4606100F08F800268B1F5007FAB
:1012000003D112F0006240F0B3800268B1F5806F44
:1012100040F02B8112F0005200F0278101A8FFF767
:10122000BBFCD5E0A248D0F8E41001F44011B1F5C0
:10123000801F00F06C80002940F0CC80BDE8BF40EA
:1012400000F064BE9A49D1F8E000C0F3C202042A5B
:1012500000F28C809A48DFE812F0B80063002A00A0
:101260001D018F009249D1F8E40000F04072B2F104
:10127000807F4CD0002A46D000200B68B2F1007F5E
:1012800040F0088113F0020200F004810868A9E030
:101290008749D1F8E000C0F38212042A66D8884852
:1012A000DFE812F093003E000500F8006A0001A894
:1012B000FFF772FC37E07E48D0F8E41001F44021DB
:1012C000B1F5802F23D0F1B102680068B1F5002F8D
:1012D00003D112F0020240F0858010F400701CBFB0
:1012E00040F60010C0F23D00B1F5402FBAE0704862
:1012F000D0F8DC10C1F30231052937D8DFE801F05E
:10130000031007827515BDE8BF4000F0EBBD01A8D2
:10131000FFF742FC0398BDE0BDE8BF4000F0ECBD24
:1013200001A8FFF7D1FB0198B4E0D0F8E8100368FA
:1013300002689B0701F0404102D5002900F09D8022
:10134000920503D5B1F1804F00F0A3800022B1F1E6
:10135000004F04BF47F64002C0F27D12006823E050
:10136000B0F5007F04D0B0F5807F2ED0002091E052
:1013700001A8FFF7A9FB2BE0D1F8E8000B680A6889
:101380009B0700F0404001D5002876D0920502D599
:10139000B0F1804F7DD00022B0F1004F04BF47F67E
:1013A0004002C0F27D12086810F400304AE0D0F824
:1013B000F02012012DD540292BD14FF4FA4069E0DD
:1013C000026892012ED510292CD101A8FFF714FB39
:1013D00002985FE002680068B1F5001F39D112F091
:1013E000020236D0C0F3C10049E0D0F8F0004FF45B
:1013F000FA41000101EAE0704CE000BF000C024439
:101400000080BB00D0F8F0004FF4004101EA8030CA
:1014100040E00022802908BF48F21202006810F460
:1014200000700FE0D0F8F020920702D520293FF499
:1014300096AE0022302908BF4FF4FA42D0F8F000EF
:1014400010F0006018BF104624E0BDE8BF4000F077
:101450006BBD10F400701CBF40F60010C0F23D00E0
:10146000B1F5401F18BF002014E003680268B1F511
:10147000C06F08D113F0020305D0C2F3C1000F49B9
:1014800021FA00F006E0B1F5006F05D112F4007208
:1014900002D0094804B0B0BD006810F400301CBF91
:1014A00047F64000C0F27D10B1F5206FDAE700BFCB
:1014B000000C0244006CDC0200093D000090D003E7
:1014C0000080BB002DE9F04704460068C10168496F
:1014D000894608D5A16DD9F8C0204B4622F040427C
:1014E0001143C9F8C010C00712D0E06D052800F202
:1014F000A183DFE810F00600C40322000600060006
:101500000600D9F8B0104A4621F0070101F05CFD51
:1015100000262078800701D435461EE0206E4FEA71
:10152000F000052800F289833546DFE800F00D035E
:101530000A0D0D0D01F00AFE05E001F030FD00F08E
:10154000A0BB01F02CFD05462F463DB9206E01F0F1
:101550000CFD21F0380101F037FD374620784007B7
:1015600019D5606E4FEAB010052800F26A83DFE8F3
:1015700000F009030609090901F0E8FD01E001F0A6
:101580000EFD05462E463DB9606E01F0EEFC21F4DD
:10159000E07101F019FD3E462078000719D5A06ED4
:1015A0004FEA7020052800F25083DFE800F00903BD
:1015B0000609090901F0CAFD01E001F0F0FC054649
:1015C0002F463DB9A06E01F0D0FC21F4606101F01E
:1015D000FBFC37462078C00619D5E06E4FEA303064
:1015E000052800F23683DFE800F00903060909093F
:1015F00001F0ACFD01E001F0D2FC05462E463DB9FC
:10160000E06E01F0B2FC21F4E04101F0DDFC3E4669
:101610002078800619D5206F4FEAF030052800F2B7
:101620001C83DFE800F009030609090901F08EFDBB
:1016300001E001F0B4FC05462F463DB9206F01F0F2
:1016400094FC21F4603101F0BFFC37466078C0069D
:101650001CD5606F4FEA3060052800F20183DFE897
:1016600000F00C03090C0C0C01F070FD04E000BF4D
:10167000280C024401F093FC05462E463DB9606FEC
:1016800001F07FFC21F0E06101F0A2FC3E466078B1
:10169000800618D5A06F6FF0010101EB30410229DF
:1016A00008D34FEA304028B1012840F0A88001F06B
:1016B00076FC05462F463DB9A06F01F041FC21F4B0
:1016C000403101F063FC37466078400618D5E06F82
:1016D0006FF0010101EBB041022908D34FEAB0409D
:1016E00028B1012840F08E8001F059FC05462E46B5
:1016F0003DB9E06F01F024FC21F4402101F046FCEB
:101700003E46607800061AD5D4F880006FF00101DB
:1017100001EB3051022908D34FEA305028B101289B
:1017200040F0738001F03BFC05462F4645B9D4F8E4
:10173000800001F005FC21F4401101F027FC374640
:10174000A078C00715D0D4F8840040B1B0F1007F74
:1017500005D0B0F1807F4CD101F021FC05462E462A
:1017600045B9D4F8840001F0EBFB21F0407101F0A1
:101770000DFC3E466079C00615D5D4F8880040B10E
:10178000B0F1006F05D0B0F1806F35D101F007FCEA
:1017900005462F4645B9D4F8880001F0D1FB21F069
:1017A000406101F0F3FB3746D4E900010905C54962
:1017B0008A460DD5DAF80010534621F40041CAF8E4
:1017C0000010D4F8C810DAF800201143CAF800104D
:1017D00080032DD5D4F88C004FEA3020052800F284
:1017E0004282DFE800F018031518181801F0AEFC6B
:1017F00010E001250126BDE701250127D4E70125D9
:10180000012761E7012501267BE70125012797E7ED
:1018100001F0C5FB05462E465DB9D4F88C00D9F819
:10182000B41000254A4621F4E0610843C9F8B40029
:101830003E46A07840071ED5D4F890004FEA3030DD
:10184000052800F21382DFE800F009030609090900
:1018500001F07CFC01E001F0A2FB05462F465DB9DA
:10186000D4F89000D9F8B41000254A4621F4E0419C
:101870000843C9F8B4003746A078800614D5D4F8D8
:10188000A000052800F2F581022800F052812946C7
:101890005DB9D4F8A000D9F8C01000254A4621F05F
:1018A00007010843C9F8C0003946D4E9000292058F
:1018B00001D4884614E0D4F8A42042F00803082B91
:1018C0000BD1A84665B9D9F8C0304D46002523F0A4
:1018D00008031A43C9F8C020EBE701254FF00108BF
:1018E000800101D4404619E0794F5AF8070040F0D2
:1018F00001004AF80700FEF705FF064650465AF871
:101900000700C00707D1FEF7FDFE801B0228F5D9AE
:101910000325032002E0002D284651D021684A010A
:101920001ED5D4F898206FF0010303EB3213022B7D
:101930000BD34FEA321343B1012B3ED1D9F800301B
:101940004E4643F40033C9F800302E464DB9D9F85D
:10195000C0304D46002523F030031A43C9F8C0209B
:101960000646480201D4374617E0D4F89C004028C8
:1019700003D080B901F007FC02E001F0E7FB054667
:101980002F4655B9D4F89C0001F0DAFA21F0400155
:1019900001F0FCFAE7E701250127E078000760D5B0
:1019A000D4F8AC00042800F2BB80DFE800F0034D5F
:1019B0004A50500001F0E7FB49E001250126D0E73D
:1019C0004846D9F8C80010F4407019D0D4F8BC10BB
:1019D000884212D0D9F8C800D9F8C8104A4641F454
:1019E000803120F44070C9F8C810D9F8C81021F42B
:1019F0008031C9F8C810C9F8C800C00740F0488154
:101A0000D4F8BC00DAF80020AB4900F4407322F4AB
:101A10007C5201EA10116FF31F30B3F5407F08BF0D
:101A20000A43CAF80020D9F8C81000254A4621F414
:101A30004071C9F8C810D9F8C8100843C9F8C800DF
:101A400050E701F0ACFA01E001F080FB05462E46BC
:101A500045B9D4F8AC0001F094FA21F0070101F087
:101A6000B7FA3E46E078C0061DD5D4F8B0004FEA7C
:101A7000F000042857D8DFE800F00309060C0C003A
:101A800001F081FB05E001F08AFA01E001F05EFB64
:101A900005462F4645B9D4F8B00001F072FA21F09E
:101AA000380101F095FA3746E078800625D5D4F85C
:101AB000B4004FEAB010042838D80FF20C01D1E876
:101AC00000F000BF1C0C0244090F0C12120000BFF2
:101AD00008FCFFFF01F057FB05E001F060FA01E0B0
:101AE00001F034FB05462E4645B9D4F8B40001F0A8
:101AF00048FA21F4E07101F06BFA3E46E0784006C6
:101B000028D5D4F8B8004FEA7020052800F2B48038
:101B1000DFE800F016031316161601F017FB0EE0AF
:101B2000012501269EE701250127BDE701250126A4
:101B3000E4E701F00BFB0546A9E601F030FA0546A3
:101B40002F4645B9D4F8B80001F01BFA21F46061C2
:101B500001F03EFA37462079800717D5D4F8A8005F
:101B6000032864D8DFE800F00802050801F00BFB49
:101B700002E001F0EBFA05462E4645B9D4F8A8007C
:101B800001F0DEF921F0030101F000FA3E46207970
:101B900040071BD5D4F8940058B1B0F5007F05D0AC
:101BA000B0F5807F3ED101F0EEFA02E001F0CEFA0E
:101BB00005462F465DB9D4F89400D9F8C010002529
:101BC0004A4621F440710843C9F8C00037462079DD
:101BD000C00617D5D4F8C400302809D0202804D076
:101BE000102822D101F0CFFA02E001F0D8F9054621
:101BF0004DB9D4F8C400D9F8BC104A4621F03001E0
:101C000001F0C4F93D462079000708D5D4F8C0009A
:101C1000D9F8C01021F0C0010843C9F8C000284617
:101C2000BDE8F08701250127D1E70125EBE7012574
:101C30000126ACE70126FFF76CBC01250127FFF761
:101C40008DBC01250126FFF7A7BC01250127FFF761
:101C5000C1BC01250126FFF7DBBC01250127F5E406
:101C60000125012613E501250126E2E501250127CD
:101C700002E60125012118E6012501276BE701F0A5
:101C800065FA064600287FF444ACE06DFFF739BCE6
:101C9000FEF738FD064641F2883703254846D9F855
:101CA000C80080073FF5ACAEFEF72CFD801BB842A4
:101CB0004FF00300F2D931E6CFFFFF002DE9F843E2
:101CC000002800F0AA807A4B04460D46186800F000
:101CD0000F0088420AD2186820F00F0028431860CD
:101CE000186800F00F00A84240F097802068714FFC
:101CF000C1060CD57968702202EA1122616991420D
:101D000005D97A6822F4E04242EA012179600107AC
:101D100004D501F054FA01D901F011FA99464107AE
:101D20000AD5E1687A6802F07002914281BF7A6850
:101D300022F070021143796081070AD5A1687A68A0
:101D400002F00F02914281BF7A6822F00F02114324
:101D50007960C00753D1206881070AD5A1687A68E5
:101D600002F00F0291423FBF7A6822F00F02114346
:101D70007960D9F8001001F00F01A9420CD9D9F807
:101D8000001021F00F012943C9F80010D9F8001004
:101D900001F00F01A94240D141070AD5E1687A68F4
:101DA00002F0700291423FBF7A6822F07002114344
:101DB0007960010704D501F002FA01D201F0BFF900
:101DC000C0060CD57868702101EA1021606988424C
:101DD00005D2796821F4E04141EA0020786000F002
:101DE000A3F879683D4A01F00F01515CC8403C49B5
:101DF000086031480068BDE8F843FEF7B1BC57F809
:101E00001C1C606801280BD0022804D003284BD189
:101E1000890102D506E0890304D40120BDE8F883D6
:101E20008905FAD5396821F00301084300F0CAFF9B
:101E30000646606841F2883803282FD0022821D056
:101E400001280CD1386800F0180008283FF483AF4F
:101E5000FEF758FC811B03204145F3D90AE038689E
:101E600010F0180F3FF477AFFEF74CFC811B0320F6
:101E70004145F4D9BDE8F883FEF744FC811B0320FB
:101E80004145F7D8386800F018001028F4D162E70F
:101E9000FEF738FC811B03204145EBD8386800F081
:101EA00018001828F4D156E78907B6D5BAE700BF5D
:101EB000002002401C0C02440400002080B500F009
:101EC00033F81749054A096801F00F01515C01F028
:101ED0001F01C8400249086080BD00BF5E5E000867
:101EE0002400002080B5FFF7E9FF0D490D4A09687D
:101EF000C1F3021101F04EB880B5FFF7DFFF0849CA
:101F0000084A0968C1F3022101F044B880B5FFF71F
:101F1000D5FF0349034A0968C1F3023101F03AB819
:101F2000200C02446E5E0008B0B53A49C86900F062
:101F30001800082804BF3848B0BDC86910F0180F51
:101F400032D0C86900F01800102804BF3348B0BD73
:101F5000C86900F018023248182A5AD18B6A8A6A76
:101F60008C6A8D6BC2F305223AB3E406ED0803F0E8
:101F7000030305EAE474032B6FF35F3400EE104AA9
:101F8000B8EE400A1BD0012B1CD10B689B0651BF39
:101F90009FED251A0B68C3F3C103D84044BF01EE7F
:101FA000100AB8EE411A0FE0086880061C4830D5C8
:101FB0000968C1F3C101C840B0BD0020B0BD9FEDAC
:101FC000191A01E09FED191A486B9FED193A6FF34A
:101FD0005F2002EE100A486BC0F34620B8EE422A9A
:101FE000013000EE032AB7EE000A32EE000A02EEDC
:101FF000102AB8EE422A81EE021A21EE000A01EE02
:10200000100AB8EE411A80EE010ABCEEC00A10EECA
:10201000100AB0BD000C024400093D0040787D016B
:102020000090D00320BCBE4B0024744C0024744AA2
:102030000000003950B32DE9F843E14F0446F86938
:1020400000F01808DF488146006800F00306207899
:10205000C00628D5B8F1080F1AD0B8F1180F08BF7C
:10206000022E15D03868E169002900F05F8140F444
:10207000807000F0A7FE0546386880050CD4FEF796
:1020800041FB00F0DEFEF7D9BDE8F8830120704780
:10209000E069002800F0D580206AB96921F47C113C
:1020A00041EA0040B8612078C00729D0B8F1100F8C
:1020B00022D0B8F1180F08BF032E1DD0626838680F
:1020C000002A20F4803100F09A81B2F5A81F40F474
:1020D000802300F07981B2F5A02F00F07A81B2F56B
:1020E000803F00F07C813960386820F480203860BF
:1020F000386820F4801074E16068002800F0A18046
:10210000207880074DD5B8F1000F1DD0E068B8F1F8
:10211000180F08BF012E2FD03968002800F0318138
:10212000206921F0180108433860386840F0010048
:1021300000F048FE0546386880072BD4FEF7E2FA27
:1021400000F07FFEF7D99FE7E068002879D020698A
:10215000396801F01801814210D0396821F0180166
:1021600008433860FFF7AAFEDFF800040068FEF7B6
:10217000F7FA002865D101E0002862D0FEF7C2FA24
:1021800005463868800705D4FEF7BCFA401B0228D4
:10219000F7D96FE06069396921F4FE0141EA004036
:1021A0003861207800074FD42078400765D4207824
:1021B000800600F19580A66A002E00F0D381B8F168
:1021C000180F40F0C2804846D9F80010012ED9F807
:1021D0000C0036D0E26A01F00303934231D1C1F31F
:1021E0000521226B91422CD10146626B6FF35F2176
:1021F000013A914225D1A26BC0F34621013A9142A6
:102200001FD1E26BC0F30641013A914219D1216C12
:10221000C0F306600139884213D1E06CD9F8101080
:10222000C1F3CC01814200F09D8100F0A5FFFEF7D3
:1022300069FA0546FEF766FAA842FBD000F0F1FE07
:102240008EE10120BDE8F883D9F8C800A1694E46A7
:10225000002958D040F08060C6F8C800FEF752FA56
:102260000546D6F8C80000019ED4FEF74BFA401B85
:102270000228F6D90320BDE8F883BD4EB859C0073F
:102280000FD1B85940F00100B851FEF73BFA0546AE
:10229000B859C00705D1FEF735FA00F0D2FDF7D9DD
:1022A000F2E6A268D9F8C8004D46002A20F00101E4
:1022B00000F0E080852A40F0040300F0B680052A93
:1022C00000F0BA80012A00F0BF80C5F8C810D5F828
:1022D000C80020F0040000F001FF20F08000B5E00D
:1022E0003868616A00295BD040F4805000F06AFDD4
:1022F0000546386880043FF55EAFFEF703FA00F04C
:10230000A0FDF6D9C0E620F08060C6F8C800FEF750
:10231000F9F905464846D9F8C80000017FF544AFF1
:10232000FEF7F0F900F08DFDF4D9ADE620F48070F1
:1023300000F048FD0546386880057FF5B4AEFEF72D
:10234000E1F900F07EFDF6D99EE6386820F0807055
:1023500000F038FD0546022E09D13868800140F1B1
:10236000A780FEF7CFF900F06CFDF6D98CE638684F
:10237000800140F1F180FEF7C5F900F062FDF6D969
:1023800082E621F0010000F01DFD05463868800757
:102390007FF507AFFEF7B6F900F053FDF6D973E607
:1023A00020F4805000F00EFD0546386880047FF56B
:1023B00002AFFEF7A7F900F044FDF6D964E600BFCE
:1023C000000C0244280C02443B60386840F4801042
:1023D00003E03B60386820F480103860386840F4CF
:1023E000803000F0EFFC0546386880033FF588AE8A
:1023F000FEF788F9411B03206429F5D944E63960CA
:10240000386820F480103860386820F4802000F0AC
:10241000D9FC0546386880037FF572AEFEF772F985
:10242000411B03206429F5D92EE6C5F8C830D5F83C
:10243000C80040F0800005E0C5F8C830D5F8C800F5
:1024400020F0800000F04AFE40F00100C5F8C8000E
:10245000FEF758F9054641F288364846D9F8C800D3
:1024600080073FF5A4AEFEF74DF9411B0320B142B2
:10247000F3D909E6C5F8C810D5F8C80020F08000E7
:1024800000F02CFE20F00400C5F8C800FEF73AF971
:10249000054641F288364846D9F8C80080077FF5DE
:1024A00086AEFEF72FF9411B0320B142F3D9EBE5CD
:1024B000D9F8000043F6037104F12C0588432ECDB2
:1024C0000843591E40EA02206FF35F214FF4FE02D9
:1024D000C9F800004FF47E4000EB452080B208446C
:1024E000E16B02EB01414FF0FE4201F4FE010844B2
:1024F000216C02EB016101F0FE410844C9F80C00B7
:1025000000F03AFE00F08DFDC9F80000606CD9F8CB
:10251000001021F00C010843C9F80000D9F80000B0
:10252000A16C20F020000843C9F80000D9F8000091
:1025300040F48030C9F80000386840F0807000F046
:1025400041FC0446386880010CD4FEF7DBF8011B1F
:1025500003200229F6D997E5D9F80000054908407B
:10256000C9F800000020BDE8F88300BF0400002087
:1025700024FCFFFFFCFFF8FF70B12DE9F84304468F
:1025800000205A4AA062206840F08051914205D153
:10259000E1680F2903D927E001207047E168E26B69
:1025A0000123083103EB5212C9085143504A9042AB
:1025B00004D0EC4A02F58832904201D1082913D8A0
:1025C000E34A90420ED0E34A90420BD0E24A904256
:1025D0001CBFE24A904205D0E14A90421CBFE14A4A
:1025E000904204D1102902D90120BDE8F88394F863
:1025F000890028B9002084F88800204600F07AF885
:10260000022084F88900D4E90009D4F8188003680E
:10261000B8F1806F23F001030360836803F4F81CB2
:1026200010D1B9F1000F05D0B9F5800F0AD1A56B13
:1026300075B903E0A56BB5F1805F06D1056845F477
:10264000805505605FEA492502D44FF0010E0DE088
:10265000E668072E08D3256D07684FF0000E27F4B3
:1026600080773D43056006E04FF0000E066826F4D3
:1026700080760660E668E269A16AA768D4E9043555
:1026800042EA0C021143E26B114331438160616AFB
:10269000626B1143A26B1143226A1943294304F16F
:1026A00058051143D4E912321143394319432CCD53
:1026B00011431943294341EA0801BEF1000F41EAE1
:1026C0000901C160016D21F00101016505D1616D54
:1026D000C26822F000421143C16000200121C4F809
:1026E0008C0084F88910BDE8F88300BF004C0150CD
:1026F000004C014010B5BCB0044637A81421FDF7CA
:1027000011FE02A8C8210830FDF70CFE206892498E
:10271000884221D100244FF000600394029002A867
:10272000FEF7D0FE08B1FDF7DDFE0C48816941F4EB
:1027300080518161816901F4805100F02EFB0520F8
:10274000CDE939443B9002203890E0203790019841
:1027500037A90348FDF710FF3CB010BD8C0C0244B4
:10276000000002422DE9F047D0F800901D461746C0
:102770000E460446FDF7C6FF00F02EFC04D136B12C
:102780002FB100F01DFC05D10220BDE8F08701202B
:10279000BDE8F0870320012100F0FDFCA4F86A7079
:1027A00084F88810A4F868706666A4F87000E06683
:1027B000C4E91E00A4F87200A2682068B2F5C02F18
:1027C00004D1016841F40061016003E0C26861F373
:1027D0005242C26041684FF6FF72914339444160F2
:1027E00000F0B3FB02BF016841F400710160E168D1
:1027F00010292BD3564988420CD05649884209D01B
:102800005549884206D0554988421CBF54498842E0
:1028100040F099806E1CB4F86A0000287DD02068D2
:102820004169890708D4FDF76DFF002EF3D0A0EBB6
:102830000800A842EFD380E0616E04C902626166BD
:10284000B4F86A000138A4F86A00E4E707292AD935
:1028500000F0D5FBB4F86A0000285ED02168486912
:10286000800708D4FDF74EFF002EF3D0A0EB080040
:10287000A842EFD361E0B4F86A00012806D9E26B00
:10288000606E22B104C80A62514605E0606E30F8FD
:10289000021BA9F8201039466066B4F86A000844A3
:1028A000A4F86A00D6E700F0AAFBB4F86A00A0B367
:1028B00020684169890708D4FDF724FF002EF4D071
:1028C000A0EB0800A842F0D337E0B4F86A1004295E
:1028D00024BFE16B412914D2B4F86A10012908D948
:1028E000E26B616E32B131F8020BA9F8200050465C
:1028F0000CE0616E097880F82010606E411C38464B
:1029000004E0616E04C902624FF6FC706166B4F8BF
:102910006A100844A4F86A00C7E7204629464246E0
:1029200000F054FD08B100F025FB00F073FC00F04E
:10293000A5FB18BF0120BDE8F08700F06BFC00F09C
:102940009BFABDE8F087CD4988423FF463AF7FE74B
:1029500000380040003C004000300140003800508A
:1029600000300150003C00502DE9F04F85B0D0F808
:102970000090D0F83CA01E4615460F460446FDF7D1
:10298000C1FE00F029FB05D137B12DB126B100F011
:1029900017FB05D1022000E0012005B0BDE8F08F53
:1029A000052001214FF0100B00F0F5FBA4F8726038
:1029B000A4F86A60C4E91E0084F88810E566A4F8EB
:1029C00070606766A4F868602068C16821F4C0215F
:1029D000C160A649884210D0A54A90420DD0A54AB0
:1029E00090420AD0A44A90421CBFA44A904204D00C
:1029F000A34A904218BF4FF0080B43684FF6FF758B
:102A00000122AB4302EB5A1233444360036843F0A4
:102A1000010303606368B3F5800F02BF036843F4EA
:102A200000730360E368102B52D388420CD09049A6
:102A3000884209D08F49884206D08F4988421CBFFE
:102A40008F49884240F00C814FEA9B0097B235468F
:102A500004900E9800F1010B1FFA85F94FEA054A20
:102A600046EA0500000400F0E78000F063FA18BFB2
:102A700011F0020109D0049911FA86F1494504D9EF
:102A8000616E04C9026200F015FA4169BAF1000FE3
:102A90001CD04269D2070CD1B94501D2090408D42F
:102AA000FDF730FEBBF1000FDAD000F0B5FAD7D356
:102AB000D1E0016BE06E01600430B4F872100139AE
:102AC000A4F87210E066B4F87250C5E70025C3E7B9
:102AD000072B5DD94FEA5B0097B2B34603906FF0C6
:102AE0000300811C033002900E9801910130049084
:102AF0001FFA8BF54FEA0B4A46EA0B00000400F080
:102B00009B8000F017FA18BF11F002010BD0039957
:102B100011FA86F1A94206D9616E31F8022BA9F8A3
:102B2000202000F0C7F94169BAF1000F1AD04069BE
:102B3000C00710D1BD4201D2080416D4012D01D125
:102B4000880408D4FDF7DEFD04990029D4D000F0F4
:102B500063FAD1D37FE0B9F83010E06E20F8021BA1
:102B600002990CE04FF0000BC2E7B9F83010E06EAC
:102B700020F8041BB9F8301020F8021C0199B4F8B1
:102B800072201144A4F87210E066B4F872B0AFE796
:102B90006FF0030097B23546033004901FFA85FAB0
:102BA0004FEA054946EA0500000445D000F0C2F9A5
:102BB00018BF11F0020112D01BFA86F151450ED94F
:102BC000616E097880F82010B4F86A000138A4F822
:102BD0006A00616E206801316166B4F86A6041691B
:102BE000B9F1000F19D04269D20712D1BA4501D20A
:102BF0000A0414D4BAF1030F02D811F4C04F08D15B
:102C0000FDF780FD0E990131CCD000F005FAC9D353
:102C100021E000F0A5F9049803E00025BEE700F0EC
:102C2000E1F8B4F872100844A4F87200E06E0130C4
:102C3000E066B4F87250B1E720460E99424600F0C3
:102C4000C5FB08B100F096F900F0E4FA00F016FABE
:102C500018BF0120A1E600F0DDFA00F00DF99CE6B6
:102C6000064988423FF4F0AE34E700BF0038004028
:102C7000003C00400030014000380050003C005053
:102C800000300150042821D8DFE800F003100D20A7
:102C90001B002048016821F0040101601E48016802
:102CA00021F00C0111E01B48022201E01948012229
:102CB000016821F0040101601748016862F3830193
:102CC00003E01448016841F004010160704700BF4F
:102CD000411E0020B0EB116F1CBF012070470D4A50
:102CE00051609060116841F003011160704700BFAE
:102CF00008480068400744BF042070470648006841
:102D000000F00C01081FB0FA80F04009082908BF44
:102D10000220704710E000E0E40C024410B568B1F6
:102D20000446D0F8880008B900F03BFA00F0B0F98A
:102D300001D000F0CDF900F0CEF908B1012010BDAE
:102D400000F0BFF921F02A01816000F0CFF8BDE862
:102D5000104000F047BC7047FEE700000C224261C3
:102D6000002242624FF40042C261074A12680260C8
:102D7000D1E9002342604A8902610A898989836016
:102D8000C2608161FFF7CABF20000020FEE7FEE7B6
:102D90004FF400710122FDF7AFBC01910199016868
:102DA00041F001010160006800F0010001907047EE
:102DB000016841F001010160016801F00101019128
:102DC000019970473860FDF79DBC01EE102AB8EEFE
:102DD000411A31EE021A80EE011ABCEEC11A11EE50
:102DE000102A704790F83000E16E0870E16E20689C
:102DF0004A1CE26690F830004870E16E20684A1C78
:102E0000E26690F830004870E16E20684A1CE26685
:102E100090F8300048704FF6FC7070470164002055
:102E2000704700F0FE002070207800F0FB0020705A
:102E30007047BFF34F8FBFF36F8F70476FF0010084
:102E40007047411B032002297047C3F3C103B8EE4A
:102E5000411A24FA03F300EE021AB7EE000A02EE5A
:102E6000102A31EE000A01EE103AB8EE422AB8EE0E
:102E7000411A81EE021A7047D4F88C0040F4807039
:102E8000C4F88C00002084F88800012084F88900B0
:102E90000320704701F00F0004EB400000EBD11459
:102EA00014F8330FC0077047D0F8F00000F00202AA
:102EB00000207047B4F86A20013AA4F86A206166DD
:102EC000B4F86A607047016851E8001F026821F495
:102ED000907142E80013002B704731EE001A00EEAB
:102EE000102AB8EE400A82EE000A7047016841F0ED
:102EF0000101016020467047F06A20F01000F06286
:102F0000306C8843216A40EAC1003064F06A40F0C6
:102F10001000F0627047306B20F010003063B06C2E
:102F20008843216A40EAC100B064306B40F0100071
:102F30003063704720684FF6FF7241691642704750
:102F4000D9F8BC1000254A467047016841F00101DC
:102F500001606168B1F5800F70473060FDF7D2BB4A
:102F600090F83000E16E08707047D9F8B010002575
:102F70004A467047D4F88C0040F02000C4F88C001A
:102F80007047D9F8B81000254A4670470843C9F879
:102F9000BC007047515C01F01F01C84080BD04F1C6
:102FA000300000F085B941E80002002A704704F0C3
:102FB0000F0001EB400000EBD41090F83310704785
:102FC00094F88800012870470843C9F8B00070479A
:102FD0000843C9F8B8007047804694F88900012872
:102FE0007047A069F16A21F00C010843F062704754
:102FF000A069316B21F00C010843306370474FF634
:10300000FC706E1C00F1020AC71C704700222B46A0
:103010000090204600F00EBCA0EB08000E998842FC
:103020007047E06CC000C9F81000D9F8000040F00B
:1030300010007047F06A43F60371884394E82E004D
:103040000843591E40EA02206FF35F214FF4FE024D
:10305000F0624FF47E4000EB452080B208442169C5
:1030600002EB01414FF0FE4201F4FE0108446169A8
:1030700002EB016101F0FE4108447047012084F831
:103080008900002084F88800D4F88C00002870475C
:103090002420C4F888002068A16A0268002922F070
:1030A0000102026070479DF800009DF80110424641
:1030B00002F00AB9626A616833F81220B0FBF2F0DC
:1030C00070472068416821F49041416081687047F1
:1030D000204600F033BA204600F0ECBAC5F8C8002C
:1030E000D5F8C8007047306B43F60371884394E805
:1030F0002E000843591E40EA02206FF35F214FF46F
:10310000FE0230634FF47E4000EB452080B208445D
:10311000216902EB01414FF0FE4201F4FE01084437
:10312000616902EB016101F0FE4108447047069DB0
:103130000078267846F001062670009570477A6878
:1031400022F4E06242EA01117960704704F108005C
:1031500000F076B8206850E8020F216820F00100E6
:1031600041E80202002A704700F00F0098F80110B1
:103170004044C07C81427047D9F8000020F0100024
:10318000C9F800007047D9F80000494640F4003003
:10319000C9F80000704784F889000020C4F88C004A
:1031A0007047002084F884002046FFF7D4BD8DF8D6
:1031B00001002878B8F1000F8DF800007047796899
:1031C000702202EA1112216991427047B7EE002A7B
:1031D000C1F3066101EE101AB8EE411A31EE021A7F
:1031E00080EE010ABCEEC00A10EE101A704741686A
:1031F00000200847ED06F60804F003046FF35F2390
:1032000006EAE575032C6FF35F3500EE105AB8EE51
:10321000400A7047204600F083B8B8EE411A00EE2D
:10322000021AB7EE000A7047016851E8001F0268F1
:1032300021F0100142E80013002B70477047000096
:1032400070B5B84E0446306820F08060FFF785FE08
:1032500005463068000105D5FDF754FA401B0228E9
:10326000F7D922E0FFF7E6FEF063FFF7BAFEE06968
:10327000F16A21F020010843F062606AF16A0843B4
:103280004FF6F871F062FFF737FE306840F080606B
:10329000FFF763FE04463068000144BF002070BDA4
:1032A000FDF730FA001B0328F5D3032070BD00BFE3
:1032B00070B59C4E0446306820F08050FFF74DFEFC
:1032C00005463068800005D5FDF71CFA401B022832
:1032D000F7D922E0FFF707FF7064FFF789FEE06986
:1032E000316B21F0200108433063606A316B084381
:1032F0004FF6F8713063FFF70EFE306840F08050F3
:10330000FFF72BFE04463068800044BF002070BDEC
:10331000FDF7F8F9001B0328F5D3032070BD00BFAB
:1033200010B5016840F26F344A698B6943F00803B5
:103330008B618B6943F010038B610B6823F00103F1
:103340000B600B69A3430B618B6823F440438B60D4
:1033500090F88930042B0BD0930609D5D0F88C3027
:1033600043F08003C0F88C308B6943F020038B61FD
:1033700090F88930032B0BD0530609D5D0F88C3048
:1033800043F00403C0F88C308B6943F040038B6139
:10339000930509D5D0F88C3043F00103C0F88C3088
:1033A0008B6943F400738B61D20509D5D0F88C206A
:1033B00042F00802C0F88C208A6942F480728A6167
:1033C0000021A0F86A10A0F8721010BDF8B51446DC
:1033D0000D4606464F1C30684069000744BF002078
:1033E000F8BDFDF78FF9002FF5D0001BA84224BFD0
:1033F0000320F8BDEFE77047FDF788B910B59CB022
:1034000008A85021FCF78EFF02AC18212046FCF7DB
:1034100089FF2248016821F030010160016801F054
:1034200030010191019941680907FCD54FF48050A2
:103430003222012111904020089200220B910D9020
:1034400008201B92CDE919020C90022081221890CD
:10345000CDE91600CDE912002020CDE9141210901C
:103460004FF480700F9008A8FEF7E4FD08B172B623
:10347000FEE71F2014210290201DFCF753FF204679
:103480000121FEF71BFC08B172B6FEE70448016893
:1034900021F0300101601CB010BD00BF10080244D3
:1034A0000020024010B51E4801221F4CD0F88010A9
:1034B00041F47001C0F880101A490A600022CA6104
:1034C0000A620B6823400B60184B8A62CA620A6367
:1034D0004B638A63CB630A644B648A640B6823F48E
:1034E00080230B600A654FF0006101601048C168DD
:1034F0004A0F062A04D801F06041B1F1404F0ED1C5
:103500000169C9071FBF0B4901600B4901600169CF
:1035100041F002010161016941F00101016110BD49
:1035200008ED00E0000C0244E3EAE2EA8002010157
:103530000C2002403B2A19087F6E5D4C10B5816A51
:103540000A0706D50268836B546824F400442343B9
:103550005360CA0706D00268C36A546824F4003472
:10356000234353608A0706D50268036B546824F42A
:103570008034234353604A0706D50268436B54687E
:1035800024F4802423435360CA0606D50268C36B23
:10359000946824F48054234393608A0606D5026815
:1035A000036C946824F40054234393604A060FD5B7
:1035B0000268436C546824F480141C43B3F5801FE4
:1035C000546005D1836C546824F4C00423435360D1
:1035D000090606D50168C06C4A6822F4002210432F
:1035E000486010BDBCB504460020C4F89000FDF74B
:1035F00089F8054620680168090714D56FF07E40F8
:103600004FF40011FFF702FD60B1206850E8000F91
:10361000216820F08000FFF7C6FCF6D103202021AE
:10362000882223E020680068400716D56FF07E40AE
:103630004FF48001FFF7EAFC78B1206850E8000FF2
:10364000216820F49070FFF7AEFCF6D1FFF782FD01
:10365000FCD1032020218C2208E0202000217022B0
:10366000C4F88800C4F88C00E1660020A150002155
:1036700084F88410BCBD000010B5FFF724FCFCD119
:103680000B49026852E8022F03680A4043E802240B
:10369000002CF6D1C16E012902D1FFF7C5FDFCD186
:1036A0002021C0F88C1000214167C16610BD00BF09
:1036B000FEFFFFEF70B504460068524E04F10803A8
:1036C0000ECB056835401943666940F0805331439D
:1036D0004E4E2943E56929430160416821F4405178
:1036E000114341604849A2698B421CBF236A1A43B7
:1036F000836833401A438260626AC36A23F00F030F
:103700001A438842C26251D0414988421BD0414984
:1037100088421CD04049884217D0404988420BD08B
:103720003F4988420DD03F49884207D03E498842F0
:1037300014BF002002200BE0202009E04FF480504D
:1037400035E0012004E0042002E0102000E0082021
:103750000021FDF78BFAB5F5004F15D120B3334B9F
:10376000FFF7A8FC4A0802EB40004FF6EF72B0FBEF
:10377000F1F0A0F1100191423AD84FF6F0710140FA
:10378000C0F3420008440DE070B1284BFFF792FCF3
:103790004FF6EF7200EB5100B0FBF1F0A0F1100119
:1037A000914225D82168C860002522E00020002130
:1037B0000025FDF75BFAE0B11C4B616A626833F8E3
:1037C0001110B0FBF1F002EB4201884210D3B0EBD4
:1037D000023F0DD8010E000210EB520041F1000132
:1037E0000023FCF755FDA0F54071114A9142D9D351
:1037F00001250020C4E91D004FF00110A0662846F5
:1038000070BD00BFF369FFCF00240054FFF4FF1127
:1038100000480040004C0040005000400064004060
:10382000003801400024004400440040765E000857
:1038300000FD0F002DE9F047DDF820908246984604
:1038400016460F460068032509F10104C169394095
:10385000C91BB1FA81F14909B1421ED1002CF5D042
:10386000FCF750FFA0EB0800484517D8B9F1000F4E
:1038700014D0DAF8000001684907E7D5402F18BFD7
:10388000802FE3D0C16909070BD4C1690905DDD5D3
:10389000032520244FF4006106E000252846BDE8FA
:1038A000F08701250821082401625046FFF7E4FE55
:1038B00000208AF88400CAF89040EFE750B1016C0C
:1038C00021F000410164016C41F00101016400211B
:1038D000416400E0012108467047002000F074BBFD
:1038E000816D21F400418165002070470121016450
:1038F000016C21F001010164016C21F000410164BF
:103900000021416400207047016C4BF680729143A6
:10391000FFF784BA012904D041B9016C21F00041BC
:1039200002E0016C41F00041FFF778BA01207047D6
:10393000FEE711448AB28A4202D1B2EB400F01D3B2
:10394000A1EB400188B27047BCB513460C46054652
:103950000DF107010DF10602184601F071F8E800BB
:10396000094900EB840042589DF807309DF8064055
:1039700092B2E41AA40244EAC3331B0408BF4FF016
:1039800000431A444250BCBD006401402DE9F0419F
:10399000174DDFF8D4850446002600276878411CBF
:1039A000C9B28F420DD2874203D2A868B0B1304469
:1039B00001E0404612D1C1682046884724360137CD
:1039C000ECE705F10C003721FCF7ACFC05F1130026
:1039D0002021FF22FCF79FFCBDE8F081E44800684D
:1039E000C00701D1BDE8F08100BEBDE8F08100BF95
:1039F000E00000202DE9F843144E80464FF0000906
:103A00000021F789B489E01B85B2402D28BF4025ED
:103A100096F90000B0F1FF3F09DCBC4206D0B16866
:103A200089B106F114002A46FCF763FC8021E21BF1
:103A300040462B46CDF8009018BF06F1140202F064
:103A4000ABF9BDE8F8830020BDE8F88368000020EA
:103A50000878400604BF4878052804D000200121DA
:103A60000822FFF771BF4888012161F3DF10014987
:103A70000860F3E74C600140F0B59C4B102001F06A
:103A80000F020826824C00EAD10026EA111649B23C
:103A900003EB42124FF48063B71D04361044827B5F
:103AA0007C4854F82250C0F8803084460120B84049
:103AB000032707FA06F630440F4E304348F28006DB
:103AC0002E4330402026B1F1FF3F05F4C061C8BF4E
:103AD0004FF40056B1F5806F18BF7040BFF34F8FA1
:103AE000BFF36F8F44F82200BFF34F8FBFF36F8F88
:103AF000CCF80030F0BD00BF8F8FFF0770B5654870
:103B00004FF4806100220D4B4FF6FF740025C0F882
:103B100080109649FFF78DF91C2D05D04E19EA50FB
:103B20000435C6F80640F7E7BFF34F8F4FF48062C5
:103B3000BFF36F8F0260C020088070BD0460014039
:103B40002DE9F0478E78C8780F468D8800F0030184
:103B5000304600F0CDF8082815D24D4A04464FFAF9
:103B600086F8324952F8200008F00F090840F97829
:103B700001F00301484402290BD003294ED1174616
:103B800048F2806108E07A480068C0074BD000BE68
:103B900049E0174648F280016FF3DF2540EA010A49
:103BA0000021F609284600F093FB4FF6FC7186F0E1
:103BB00001024FF6FF73084007EBC40101EB8201DD
:103BC000D1F800249A4310446FF07002B8F1000F4E
:103BD000C1F8000445484FF4806100EB491000EB48
:103BE000061085818473F748C0F8801048BF6FF4D1
:103BF000E0422023B8F1FF3FC8BF4FF40053BFF3AA
:103C00004F8F83EA0A03BFF36F8F1A4047F82420CF
:103C1000FFF70FF901600120BDE8F087D448006884
:103C2000C00700D000BE0020BDE8F087707000F82B
:103C3000F0B52E4C01F00F02102348F280074FF42C
:103C4000806603EAD10049B204EB42121044104AE4
:103C5000847BDC4852F82450C0F880603D430E4F0E
:103C6000B1F1FF3FC4BF4BF68F77C0F2FF7705EA93
:103C70000701C8BF4FF48053BFF34F8F5940BFF3C4
:103C80006F8F42F82410FFF7D4F80660F0BD00BF34
:103C90000060014008E100E0BF8FFF07B0B5134CA2
:103CA00001F00F00C9090D0104EB4014625104EB4F
:103CB0000112002454811381546000F09DFB012007
:103CC000B0BD00BF70B5094C01F00F00C909002656
:103CD0000D0104EB4014665104EB0114668123814D
:103CE000626000F089FB012070BD00BF1807002052
:103CF000F0B501241D4A4FEAD01C00F00F0584EAFC
:103D0000D01402EBD013002014440433261D0828DD
:103D10001CD013F8204002EB800734B1FC788C42B1
:103D200004BFBC78AC420FD11DE0012902D116F8C6
:103D300020404CB9BC78FF2C18BFAC4204D1FC78B1
:103D4000FF2C18BF8C4208D00130E0E7884800689B
:103D5000C00700D000BE002005E0F9700CEB0701A1
:103D60000122BD700A71C0B2F0BD00BFBC000020CE
:103D7000F0ED00E02DE9FE43054640788846023824
:103D800005281DD8DFE800F003440E1509887548A2
:103D9000002101734173017411E07248017801310F
:103DA00001700DE06F48017B002900F0D5800121F2
:103DB00005E06C48017B002900F0CE800021817372
:103DC0006848B8F1000F446802D16848FFF70FFA5D
:103DD000664F04F10800294600233A8901F0FDF8F6
:103DE0000646B8F1000F02D17968012088473EB13C
:103DF00028786978424603B0BDE8F04301F064BA20
:103E00005B480068C00700F0A78000BEBDE8FE83E5
:103E1000DFF85091544C0026002799F80100411C0E
:103E2000C9B28F4213D2C1B28F4204D2D9F808105E
:103E300051B1314401E0214606D10A6A22B16968D4
:103E40002878904799F8010024360137E7E799F878
:103E50000E00002859D0002089F80E00CDE901009D
:103E60000520D9F80460FFF7A2F902D13F48FFF717
:103E7000BEF93E4C06F1080069460023228901F094
:103E8000ACF80646B8F1000F02D1616801208847FE
:103E9000B6B3FFF708F938E0297911F00F003FF4C5
:103EA0008FAF304B03EB40005C7800EBD11292F8FF
:103EB0002320944208D99B68002B3FF481AF02EB8A
:103EC000C20203EB820602E07FF47AAF264EF2696B
:103ED000002A3FF475AFCA09841814F8330FFEF7AF
:103EE000A0FFAB6828786A79F669B047A0BB207854
:103EF00040F001002070207840F0040020705FE75F
:103F0000F2480068C00700D000BE99F81200C00750
:103F100022D00320FFF74BF96868D9F804500190CC
:103F200002D11248FFF763F9104C05F10800694609
:103F30000023228901F051F80546B8F1000F02D1A3
:103F40006168012088471DB1FFF7ADF8BDE8FE8329
:103F5000EF480068C00701D1BDE8FE8300BEBDE8A0
:103F6000FE8300BFE0000020905E000808000020F3
:103F7000F0ED00E010B500F07BFAEF4C002020607F
:103F8000206840F45D40206000F092FAA06940F49F
:103F90000040A061012010BD04484FF48061016021
:103FA0007046FEF746FF8646704700BF88E100E096
:103FB000BFF34F8F03484FF48061BFF36F8F0160F1
:103FC000704700BF08E100E02DE9F04F89B0BC4D1B
:103FD0006C6CA0050ED56FF4007001216864A86CAC
:103FE0006FF3DF2007904FF44070ADF8180006A87B
:103FF000FFF7C0FE600500F14481E00412D5286C93
:10400000012120F004002864286C20F008002864B6
:104010006FF4805068644FF4A060ADF8180006A8F3
:10402000FFF7A8FE200512D5286C012140F00800FA
:104030002864286C40F0040028646FF40060686411
:104040004FF48060ADF8180006A8FFF793FEE00576
:104050000DD59C48017839B1012902BF2A6C22F0A4
:1040600010022A64013901706FF480706864DFF80F
:10407000DC84019405F58060934C4FF014090290A4
:10408000686C000440F10E81686C00F00F0655F872
:1040900026A05FEA0A4040F1B180CDF80C90039869
:1040A00018B1039801380390F9E75FEA0A502AD45F
:1040B00055F82600C146204040F0800045F8260013
:1040C00055F826B00BF48C400BF00F04B0F5884087
:1040D00008EB441818BF0120029B03EBC60151F8FE
:1040E000202051F8200013FA80F1D8F80400C2F320
:1040F0000947B8B300220792042206923A4606AB5B
:1041000000F06BFF39E0029A002302EBC600416821
:104110004068C1F3094712FA80F004A93A4601F059
:1041200027F855F82600204040F08000082F45F879
:1041300026000CD1DDE90401CDE907014FF4C06090
:104140000121ADF8180006A8FFF714FE56E07048EC
:104150000068C00700D000BE002001210822FFF740
:10416000F3FB4BE0B8F80A00D8F800200023024423
:10417000084611463A4600F0FBFFB8F80A00B8F8C6
:104180000C2038449742A8F80A001DD3B8F808104C
:1041900083B2994218D90BF4C063B3F5806F08D08D
:1041A000081A80B2904238BF024630460121FFF71C
:1041B000CBFB454C4BF2800104F5405000EA0B006C
:1041C000484045F8260016E030460121FFF7BCFBC9
:1041D000B8F80A008DF81C40002401218DF81D401C
:1041E00008904FF4E060ADF8180006A8FFF7C2FD94
:1041F000C8F80840344CC8464FF014095FEA0A601A
:104200007FF53EAF55F82600204040F4004045F8C9
:10421000260055F8262002F00F0102F4C06308EBD7
:1042200041101030B3F5806F12D1C37B002B3FF4E7
:1042300027AF0023C373012323EA921205EBC603C1
:1042400003EB8202D2F800346FF31943C2F8003452
:10425000028943899A4210D14FF4E0600892ADF888
:10426000180000208DF81D0001F1800001218DF85B
:104270001C0006A8FFF77EFD02E7314600F05EF85D
:10428000FEE66FF48060686400F012F900200121FE
:104290008DF81C004FF48070ADF8180006A8FFF7E9
:1042A00069FD0AE00198400407D519480068C00775
:1042B00000D000BE6FF48040686409B0BDE8F08FA4
:1042C00000600140100700200F0FFF07F0ED00E035
:1042D0001CB50C460DF107010DF1060200F0B0FB14
:1042E000994A014610884318002C1C4618BF0C44FC
:1042F000A1B2148018BF40EA0340B1F5006F06D99F
:1043000003480068C00700D000BE4FF6FF701CBD18
:10431000F0ED00E0E0B500208021002200230090B5
:10432000FFF7BCFC8CBD00006048026822F40072FC
:1043300061F3492202607047406001402DE9FC476B
:1043400005462B488A464FF0000CA0F580684FEADE
:10435000CA0358F82170002107F4C069B9F5806FCD
:1043600008BFC7F38011AE892A8943EA81016B89AE
:104370000C18095810FA81F1D01A80B2B04238BF37
:104380000646686840B104226B46CDF804C000922E
:10439000324600F00FFE07E02868C21808460023E6
:1043A0001146324600F0FCFE6889B9F5806F4FF483
:1043B0008061104A48F2B00330446FF39F26688151
:1043C00020686FF3194040EA0640206004BF0120D6
:1043D000E8733A4025485A40C0F88010FEF729FD9E
:1043E00048F82A20FEF725FD0160BDE8FC8700BFE4
:1043F000006401403F0FFF07F8B5544A012902EB62
:10440000401000EB0110847B04D12146BDE8F84048
:10441000FFF794BF018985894A4EA94238BF0D46EE
:1044200056F82400104900EA010700F4C060B0F516
:10443000806F04D1204600212A46FFF785FA2046E6
:1044400001212A46FFF780FA08484FF480614BF2B9
:104450008002C0F880107A40FEF7EBFC46F824207A
:10446000FEF7E7FC0160F8BD0F3FFF0708E100E041
:1044700082B00E4803210160002101910199C829F1
:1044800003D200BF01990131F7E7016821F0020171
:104490000160002100910099C82903D200BF009952
:1044A0000131F7E70021416002B0704740600140F0
:1044B000F8B52549234D00204FF6FF72E86408281F
:1044C00005D001EB80030130C3F80220F7E7402458
:1044D000002000270C800021FFF70AFC802000212B
:1044E0008026FFF705FC19480021877784838773AE
:1044F00084814020FFF7ECFE044640200021FFF7B6
:10450000E7FE4FF6FC71124B4FF6FF7704EA01020B
:104510001C680840BC4322441A600822D5F80014E5
:104520006FF30F0108440121C5F8000400202C6836
:10453000FFF70AFA074842F220212040484028604D
:10454000EE64F8BD00600140BC00002018070020A8
:1045500004640140707000F870B50646486914465E
:104560000D4601F061FB6B69304601212246BDE832
:104570007040184786B0FCF7D3F8FEF73FFF0DF107
:10458000040914214846FBF7CDFE5648884D012208
:104590004FF010084FF0010A0168A5F5006641F0E0
:1045A00080010160016801F08001009100990168BB
:1045B00041F001010160016801F0010100910099E1
:1045C000016841F004010160016801F004010091FB
:1045D0000099016841F0020101601021006800F0BB
:1045E0000200009000983046FCF786F82846FEF757
:1045F000CFFBDFF8F4B00224002730464946CDE96E
:10460000018A04940397D8474FF4007049460494F4
:10461000CDE902A701902846D84728464946039786
:10462000CDE90187D84731480821314D017105F5A1
:104630004051C0F80A704472C471C0F80D70016036
:10464000FCF72BF908B172B6FEE75A4C07214FF080
:1046500080404FF080624FF48003C4E90D07C4E945
:104660000620C4E90A71C4E9027104F148001C2162
:10467000E763C4E90877C4E90053C4E90477FBF7AA
:1046800051FE2046FDF778FF08B172B6FEE7002024
:104690000021002401F08CFA01F089FA4FF47A70BD
:1046A000FBF722FF0A20FBF71FFF00F025F8002090
:1046B0000121FBF7C9FE0F494FF4E130C1E90004C5
:1046C00000208C608C81FBF777FE08B172B6FEE7A4
:1046D0004FF0FF30002100F043FF00F0C3F900F07D
:1046E0006BF8F5E78C0C024479050008980300206C
:1046F000003001402401002010B53220FBF7F4FE09
:104700000A4C0020F021A0470120FF21A0470C20E7
:104710000021A0470D200F21A04712200F21A04704
:104720000A20BDE81040FBF7DFBE00BF7D47000850
:104730001FB58DF80E004120FF211D4C00228DF881
:104740000D0000208DF80F104FF400718DF80C0053
:10475000ADF80A002046FBF7CFFF64200DF10D01F4
:104760000DF10A02032300901248FEF7FDF82046DF
:10477000FEF70EFB9DF80C0004B010BD1CB58DF8C3
:10478000060040200A4C8DF807104FF400710022FB
:104790008DF805002046FBF7AFFF06480DF1050137
:1047A00003226423FDF7DEFF2046FEF7F1FA1CBD6D
:1047B000000802427C060020BCB501AC00200021AC
:1047C00000F084FD20B10020214600F0A5FDF5E7B2
:1047D000002000F091FD4FF47A75002818BFFA25EB
:1047E000FBF790FF064C2168401AA84206D9FBF758
:1047F00089FF206003482021FBF776FFBCBD00BF86
:104800000C07002000000242002070470120704782
:104810007FB58A4CC0212046FBF784FD04F140009F
:10482000402500260021002200238DE8610004F1CC
:104830002800039500F02EFA04F1800000210122E7
:10484000002303958DE8610004F1100000F022FAC6
:104850007FBD00BF2DE9F84F80468D1848790F467F
:104860000C46012806D1B8793C46012802D1F879D6
:104870003C4678B16078042804BF6079012805D1EE
:10488000A079032804BFE079002810D0002080B26E
:10489000BDE8F88F387838440446A842EAD2207838
:1048A0002044A842E6D861782429F5D0E2E7DFF871
:1048B000CCAB9AF82A0040B19AF8120028B1E3482C
:1048C0000068C007E2D000BEE0E7A0788AF8008068
:1048D0004FF0000B8AF801002078261836E0307877
:1048E0003118A94237D8717805292ED14046314672
:1048F00001F024FA88B396F90200B0F1FF3F12DD0F
:10490000D14609F8288F89F80200B0886FF3DF20BC
:10491000A9F8040009F10C0000F09EFA484600F0E6
:10492000D9F968B920E08AF81200B0888AF81080B6
:104930006FF3DF20AAF814000AF11C0000F08CFAD3
:1049400031780BF1010B705C0E44064420798345ED
:1049500038BFAE42C3D3F01B99E7BC480068C0071C
:104960003FF494AF00BE91E7F8480068C0073FF4F9
:104970008DAF00BE8AE700BFB0B5304C002504F112
:104980003400C4E90055C4E9025500F065FA04F1A9
:104990001C0084F82A5000F05FFAA574B0BD00BF77
:1049A0002DE9F04125489846012790F82A50837C4C
:1049B00087F001063C46F70704D18D4202D000275C
:1049C0008B42F5D1E30721D006F001035B42DEB252
:1049D000740054FA83F300EB831090F82A3000F14E
:1049E00010058B421AD100F128075AB9296A31B152
:1049F0001FFA88F205F12400002300F0EEFA304699
:104A000000F042FD384600F065F914E0CF48006838
:104A1000C00700D000BE0020BDE8F08100205AB9D8
:104A2000AA788A4208D1284600F0BEF918B928466B
:104A3000414600F0F1F90120BDE8F0817401002049
:104A400000233E2888BF01230B704FF001014FF077
:104A5000010384BF05231F210844D8401070C0B251
:104A6000984070472DE9F84FFBF74CFEDFF8DCB0BB
:104A7000DBF80010401A322838BFBDE8F88FFBF78A
:104A800041FECBF8000001204FF00108FFF750FE77
:104A9000FF2803D0BDE8F84FFFF72EBE4FF0000A05
:104AA0004FF00009B9F1040F4AD008FA09F080F07C
:104AB0000F00C1B21220FFF761FEADF802A0BDF8F1
:104AC0000200642805D2BDF802000130ADF80200F2
:104AD000F5E71320FFF72CFE00F00F056FF003073A
:104AE0004E4657B3391D0BEB060425FA01F1207928
:104AF000C90702D0A0B1FF2102E0022805D201219E
:104B000008442071C0B202280AD3207D90B906F172
:104B10003C000121C0B200F01BF884F8148009E0C9
:104B2000207D38B106F13C000021C0B200F010F841
:104B300084F814A004360137D3E709F10109B1E77D
:104B400012200F21BDE8F84FFFF718BE40000020EB
:104B5000BCB5054600200C4600F0CEFBA0B16FF0BE
:104B60007F008DF80650002C18BF64248DF8074094
:104B70000DF1050218BF6FF06F008DF805000021E0
:104B80000323002000F0D8FBBCBDE0B5002209786B
:104B900000230092802222EA0101002201F0FCF8A9
:104BA0008CBD817809B142780AB100207047007845
:104BB00001F0A4B8417801B17047027881781046BD
:104BC00001F0CAB81CB50446407808B100201CBDED
:104BD000A2680B462078A1783AB100240094002BFB
:104BE00008BF1A4601F0D8F81CBD0022009204F15B
:104BF0000C0201F0F1F81CBDF0B5DDE905452544D6
:104C0000AC421AD226782644AE4216D86678042ED4
:104C100009D0052E0ED1A67806F00F0701EB470745
:104C200007EBD61605E0E67826B9A6789E4206D2AE
:104C30001644307026783444E2E70120F0BD854800
:104C40000068C00700D000BE0020F0BDF0ED00E01D
:104C50000178C9070ED1017849070BD40178C9073B
:104C600008D10178490705D4017841F004010170A9
:104C700001207047002070470178490708D5017866
:104C8000C90705D1017801F0FB01017001207047CF
:104C900000207047F8B50D46069961B1079A52B1E8
:104CA00004464570DDE908760C3000F0D9F80120A3
:104CB000A760E680F8BD0020F8BDB0B504460C3012
:104CC00092B2002300F076F90546204600F002F883
:104CD0002846B0BDB0B50446808AE18A401AB4F9CE
:104CE000101048BF00EB4100D1FA50F0A18880B20B
:104CF000884214D32046FFF754FF80B1A08AE18A8E
:104D0000401AB4F9101048BF00EB4100D1FA50F03E
:104D1000A18882B28A4205D22046FFF74BFF0025C8
:104D20002846B0BD4942E588084080B2A84238BF55
:104D3000054620462946FFF745FF0028F0D14548A3
:104D40000068C007EBD000BEE9E700BFF0ED00E06F
:104D5000B0B5D2B104460C3092B2002300F03DF958
:104D60000546A08AE18A411A208A48BF01EB40012A
:104D70008AB2824228BF0246A1888A4201D2884272
:104D800004D2204600F010F800E000252846B0BD0F
:104D9000818AC28AB0F91000891A48BF01EB40012C
:104DA000D0FA51F080B27047B0B50446808AE18AEB
:104DB000401A218A48BF00EB410080B2884238BFC8
:104DC000014631B32046FFF7ECFE10B3A16839B1BC
:104DD00004F10C00E288002300F0ECF805460AE03C
:104DE000A08AE18A258A401A48BF00EB450080B2BC
:104DF000A84238BF054620464DB12946FFF7E2FEDE
:104E000040B914480068C00703D000BE01E0FFF7B6
:104E1000D1FE00252846B0BD10B5828A0446C38A5B
:104E20000020B1B19A4214D1A088013808420FD1B4
:104E30002046FFF7B6FE58B120460021FFF7C2FE1C
:104E400008B1012010BD03480068C00700D000BEB3
:104E5000002010BDF0ED00E000214181018170478C
:104E6000B2F5004F08D810B50024448183718280C8
:104E700001600481BDE810400020B2F5004F98BFEA
:104E8000012070472DE9FE4F93460C9A8C4605464B
:104E90008088991A48BF01EB40010E0446D08EB2BB
:104EA000B04206D20146984298BF4942CA1801460C
:104EB0006A810D9B16181746361A121ABCB2844224
:104EC000F9D2C71B88B2584538BF83468BB3D5F893
:104ED0000080B8B2834508EB04013AD993F80090FA
:104EE000ABEB070064460190C9F1000007EA000A35
:104EF00060461FFA8AF2009200F052F9A9F101000F
:104F000014FA8AFA3840C1B2002947D0009A02AF99
:104F1000A9EB010C019C08EB020313FA86F30026AF
:104F2000B14219D09A5DBA550136F9E74FF0000B3E
:104F30003DE02868BAB2011993452AD96046644613
:104F4000FBF7D7F9ABEB070114FA87F08AB22968AF
:104F500021E060465A4628E01FFA8CF2A3B2394499
:104F6000934238BF1A46D6B20D9B0022B24204D2F9
:104F70002F68BF5C8F540132F8E756FA80F202A91D
:104F8000504600F00DF92868A41B0AF1040A8119A3
:104F900006E060465A46FBF7ACF908E02968019C38
:104FA000200404D0A2B250460D9B00F0F9F85846F8
:104FB000BDE8FE8FBCB5044605894089CDE90003F4
:104FC00020462B46FFF75EFF0546A08861892A46EA
:104FD000FEF7AFFC60812846BCBD2DE9F04F87B0DD
:104FE000002A00F08480B0F808808A46868804464B
:104FF000418980799946154698B1AE421DD9B8EBE2
:10500000010048BF00EB460015FA80F0B0EB460FF8
:1050100005D3701B82B23046FEF78BFC80462F46CC
:1050200014E0B8EB010048BF00EB4600D6FA50F0A0
:1050300087B2BD4238BF2F4606E0A81B88463746D8
:10504000B9F1000F08BF8244002F50D008EB060BC7
:1050500042461146921BABEB060B88B2B042F8D227
:10506000761AB9F1000F44D022681118B0B2874205
:105070004DD94B4699F80090B81B0292CDF8148098
:1050800004900393C9F1000006EA00055046AAB255
:10509000019200F06DF8A9F101011AFA85F001EA18
:1050A00006035FFA83F8B8F1000F4AD0A9EB0801B4
:1050B000049D89B2AAB28A4238BF114606AE5FFA91
:1050C00081FADDF80C9000905AFA83F231464B4693
:1050D00000F04EF8DDE90110AC460844002110FA5A
:1050E0008BF0884516D0725C42540131F9E70027F5
:1050F0003AE02168B2B2084497421DD95146FBF705
:10510000F8F8B81B1AFA86F182B2206816E0504609
:105110003A4620E000984644DDF81480002104302F
:105120002268514503D2755C55540131F8E702EB12
:105130000A01ACEB0A0C09E051463A46FBF7D9F8F4
:105140000CE0DDE9039CDDF8148021685FEA0C4285
:1051500004D01FFA8CF24B4600F00AF8A0884146B2
:105160003A46FEF7E6FB2081384607B0BDE8F08FEF
:105170001CB50BB11C7805E0042403E008C8121B21
:105180000B60214493B2A342F8D2120407D0006806
:10519000019001AA084611461A46FBF7AAF81CBD61
:1051A0001CB504460BB1187806E0042004E00B1887
:1051B0000968121A02C4194693B28342F7D2100446
:1051C00007D000201A46019001A8FBF792F8019839
:1051D00020601CBDB0B51C4C0A6800254B6884E8F3
:1051E0002C00E560BDE8B040FFF7CFBCF8B5164E27
:1051F0000C684D680027C6E90045F781B260CC888D
:10520000A342254638BF1D46B5813CB17AB973B17A
:10521000D1480068C00714D000BE12E0FFF7B5FC0B
:1052200040B9CD480068C0070BD000BE09E0FEF7CA
:10523000E1FB08B10120F8BDC7480068C00700D0F5
:1052400000BE0020F8BD00BF6800002000207047AD
:1052500000487047C65E000800487047B45E00080A
:10526000002070470020704710B5F0B1042884BFBB
:10527000002010BD124951F820402046FBF75DF890
:1052800010F0E00F18BF1F200E49C0B202310246D5
:105290002AB114F8013B013A21F8023BF8E7022158
:1052A00001EB400040F4407106E005480549006804
:1052B000008848804FF441710248018010BD00BF52
:1052C00028000020340100207047000000EB40005F
:1052D0006A4901EB8010818FC28F891A028F48BF03
:1052E00001EB420189B2914238BF0A46017B407B03
:1052F000401A52FA80F0704700EB40005F4901EB22
:105300008010817C90F82A00002818BF0120002915
:1053100018BF01210840704780B500EB4000574A94
:1053200002EB801004222830FFF7C7FC0438B0FAE3
:1053300080F0400980BD00BF2DE9FE4F904600EB94
:1053400040004E4A002402EB8015A87C002800F0A3
:1053500091804FEA011B994605F1100AAE1C002707
:105360000BF1050002900BF10F0001904F456ED03C
:105370005046FFF70DFD04286BD318F90700A979F3
:10538000013791B1042969D27054AB78AA79511CC4
:1053900003F00F03042BA97116D1093014D1101D8D
:1053A00040EA0B00307008460CE00221E870A97159
:1053B000A97801F00F0104291AD109301FD10298F0
:1053C00030700220E87104E0E879C2B2C9B29142BB
:1053D000CCD1C0B2042802D234540130FAE750468E
:1053E00031460422FFF7B4FC0428EC80BED03BE039
:1053F000C1B2090910F1400F03DA042016E00420BD
:1054000017E0A1F10C02022A0FD30E29F5D00F29C3
:1054100011D11030C1B2032911D8C0001849194A5E
:10542000C0B2C14022FA00F00BE0032041EA0B01B8
:105430003170E8719AE70198AC80A870C1E7052146
:10544000022041EA0B01E871A9700221BDE74C4638
:1054500000E03C465046FFF7A7FC0BE03E480068E2
:10546000C00706D000BE04E03B480068C00700D07B
:1054700000BE3C462046BDE8FE8F00BF7401002000
:1054800004020302040304037047704770470000DE
:105490002DE9F047DFF894A980469AF80000FF282C
:1054A00002D00120BDE8F0870D4669B3294F3721AE
:1054B00007F10C00FAF736FF002038700AF10C00F3
:1054C000FFF7CAFC0AF104007860781C00F0A2FB28
:1054D000B8607878FF2823D0DFF8C496002400262F
:1054E000411CC9B28E4221D2C0B2864203D2B868F2
:1054F00080B1204401E048460CD1406850B180475B
:10550000243401367878EBE713480068C0071DD0D3
:1055100000BE1BE010480068C00717D000BE15E0B1
:105520000D480068C00711D000BE0FE04046294674
:105530008AF80080FEF71EFD18B14046FEF738FDE0
:10554000AFE705480068C00700D000BE0020BDE8F6
:10555000F08700BFE0000020F0ED00E070477047EA
:105560002DE9F04F8BB0DFF8C49899F80000FF28C0
:1055700000F0128307ACDFF89C88D64D4FF0000B8B
:1055800004F1040ABBF1100F00F00683D9F80410EF
:10559000D8F8046000208847B9F8082006F1080010
:1055A00021460023FFF706FDD9F804100646012026
:1055B0008847002E00F0F0829DF81D000138072872
:1055C00000F29E80DFE800F00431151E0D38752AC8
:1055D0009DF81C0000F02CFC9DF8200088F81100BC
:1055E000BBE298F80C00002800F0B782FFF74EFFEE
:1055F000B3E298F81200C00700F0AF820898FFF7F6
:10560000ADFFAAE298F80C00002800F0A68298F8F6
:105610000F00C0F34000FFF7A2FF9EE208990029A7
:1056200000F09B820998884797E29DF81C0000F0E3
:10563000FFFB00F0B9FA90E298F80000002800F0B3
:10564000A28298F80000013888F8000098F800005D
:10565000002840F08282012088F80C0098F833007E
:1056600000F0FE0088F8330098F8330000F0FB00EB
:1056700088F8330098F8340000F0FE0088F8340011
:1056800098F8340000F0FB0088F8340000209DF802
:105690001C7000F0C9FA9DF82020C2F341100228C6
:1056A0004AD0032855D12868C00700F04C8200BEBC
:1056B00049E29DF8201011F00F0008EB400000EBCC
:1056C000D11292F8333003F0FE0382F8333092F8AF
:1056D000333003F0FB0382F8333017D0CA0910448B
:1056E00098F8012090F82300824217D9D8F80820B2
:1056F000002A00F04D8200EBC00002EB800011E0B8
:105700002868C00700F0298200BE26E29DF81C0030
:105710009DF82120099B00F095FA1EE2DFF8800435
:1057200040F036822E4685699DF81C009DF82120A8
:10573000099BA847354610E2DFF8680400F074FAC8
:1057400038460121524600F030FA002800F0FB8173
:1057500003E202F01F0102292CD0012917D00029F1
:1057600050D101285AD1BDF8240010F0F00F40F0BC
:10577000EA81FDF7F9FC40F29580D8F8081000297D
:1057800000F0E18100EBC00001EB80018DE0BDF88D
:10579000240010F0F00F40F0D681FDF7E5FC50D961
:1057A000D8F80810002900F0CE8100EBC00001EB12
:1057B00080014AE0BDF8241001F00F00082827D22C
:1057C00008EB4003C9B298F80160AC46DFF8D0534B
:1057D00003EBD11393F823309E424FF0000603EB06
:1057E000C30308BF2E46D8F8085088BF05EB8306D0
:1057F00012F0600F43D0002E654600F0A4813846B9
:10580000314653E02868C00700F09D8100BE9AE150
:105810002868C00700F0978100BE94E19DF8210040
:10582000092847D8DFE810F00A006E0046000A0198
:1058300046001601220146004C00780098F80F003F
:1058400056E0DFF85C1340F07E8138465246FEF7A2
:1058500083FE002840F081819DF8200010F0600F49
:1058600040F07181002000F0DFF99DF821000B2845
:1058700000F036810A2840F06681002022E09DF881
:105880002120032A18BF012A26D1BDF8220065462F
:10589000002840F00F810020012A40F0098100F02B
:1058A00039FA07E1BE4940F04E8138465246FEF7CC
:1058B00053FE4AE72868C00700F0458100BE42E178
:1058C00098F810008DF82A00384651460DF12A024A
:1058D000012314E0F0ED00E0002A654640F0E3808B
:1058E00008EB4000C909084490F83300C0F34000B9
:1058F000ADF82A00384651460DF12A020223FFF77F
:1059000075FC2AE1BDF82200012840F01C8198F8BE
:105910000F0000F0FD009AE098F810009DF822605A
:10592000B04200F0DD8078B138460021FEF7FCFC83
:105930003846FEF7E3F898F8110006903846FEF76F
:1059400025F8069888F81100002E88F8106000F0FD
:10595000C580701EC0B2FFF77BFC002800F0B98044
:105960004178022940F0B580C17998F80F20C1F341
:10597000801102F0FE02114488F80F10418842188D
:1059800000F109010392914280F0EF800878084409
:10599000904200F2EA804B78042B03D00B2B014697
:1059A000F1D0E5E0501A4FF0000C0026049180B2CF
:1059B000059098F80130581CC2B2964233D29E42EC
:1059C00006D2D8F80800002800F0B280604402E057
:1059D000734840F0AD8003693846059ACDF818C089
:1059E0009847092803D301460598884206D2DDF876
:1059F00018C0013604990CF1240CDAE704980D461E
:105A000008F113021023CDE90001F0B208F12301DF
:105A1000FFF7F2F8002800F0B08098F80100049930
:105A20002944EC4D0130C0B2F2B28242039AAAD3AB
:105A30002868C00700F0808000BE7DE0BDF822002D
:105A4000012840F0808098F80F0040F0020088F8AC
:105A50000F0045E0504600F0EBF89DF82210384664
:105A6000FEF758FC012088F80D0076E0BDF8220012
:105A70004FF0FF3101EB10210E2900F26480C0B21B
:105A8000DFE801F0083D336161464C6161616161AD
:105A900061613800FFF7E0FB002861D0024638461C
:105AA0005146122341E02868C0074CD000BE4AE0AE
:105AB00000F05EF9002E50D0384631465246FEF7CF
:105AC0004BFD002000F0B0F898F83400C00707D074
:105AD00043E02868C0072FD000BE2DE000F064F836
