:020000040800F2
:10000000A00A002069020008CB40000879400008DF
:10001000C9400008E3050008694E00087B0200089B
:100020000000000000000000000000004F48000831
:10003000D906000800000000974600085148000853
:100040008502000885020008850200088502000874
:100050008502000885020008850200088502000864
:100060008502000885020008850200088502000854
:100070008502000885020008850200088502000844
:100080008502000885020008850200088502000834
:100090008502000885020008850200088502000824
:1000A000DB0600088502000885020008E506000856
:1000B0008502000885020008850200088502000804
:1000C00085020008850200088502000885020008F4
:1000D00085020008850200088502000885020008E4
:1000E00085020008850200088502000885020008D4
:1000F00085020008850200088502000885020008C4
:1001000085020008850200088502000885020008B3
:1001100085020008850200088502000885020008A3
:100120008502000885020008850200088502000893
:100130008502000885020008850200088502000883
:100140008502000885020008850200088502000873
:100150008502000885020008850200088502000863
:100160000000000000000000614E00088502000849
:100170008502000885020008850200088502000843
:1001800085020008850200088502000800000000C2
:1001900000000000850200080000000000000000D0
:1001A0000000000000000000850200088502000831
:1001B0008502000885020008850200088502000803
:1001C0008502000885020008000000000000000011
:1001D0000000000000000000000000008502000890
:1001E00085020008850200080000000000000000F1
:1001F0008502000885020008850200080000000052
:100200000000000085020008850200088502000841
:1002100085020008850200088502000885020008A2
:1002200085020008000000000000000085020008B0
:10023000850200080000000000000000000000002F
:10024000000000000000000000000000850200081F
:1002500085020008DFF80CD000F096F8004800474F
:10026000095B0008A00A00200748804707480047AC
:10027000FEE7FEE7FEE7FEE7FEE7FEE7FEE7FEE756
:10028000FEE7FEE7FEE70000FD4800085502000813
:100290002DE9F05F0546002092469B4688460646BB
:1002A000814640241BE0284641464746224600F04E
:1002B0005AF853465A46C01A914110D3114618466F
:1002C000224600F041F82D1A67EB01084F462246FE
:1002D0000120002100F038F817EB00094E41201EE4
:1002E000A4F10104DFDC484631462A464346BDE816
:1002F000F09F40EA01039B0703D009E008C9121FE1
:1003000008C0042AFAD203E011F8013B00F8013BCF
:10031000521EF9D27047D2B201E000F8012B491EFB
:10032000FBD270470022F6E710B513460A46044692
:100330001946FFF7F0FF204610BD421C10F8011BC4
:100340000029FBD1801A7047202A04DB203A00FAEA
:1003500002F1002070479140C2F1200320FA03F31C
:10036000194390407047202A04DB203A21FA02F01A
:100370000021704721FA02F3D040C2F120029140DF
:1003800008431946704700001CB509480090094809
:1003900001900546009C06E0E06840F0010394E807
:1003A000070098471034AC42F6D3FFF757FF000020
:1003B000B8760008D87600080146C06D836D826D5E
:1003C00013F0500F07D0D20648BF00F049BB006DB4
:1003D000826E0846104742F40071816501680B681F
:1003E000CA681B0703D4910707D500F037BB12F486
:1003F000406FFAD1C9688904F7D4816D21F4807106
:100400008165816DC9045EBF816D41F00101816527
:1004100000F024BBC06D816D41F040018165C16D6C
:1004200041F00401C16500F01BBBC06D00F017BBBB
:100430007CB504460020019021688A68D2072AD141
:100440001B4E886806F17F02104222D18868304036
:1004500040F0010088601748006800021CD401F0D9
:1004600089FA054620680168C9071CBF00207CBDC9
:100470008168C90701BF8168314041F00101816095
:1004800001F078FA401B0328ECD320680068C0070D
:10049000E8D103F033FE7CBD0748084903F025FF8F
:1004A000019001980028DAD001980138F8E700BFE0
:1004B000C0FFFF7F0883024228000020400D030098
:1004C00008B103F069BE2DE9F04186B03D480C4605
:1004D00002274FF00708174D03F006FE03F004FE55
:1004E000016941F400310161006900F400300190BC
:1004F000019804970297CDF8148004200190012000
:10050000039001AE2846314601F06EF908203146CD
:10051000CDF8148002970190284601F065F906484D
:10052000214603F0B9FD002818BF6FF0030006B0A4
:10053000BDE8F08100000242140400207047000072
:1005400000EB4000224901EB800001F01BB900BF25
:1005500010B586B004461B48026842F004020260EF
:10056000006800F0040000900220CDE903004FF481
:100570000050019000981448D9B11449029101A982
:1005800001F032F904EB4400114901EB80041149F8
:10059000204601F0F1F8104A2046002101F016F93A
:1005A00018200F21002201F085FA182001F072FABC
:1005B00004E00021029101A901F016F9002006B023
:1005C00010BD00BF8C0C0244000802420000111054
:1005D000A80400200D000006DD0500080020FFF73C
:1005E000ADBFFEE741EA00031343002908BF1146EF
:1005F000002818BF014681EA0300000C18BF012043
:10060000704748B190F8200049B191F82010884215
:100610001CBF0220704702E041B191F820002AB1CE
:1006200092F8201088421CBF0320704700207047BA
:100630002DE9F043D2F800C08568C9B14FF6FC7EC1
:1006400000274FF6FF7800264FF0000901EA0E035D
:10065000AF4224D29E4222D004682FB124EA08047B
:10066000B146344354F82C4004EA0E060137EFE754
:1006700000234FF6FC784FF6FF7E00264FF000096E
:100680009D420BD007682BB127EA0E04B1463443D4
:1006900054F82C7007EA08060133F1E72F4639B108
:1006A0004FF6FC7319408E421CBF0120BDE8F08359
:1006B0004088976046EA004149EA0043D1605360B0
:1006C00051F82C1029B14FF6FC730004194008436F
:1006D00010610020BDE8F08370470020FFF730BFB5
:1006E00072B6FEE7014800F03FBF00BF9C03002048
:1006F0002DE9F84304460020009094F854000128A6
:1007000004BF0220BDE8F8830120884684F8540025
:1007100020688168490736D4D8F80010C44D0129F3
:1007200007D0C44A91420AD1D8F80C20C24B9A4251
:1007300005D1D5F8C82042F00102C5F8C820D8F884
:1007400004201F27C1F3846102F01F03C2F30122BA
:100750009F40994000EB8202166BBE433143116308
:1007600003F080FF40F0B680D8F80820D8F80010D9
:10077000B2F1004F0DD1002203F07FFC20684169E7
:1007800041F000410BE0A06D40F02000A065012089
:1007900048E103F072FC2068416921F000414161A9
:1007A000D8E90412C368042965D1016E066ED8F831
:1007B0000030AE46A24DC6F38466AC461946C3F37C
:1007C000846293FAA3F3B3FA83F76FF31F510029FE
:1007D0003B4608BF13469E420DD1016E21F00041F9
:1007E0000166D8F8003003EA0501C3F3846293FA86
:1007F000A3F3B3FA83F73B460029754608BF1346B7
:10080000466E466EC6F384669E420ED1416E21F05E
:10081000004141666146D8F8003003EA0C01C3F399
:10082000846293FAA3F3B3FA83F73B46002908BF27
:100830001346866E866EC6F384669E420DD1816E27
:1008400021F000418166D8F8003003EA0C01C3F3BF
:10085000846293FAA3F3B3FA83F7002908BF17461B
:10086000C16EC16EC1F38461B94202BFC16E21F095
:100870000041C1662EE000F16007D8F800C06F4E5D
:1008800057F821E00EEA060E062606EA93039A4080
:100890000CF0F8431A4342EA0E0242F0004247F8D5
:1008A0002120D8F81010D8F8182057F8213023F05C
:1008B00080731A4347F82120D8F8101057F82120E8
:1008C00098F81C3022F00072012B08BF02F1007270
:1008D00047F82120D8F800108268D20754D1D0F808
:1008E000B030D8F80C600A46A946554D6FF31F5238
:1008F00006F018079343FD400D402B43C0F8B0307D
:100900004D4B9E423FD1DAB191FAA1F1B1FA81F299
:10091000531C910603F01E05092D19D8013201F16F
:10092000806103F01F03012502F01F0201F0F8416E
:1009300005FA03F302EB420241EA025119431CE0BB
:10094000012202EB91638A0E03F01E050A2DE5D306
:10095000013203F01F03012501F1806102F01F0243
:1009600005FA03F3374D01F0F84102EB420205EBC3
:1009700002521143194341F00071D8F8082003F0E6
:100980007CFBD8F800104D462F48014249D0D5F8DD
:1009900008232E4B994202F0E07008BF12F40003C6
:1009A00010D02B4B994220D10023B3EB106F1CD1F8
:1009B00005F5807122688A4233D103F0E9FD40F0E9
:1009C00080702CE02168A9422BD103F0E1FD804921
:1009D00040F40000C5F808037C4803F086FC009052
:1009E0000098F0B100980138F9E71A4B994208BF16
:1009F00012F480020CD01848814212D12068A8421B
:100A00000FD0D0F8C81041F00101C0F8C81008E0BC
:100A10002168A94205D103F0BBFD40F48000C5F870
:100A200008030020002184F85410BDE8F88300BFBB
:100A3000008002420200300400007F4000F0FF030B
:100A4000FFFF0F00000020FE00000880000021C30F
:100A500000002943000052C700005A477047704702
:100A600070470000F8B50446002000906CB3A06DFC
:100A700028B9204600F0B4F803F0E7FBE0652168F0
:100A800088688000504842BF8A6802408A608A684D
:100A9000D20014D400F180508A6810404C4A40F0D3
:100AA0008050886049480068B0FBF2F0022202EBF7
:100AB00040000090009810B100980138F9E788686C
:100AC000C00004D403F01AFB02E00120F8BD0020AE
:100AD0008A68A36D02F0040203F01003D218A26D1D
:100AE0005BD122F481720232A2658A68D2070ED1EC
:100AF000384A1368D2F800512B43DB0707D16368EB
:100B0000D2F8005325F47C152B43C2F80033627EE3
:100B1000A36B43EA4232D4E902352A431A4394F8DC
:100B2000203042EA0342012B04D1636A2A4D05EBCF
:100B300043431A43A36A23B1E56A03F478732B4352
:100B40001A43CB68254D2B401A43CA60226B0B69B0
:100B500023F040631A430A618A68120724D4CA68E2
:100B600094F8345044F2020394F83C609A43237E94
:100B70006D0045EA83331A43CA60012E0A6910D119
:100B800040F2FD7304F140079A43E8CF1A432A4329
:100B900032433A4342F0010205E042F010010120E5
:100BA00010E022F001020A610A6B236922F00F02B1
:100BB000012B02BFE369013B1A430A63A16D0122C5
:100BC00062F30101A165F8BDC0FFFF5F28000020AE
:100BD000400D0300088002420000FEFF0740F0FFC6
:100BE0002DE9F043D5B0814650A81421FFF79AFBB8
:100BF000684603F0CDFA444DD9F8001005F50040E1
:100C000081427ED14FF400104FF0000800906846FA
:100C1000CDF8048001F0F2FC08B1FFF761FD3B481C
:100C200003270224016841F480610160016801F436
:100C300080613591359903F04FFA35913599016806
:100C400041F002010160006800F002003590359823
:100C5000CDF848815197509450AE2846314600F067
:100C6000C3FD50A8314680E8900105F5806000F092
:100C7000BBFD21201C21359035AD281DFFF752FB0F
:100C800001201421CDF81881CDE93E0005F12C009A
:100C9000FFF748FB1E49284600F0D6F808B1FFF7D9
:100CA0001FFD1C481A4A002100F0FAFA08B1FFF7AC
:100CB00017FD184800F0B4FB08B1FFF711FD164806
:100CC000164A002102608122C0E90E11C0E910110C
:100CD000826400F0FFF908B1FFF702FD0E4D0D49E7
:100CE000284600F045FB08B1FFF7FAFC2846102122
:100CF000C5F85C90C9F8505000F01CFC08B1FFF733
:100D0000EFFC55B0BDE8F083000002428C0C0244B9
:100D10004C010020340100209C03002050000240C0
:100D20002DE9F0419CB00446424F8846D7F80802AE
:100D300021688968490703D494F85410012901D126
:100D4000022048E010F01F054FF00100164684F81D
:100D5000540018BF092D39D12046FFF769FBB8BBF5
:100D60002168A06D40F60172904300F58070A06587
:100D70000DB1B94203D0A06D20F48010A065A06D24
:100D800000222E4B2E4DC00444BFE26D22F006021D
:100D9000E2651C2200200A604A6842F010024A60A4
:100DA00084F85400244AC86840F00100C860206DEF
:100DB000826690F85020C0E9185312060ED482695A
:100DC000012A1DD0022A08BFB6001AE0052DC3D0A3
:100DD00003F03BFA01201CB0BDE8F081406F002811
:100DE000F8D001680029F5D001A800F0DDF800284E
:100DF000F0D10798012810D0022808BFB6000DE0F6
:100E0000760040314246334600F065FC21680D4BC8
:100E10008A681A4004328A60DDE77600206D216816
:100E2000426F40311268C2E90261C2F8108000F0DE
:100E30002DFBEBE700810242150400082B0400089B
:100E4000B9030008C0FFFF7F002876D0002974D0C6
:100E5000F0B500F11006C26B78CE344322431A433A
:100E60002A430A6003789B0614D500F124054FF04D
:100E70007C77866B38CD07EB0454354304F07C74E3
:100E80002C434FF47C7505EB031303F47C7323436D
:100E90001A430A60426840F2FF24036B22401A435F
:100EA0004A60C368B3F5007F05D0B3F5806F04D105
:100EB0000478A40601D51A434A60436B1A434A607A
:100EC000436C43B1856C046C05F03F0544EA05446E
:100ED00022431A434A60B0F868308B600278920768
:100EE000304A21D5C46C4FF0805502EB04441440C5
:100EF00023438B60046D05EAD4044FF0005523446E
:100F00008B60446D05EA94044FF0804523448B6068
:100F1000846D05EA540423448B60C46DB4F1FF3F33
:100F2000DCBF03F100438B60036ECB60436E0B614B
:100F300003789B0703D4142325E0012230E0036DDE
:100F4000002B00D55B426FF35F3302F1C0544B615D
:100F5000456D2E04002D48BF05FB04F634402343A5
:100F60004B61836D002B00D55B429BB202F178424E
:100F70008B61C46D2504002C48BF04FB02F545EAD3
:100F800003021C238A610022CA50006883074FF4C1
:100F9000E06358BF4FF4A06318430862BDE8F04017
:100FA000104670470000FF07B8B3B1B3B0B591F871
:100FB0002020474C02600B6803F0080303610B68B4
:100FC00003F4002343610B6803F0030383610B68A0
:100FD00003F44033C3610B68C3F305130133436269
:100FE0000B68C3F30553013383620B6803F040239E
:100FF000C3620B68234083630B6803F4C053C3636D
:101000004B689C050BD4DBB243604B795B0754BF44
:1010100000234FF48063C36005E0012155E04FF4E5
:101020000073C36043604B68920703F400638360FE
:101030004B6803F4404303644B6803F0407343641C
:10104000CB8803F03F0383644B6803F040430363A2
:101050000B8983660BD40122C264CA6802660A69DE
:1010600000214266C0E91411C0E916112BE04A893B
:101070006FF3DF220132C264CA6802660A694266FF
:101080004B696FF35F330365CA8A6FF35F32426562
:101090008C68E50042BF5B4203658C68A30044BFD7
:1010A000524242650B8B83658A69120CC2658C685B
:1010B000650042BF5B4283658C68B4F1FF3FDCBFD3
:1010C0005142C1650021BDE8B0400846704700BFED
:1010D0000020000CB0B5044600F04CFCC4B105463D
:1010E000022084F85400002084F84C0020684169F4
:1010F00041F00601416120684169C9070AD000F04A
:1011000039FC401B0528F6D90120032210218BE071
:101110000120B0BDD4E90E121143494A904259D082
:10112000484A90421CBF484A904253D0474A904296
:1011300050D0474A90424DD0464A90424AD0B04A99
:10114000904247D0AF4A904244D0434A904241D067
:10115000424A90423ED0424A90423BD0414A90425D
:1011600038D0414A904235D0404A904232D0A64AC7
:1011700090422FD0A54A90422CD03D4A904229D08F
:101180003C4A90421CBF3C4A904223D03B4A90428A
:1011900020D03B4A90421DD03A4A90421AD09C4AF5
:1011A000904217D09B4A904214D0374A904211D0B7
:1011B000364A90421CBF364A90420BD0354A904284
:1011C00008D0354A904205D0344A90421CBF934A19
:1011D000904231D1226C1143426922F443021143FF
:1011E000416100210164626C4264854A8164C1648A
:1011F0000165904211D0834A90421CBF824A9042BE
:101200000BD0824A904208D0814A904205D0814A50
:1012100090421CBF814A90420AD141658165C167F5
:101220000122A06C20650020A16584F85420B0BD87
:10123000794A9042F1D0F2E7774A9042CAD0CBE7A0
:1012400050000240D000024050010240D001024054
:1012500050020240D002024050100240D010024022
:1012600050110240D011024050120240D0120240F0
:1012700050000250D000025050010250D0010250E4
:1012800050020250D002025050100250D0100250B2
:1012900050110250D011025050120250D012025080
:1012A00050B12DE9F04186B0154682B1044640693F
:1012B000012803D1042009E00120704727682A464D
:1012C0000E463846FFF78EF920B105202061012037
:1012D00003F0FEB8384631462A46FFF792F9002857
:1012E000E8D10220924A207300202061286A03F08E
:1012F0007CF961F39A624FB196B11746CDF804803C
:1013000001AA03F04BF998B10620DFE7DEB14FF6F2
:10131000FC7026602840104346F82800022021E097
:101320004FF6FC7025603840104345F8280017E060
:10133000A0680399814209D1606858B14FF6FC71E9
:101340000840384304E0012025600BE056F82800EF
:1013500045F828004FF6FC702840384346F828002E
:10136000A0680130A060002003F051F8B0E700BF92
:1013700090B189B1026D7AB110B590F8543090F8FF
:101380005440022C18BF052B08D1002180F84C10C6
:1013900040218165012010BD012070470B7B022B8D
:1013A00002D10120086110BD0368154CA34211D081
:1013B000144CA3421CBF144CA3420BD0134CA342A9
:1013C00008D0134CA34205D0124CA3421CBF124CB0
:1013D000A3420BD14B68812A03D123B1416700207E
:1013E00010BD002BFAD004200861D3E70B4CA342B8
:1013F000F0D00B6893F820309B07EBD50320F3E780
:1014000050030240D003024050130240D013024068
:1014100050030250D003025050130250D013025018
:101420002DE9F04186B078B1066804462EB16068B7
:1014300028B1B04206D1002507E0022003E0606930
:10144000012805D1042020610125284603F040B879
:1014500002200025002120732561376A07F0020071
:1014600000F105082046CDF8048001AAFFF7E0F856
:1014700079082F4A4FF6FC7061F35962304061F3EE
:101480009A620499104402F0E4FEDEE7002847D097
:10149000436F002B44D0016D002941D010B590F866
:1014A000544002685169012C04D0022C3AD111F445
:1014B000803137D090F8541001292BD190F84C404E
:1014C0000221012C30D002F0E4FE012180F84C1002
:1014D000516941F4BA415161416E19B1516941F408
:1014E00000715161006F18B1506940F400505061B3
:1014F00018684FF6FF710E4B20EA010111604FF69C
:10150000FC710140006A400860F3596360F39A631C
:101510005818D0675069002140F00100506103E085
:10152000012103E002F0CBFEBDE810400846704701
:10153000000001F802460120AAB1CB0612D51368BB
:1015400040F6FF7201F0110123EA020203F57B630A
:10155000C3F3C4139840112951680CBF084321EA12
:10156000000050600020704710B5044600680C2150
:10157000024661F30B02116800F57B62C2F3C412EC
:10158000D140C90700F0A6800169490509D5416924
:10159000490506D54FF48061C160A16D41F001019C
:1015A000A1650169090509D54169090506D54FF409
:1015B0000061C160A16D41F00201A1650169C9042A
:1015C00009D54169C90406D54FF48051C160A16DA8
:1015D00041F00401A1650169490409D54169490443
:1015E00006D54FF48041C160A16D41F00801A165AD
:1015F000016989050AD54169890507D54FF400714C
:10160000C160616E11B12046884720680169890474
:1016100027D54169890424D54FF40051C16094F85D
:101620005410042915D1416921F4005141614169E7
:1016300041F002014161012184F8541094F85020D6
:10164000120641BF626F1173002181640020E16EB8
:1016500039E0052184F85410216F11B120468847E4
:1016600020680169C90520D54169C9051DD594F8CF
:101670005010090604D4816C69B904F1540108E0E2
:10168000C16F41B9816C31B9012184F85410616F87
:101690000C3101220A70002184F84C104FF4407183
:1016A000C160216E09B120468847A06D90B12068C5
:1016B000416941F00201416102F02AFD44BF616FBE
:1016C00008730020A16E84F84C0019B12046BDE8D3
:1016D0001040084710BD20B170B5046D1CB1012049
:1016E00070BD0120704790F84C40012C01D10220C0
:1016F00070BD012480F84C4090F85440012C24D156
:10170000022480F85440002484650468456EA66C69
:10171000C3EA0603A3644FF4FE43E360E164226579
:10172000616941F4BA4161611DB1616941F40071BF
:101730006161006F18B1606940F4005060616069D8
:1017400040F001006061002070BD002180F84C1065
:1017500040218165C3E70000B0B5044600F00AF9F6
:101760000546BA48611C007818BF044400F002F92D
:10177000401BA042FAD3B0BD10B1016000207047F9
:1017800001207047F8B50446006801220E4F00F0B2
:101790001F0102FA01F5082101EA503657F8260028
:1017A000054204D047F82650606800B18047381DD4
:1017B00050F82610294206D040F82650A06810B1F3
:1017C000BDE8F8400047F8BD0C200244022903D0D0
:1017D000012903D031B94260082100E004214250C0
:1017E00000207047012070472DE9FF4F584A4FF005
:1017F00000084FF0000900264FF0000B029002EAAB
:101800009022009200F1200201920B6833FA0BF54E
:1018100008BFBDE8FF8F012202FA0BFE13EA0E009B
:1018200000F08780D1F804C003964CF01005122D0B
:1018300013D108F01C050F2202FA05F46FF0030221
:1018400002EA5B07019AD359A3430C6904F00F0421
:10185000AC402343D351D1F804C0029E03220CF0C4
:10186000030A474602FA09F435680AFA09F3A54360
:101870006FEA04082B43BCF1120F336061D80122D8
:1018800002FA0CF313F0061F5BD0B368D1E902240F
:1018900003EA080304FA09F42343B3604FEA1C1374
:1018A000746803FA0BF324EA0E0423437360F468AC
:1018B00002FA09F304EA08042343F3605FEACC0365
:1018C000B846039E35D506F018030F222BF003050A
:1018D00002FA03F41F4A15442F6E27EA0404009FFE
:1018E00007FA03F323432B6613684D6843EA0004A9
:1018F000EF0258BF23EA00041460AF02536843EAC2
:10190000000458BF23EA00045460AF03D2F88430C7
:1019100043EA000458BF23EA0004C2F88440ED0300
:10192000D2F8803043EA000458BF23EA0004C2F82A
:10193000804008F1040809F1020908360BF1010B97
:1019400063E78A68BAF1030F08BF012AAFD1B5E790
:101950007F7F2F0000200244426902EA0103914385
:1019600041EA0341816170471823002A08BF2823F8
:10197000C150704705480068704700BF33480349AD
:1019800000780A6810440860704700BF980500207E
:1019900080B5032000F0B4F801F062FB0A490B4A5D
:1019A000096801F00F01515CC8402A490860042011
:1019B00002F00AFA0F2000F00BF808B1012080BDF8
:1019C00000F04AF8002080BD200C0244AA750008EF
:1019D00070B51E4E04463078C8B11D4909684907E4
:1019E0000AD402F027FA022825D001281BD050BBC8
:1019F00030784FF4FA5101E04FF47A71B1FBF0F016
:101A000014490968B1FBF0F002F004FA08B10125AD
:101A100007E04FF0FF3021460022002500F04AF891
:101A20007460284670BD30784FF47A71B1FBF0F0E5
:101A30004FF4FA41E6E730784FF47A71B1FBF0F0F9
:101A40004FF40041DEE70020DEE700BF0400002085
:101A500010E000E02800002070470000002806D4B5
:101A6000734602F0B7FB9E46014A42F820107047C9
:101A700080E200E000280AD4734602F0ABFB9E46E9
:101A8000034A42F82010BFF34F8FBFF36F8F7047A8
:101A900080E100E0002809D400F01F010122C0F31A
:101AA0004A1002FA01F1024A42F82010704700BFC2
:101AB00000E100E0F0B5184B4FF0FF361C68C4F3AE
:101AC0000224E51E84F0070438BF002506FA05F756
:101AD000BA43042C28BF042406FA04F4A14300F0FE
:101AE0000F04A940043C1143044A23440901024461
:101AF000002848BF03F10C021170F0BD00E400E0C3
:101B000005494FF6FF030A681A4060F30A220348AA
:101B100010430860704700BF0CED00E00000FA05BC
:101B20000248016841F000710160704738080244C2
:101B300070B52F494B6B8C6A8A6A8D6A8E6BC2F3C3
:101B4000052272B102F07BFD18D0022C0DD001EEFF
:101B5000103A0B689FED272A012C914C02F023FBD1
:101B600016E00021C0E900113FE001EE103A9FEDC0
:101B7000212A02F07FFD9FED212A07E001EE103AB5
:101B80009FED1C2A02F076FD9FED1B2A02F088FBD8
:101B90000A6820EE010A920102D58A6AD20301D4B2
:101BA000002206E04A6BB7EE002AC2F3462202F09A
:101BB000B9FA02600A68920102D58A6A920301D4D6
:101BC000002206E04A6BB7EE002AC2F3064202F09A
:101BD000A9FA42600A68920102D58A6A520301D4C6
:101BE000002102E0496B02F00FFD816070BD00BF73
:101BF000000C02440000003920BCBE4B0024744A93
:101C000070B52F49CB6BCC6ACA6ACD6A0E6CC2F331
:101C1000052272B102F013FD18D0022C0DD001EE96
:101C2000103A0B689FED272A012C5D4C02F0BBFA9D
:101C300016E00021C0E900113FE001EE103A9FEDEF
:101C4000212A02F017FD9FED212A07E001EE103A4C
:101C50009FED1C2A02F00EFD9FED1B2A02F020FBD7
:101C60000A6820EE010A120102D5CA6AD20301D421
:101C7000002206E0CA6BB7EE002AC2F3462202F049
:101C800051FA02600A68120102D5CA6A920301D4AD
:101C9000002206E0CA6BB7EE002AC2F3064202F049
:101CA00041FA42600A68120102D5CA6A520301D49D
:101CB000002102E0C96B02F0A7FC816070BD00BF8B
:101CC000000C02440000003920BCBE4B0024744AC2
:101CD00070B52F494B6C0C6B0A6B0D6B8E6CC2F39D
:101CE000052272B102F0ABFC18D0022C0DD001EE2F
:101CF000103A0B689FED272A012C294C02F053FA69
:101D000016E00021C0E900113FE001EE103A9FED1E
:101D1000212A02F0AFFC9FED212A07E001EE103AE4
:101D20009FED1C2A02F0A6FC9FED1B2A02F0B8FAD8
:101D30000A6820EE010A920002D50A6BD20301D490
:101D4000002206E04A6CB7EE002AC2F3462202F0F7
:101D5000E9F902600A68920002D50A6B920301D485
:101D6000002206E04A6CB7EE002AC2F3064202F0F7
:101D7000D9F942600A68920002D50A6B520301D475
:101D8000002102E0496C02F03FFC816070BD00BFA1
:101D9000000C02440000003920BCBE4B0024744AF1
:101DA0000090D003BFB5431E024661F1000400203D
:101DB000D3F1070570EB040480F09E8082F01003DD
:101DC0000B4300F0D08182F020030B4300F09F8191
:101DD00082F480530B4300F0488182F400530B439C
:101DE00000F0768182F480430B4300F0008382F49C
:101DF00000430B4300F0B28282F480330B4300F0C7
:101E0000CD8282F400330B4300F01F8182F48023E3
:101E10000B4300F0088382F400130B4300F04C8264
:101E200082F480030B4300F0CC8181F48053134390
:101E300000F0CE8182F080630B4300F02F8282F0AD
:101E400000630B4300F00A8282F080530B4300F0E2
:101E5000958282F000530B4300F0B68282F08043FB
:101E60000B4300F05F8281F00203134300F04782CE
:101E700081F00403134300F01D8181F00803134334
:101E800000F0FC8181F01003134300F0B98181F46C
:101E90000073134300F0CD8182F00072114340F0D3
:101EA0009583D549D1F8F00000F44072D1F8F000E4
:101EB000800703D5B2F5807F00F0ED81D1F8F00006
:101EC000000103D5B2F5007F00F01383086880039A
:101ED0004FF0000040F17A83B2F5407F40F0768306
:101EE000C86910F4785F00F0DD82C869C349C0F3A7
:101EF0000520B1FBF0F069E3DFE813F0080084008F
:101F000068035B006803680368032F00BA48D0F8D1
:101F1000D81011F0070100F09B820268012903D15B
:101F200012F0006240F0C0820268022903D112F070
:101F3000005240F00F8203680268032903D113F0B6
:101F4000020340F03683042903D112F4007240F0FA
:101F50003C8302F085F9052930E1A748D0F8D81074
:101F600011F4606100F06B820268B1F5007F03D16B
:101F700012F0006240F098820268B1F5806F03D1E0
:101F800012F0005240F0E68103680268B1F5C06FBC
:101F900003D113F0020340F00C83B1F5006F03D1BD
:101FA00012F4007240F0118302F05AF9B1F5206F7B
:101FB00004E19148D0F8D81011F4E07100F03F82AC
:101FC0000268402903D112F0006240F06D8202687D
:101FD000802903D112F0005240F0BC8103680268EE
:101FE000C02903D113F0020340F0E382B1F5807FF2
:101FF00003D112F4007240F0E88202F031F9B1F539
:10200000A07FDBE07C48D0F8D81011F0380100F058
:1020100016820268082903D112F0006240F044825F
:10202000102900F0978103680268182903D113F082
:10203000020340F0BE82202903D112F4007240F066
:10204000C48202F00DF92829B8E06B48D0F8DC1002
:10205000C1F30221052900F22582DFE811F08B018E
:10206000FD01F4016F02620202026348D0F8E01041
:1020700001F0E061B1F1007F00F06C81B1F1807F8F
:1020800000F01282002900F0758103680268B1F146
:10209000407F03D113F0020340F08B82B1F1806FD7
:1020A00003D112F4007240F0908202F0D9F8B1F13D
:1020B000A06F83E05049D1F8E8000968890300F473
:1020C000407040F1E981002840F0E6814B487DE214
:1020D0004948D0F8E41001F44031B1F5803F00F0F8
:1020E000B281002900F0AB8102680068B1F5003FC1
:1020F00003D112F0020240F0118210F400701CBFF4
:1021000040F60010C0F23D00B1F5403F46E23A48CB
:10211000D0F8D81011F4603100F091810268B1F567
:10212000004F03D112F0006240F0BE810268B1F5A9
:10213000803F03D112F0005240F00C810368026826
:10214000B1F5C03F03D113F0020340F03282B1F584
:10215000003F03D112F4007240F0378202F080F8A1
:10216000B1F5203F2AE02448D0F8D81011F4E0411E
:1021700000F065810268B1F5805F03D112F0006262
:1021800040F092810268B1F5005F03D112F0005275
:1021900040F0E08003680268B1F5405F03D113F0BE
:1021A000020340F00682B1F5804F03D112F40072B1
:1021B00040F00B8202F054F8B1F5A04F08BF900335
:1021C00004E20D48D0F8E400400640F19A81A5E011
:1021D0000949D1F8E40000F04062B2F1806F00F0EC
:1021E0003281002A00F0C68000200B68B2F1006F37
:1021F00000F0E480EAE100BF000C024440787D0179
:10220000CC48D0F8E41001F03001102900F07981B9
:102210000268202903D112F0005240F09B80006830
:1022200010F400501CBF46F60040C0F2DC203029FC
:10223000B4E1C048D0F8E810D0F8F02001F008016F
:10224000920700D539B3002918BF4FF4FA41D0F8EE
:10225000F00010F0006018BF0846B7E1B549D1F8AA
:10226000E00000F00702042A00F21C81B248DFE817
:1022700012F04801F300BA00AD011F01AD48D0F8DB
:10228000E810D0F8F02001F0C001920740F12B8156
:10229000002940F028814FF4004097E1A548D0F88C
:1022A000E8100268920401F0300140F12581002914
:1022B00040F02281CD4889E1CB48D0F8E81001F008
:1022C000070102292AD0012900F05B8111B30268BD
:1022D000032903D112F400327FF4F8AE02680068DB
:1022E000042903D112F0020240F0188110F40070AA
:1022F0001CBF40F60010C0F23D0005294EE1BA486F
:10230000D0F8E41001F00301DFE811F00400FB0055
:102310000800AB00BDE8BF4000F06CBE01A8FFF7AD
:102320006FFC93E0B048D0F8E01011F4606100F069
:102330008F800268B1F5007F03D112F0006240F097
:10234000B3800268B1F5806F40F02B8112F000522B
:1023500000F0278101A8FFF7BBFCD5E0A248D0F828
:10236000E41001F44011B1F5801F00F06C800029E9
:1023700040F0CC80BDE8BF4000F064BE9A49D1F87F
:10238000E000C0F3C202042A00F28C809A48DFE821
:1023900012F0B80063002A001D018F009249D1F8A5
:1023A000E40000F04072B2F1807F4CD0002A46D0A9
:1023B00000200B68B2F1007F40F0088113F00202A8
:1023C00000F004810868A9E08749D1F8E000C0F373
:1023D0008212042A66D88848DFE812F093003E0093
:1023E0000500F8006A0001A8FFF772FC37E07E489C
:1023F000D0F8E41001F44021B1F5802F23D0F1B1E1
:1024000002680068B1F5002F03D112F0020240F01B
:10241000858010F400701CBF40F60010C0F23D0033
:10242000B1F5402FBAE07048D0F8DC10C1F30231AA
:10243000052937D8DFE801F0031007827515BDE8DC
:10244000BF4000F0EBBD01A8FFF742FC0398BDE0E0
:10245000BDE8BF4000F0ECBD01A8FFF7D1FB01983B
:10246000B4E0D0F8E810036802689B0701F040412F
:1024700002D5002900F09D80920503D5B1F1804F6F
:1024800000F0A3800022B1F1004F04BF47F64002E4
:10249000C0F27D12006823E0B0F5007F04D0B0F5F3
:1024A000807F2ED0002091E001A8FFF7A9FB2BE050
:1024B000D1F8E8000B680A689B0700F0404001D59E
:1024C000002876D0920502D5B0F1804F7DD0002251
:1024D000B0F1004F04BF47F64002C0F27D12086819
:1024E00010F400304AE0D0F8F02012012DD5402938
:1024F0002BD14FF4FA4069E0026892012ED51029E1
:102500002CD101A8FFF714FB02985FE00268006875
:10251000B1F5001F39D112F0020236D0C0F3C1006C
:1025200049E0D0F8F0004FF4FA41000101EAE07010
:102530004CE000BF000C02440080BB00D0F8F0006B
:102540004FF4004101EA803040E00022802908BFBA
:1025500048F21202006810F400700FE0D0F8F0208A
:10256000920702D520293FF496AE0022302908BFF9
:102570004FF4FA42D0F8F00010F0006018BF104697
:1025800024E0BDE8BF4000F06BBD10F400701CBF3C
:1025900040F60010C0F23D00B1F5401F18BF00200A
:1025A00014E003680268B1F5C06F08D113F00203AC
:1025B00005D0C2F3C1000F4921FA00F006E0B1F5E1
:1025C000006F05D112F4007202D0094804B0B0BD0A
:1025D000006810F400301CBF47F64000C0F27D10C8
:1025E000B1F5206FDAE700BF000C0244006CDC029A
:1025F00000093D000090D0030080BB002DE9F047AA
:1026000004460068C1016849894608D5A16DD9F81A
:10261000C0204B4622F040421143C9F8C010C00709
:1026200012D0E06D052800F2A183DFE810F006006B
:10263000C4032200060006000600D9F8B0104A467E
:1026400021F0070101F0B1FE00262078800701D4B7
:1026500035461EE0206E4FEAF000052800F289831F
:102660003546DFE800F00D030A0D0D0D01F06FFF98
:1026700005E001F085FE00F0A0BB01F081FE0546FB
:102680002F463DB9206E01F061FE21F0380101F0C6
:102690008CFE37462078400719D5606E4FEAB0109F
:1026A000052800F26A83DFE800F00903060909093A
:1026B00001F04DFF01E001F063FE05462E463DB9F5
:1026C000606E01F043FE21F4E07101F06EFE3E46C3
:1026D0002078000719D5A06E4FEA7020052800F277
:1026E0005083DFE800F009030609090901F02FFF14
:1026F00001E001F045FE05462F463DB9A06E01F010
:1027000025FE21F4606101F050FE37462078C006B6
:1027100019D5E06E4FEA3030052800F23683DFE845
:1027200000F009030609090901F011FF01E001F0B9
:1027300027FE05462E463DB9E06E01F007FE21F466
:10274000E04101F032FE3E462078800619D5206F28
:102750004FEAF030052800F21C83DFE800F009039F
:102760000609090901F0F3FE01E001F009FE054642
:102770002F463DB9206F01F0E9FD21F4603101F0F1
:1027800014FE37466078C0061CD5606F4FEA306093
:10279000052800F20183DFE800F00C03090C0C0CA3
:1027A00001F0D5FE04E000BF280C024401F0E8FD72
:1027B00005462E463DB9606F01F0D4FD21F0E06181
:1027C00001F0F7FD3E466078800618D5A06F6FF0E7
:1027D000010101EB3041022908D34FEA304028B112
:1027E000012840F0A88001F0CBFD05462F463DB9F9
:1027F000A06F01F096FD21F4403101F0B8FD37469D
:102800006078400618D5E06F6FF0010101EBB04130
:10281000022908D34FEAB04028B1012840F08E8049
:1028200001F0AEFD05462E463DB9E06F01F079FDA1
:1028300021F4402101F09BFD3E46607800061AD548
:10284000D4F880006FF0010101EB3051022908D368
:102850004FEA305028B1012840F0738001F090FD1C
:1028600005462F4645B9D4F8800001F05AFD21F401
:10287000401101F07CFD3746A078C00715D0D4F890
:10288000840040B1B0F1007F05D0B0F1807F4CD121
:1028900001F076FD05462E4645B9D4F8840001F0D6
:1028A00040FD21F0407101F062FD3E466079C006B6
:1028B00015D5D4F8880040B1B0F1006F05D0B0F163
:1028C000806F35D101F05CFD05462F4645B9D4F83F
:1028D000880001F026FD21F0406101F048FD3746F7
:1028E000D4E900010905C5498A460DD5DAF800107A
:1028F000534621F40041CAF80010D4F8C810DAF8A1
:1029000000201143CAF8001080032DD5D4F88C00A4
:102910004FEA3020052800F24282DFE800F0180379
:102920001518181801F013FE10E001250126BDE767
:1029300001250127D4E70125012761E701250126AB
:102940007BE70125012797E701F01AFD05462E4692
:102950005DB9D4F88C00D9F8B41000254A4621F4AA
:10296000E0610843C9F8B4003E46A07840071ED590
:10297000D4F890004FEA3030052800F21382DFE8E7
:1029800000F009030609090901F0E1FD01E001F089
:10299000F7FC05462F465DB9D4F89000D9F8B4107D
:1029A00000254A4621F4E0410843C9F8B4003746FF
:1029B000A078800614D5D4F8A000052800F2F5818F
:1029C000022800F0528129465DB9D4F8A000D9F858
:1029D000C01000254A4621F007010843C9F8C0008D
:1029E0003946D4E90002920501D4884614E0D4F8AF
:1029F000A42042F00803082B0BD1A84665B9D9F8EA
:102A0000C0304D46002523F008031A43C9F8C02002
:102A1000EBE701254FF00108800101D4404619E0A1
:102A2000794F5AF8070040F001004AF80700FEF716
:102A3000A1FF064650465AF80700C00707D1FEF727
:102A400099FF801B0228F5D90325032002E0002D01
:102A5000284651D021684A011ED5D4F898206FF03D
:102A6000010303EB3213022B0BD34FEA321343B1B2
:102A7000012B3ED1D9F800304E4643F40033C9F85B
:102A800000302E464DB9D9F8C0304D46002523F010
:102A900030031A43C9F8C0200646480201D437461D
:102AA00017E0D4F89C00402803D080B901F081FDE4
:102AB00002E001F04CFD05462F4655B9D4F89C00C4
:102AC00001F02FFC21F0400101F051FCE7E7012566
:102AD0000127E078000760D5D4F8AC00042800F2A4
:102AE000BB80DFE800F0034D4A50500001F061FD6B
:102AF00049E001250126D0E74846D9F8C80010F47E
:102B0000407019D0D4F8BC10884212D0D9F8C8004F
:102B1000D9F8C8104A4641F4803120F44070C9F811
:102B2000C810D9F8C81021F48031C9F8C810C9F804
:102B3000C800C00740F04881D4F8BC00DAF8002093
:102B4000AB4900F4407322F47C5201EA10116FF398
:102B50001F30B3F5407F08BF0A43CAF80020D9F8F8
:102B6000C81000254A4621F44071C9F8C810D9F8A8
:102B7000C8100843C9F8C80050E701F001FC01E0A3
:102B800001F0E5FC05462E4645B9D4F8AC0001F04D
:102B9000E9FB21F0070101F00CFC3E46E078C0069D
:102BA0001DD5D4F8B0004FEAF000042857D8DFE86C
:102BB00000F00309060C0C0001F0FBFC05E001F03D
:102BC000DFFB01E001F0C3FC05462F4645B9D4F810
:102BD000B00001F0C7FB21F0380101F0EAFB3746F5
:102BE000E078800625D5D4F8B4004FEAB010042868
:102BF00038D80FF20C01D1E800F000BF1C0C0244E1
:102C0000090F0C12120000BF08FCFFFF01F0D1FCFD
:102C100005E001F0B5FB01E001F099FC05462E4608
:102C200045B9D4F8B40001F09DFB21F4E07101F046
:102C3000C0FB3E46E078400628D5D4F8B8004FEAFD
:102C40007020052800F2B480DFE800F016031316A8
:102C5000161601F07CFC0EE0012501269EE70125F9
:102C60000127BDE701250126E4E701F070FC0546D8
:102C7000A9E601F085FB05462F4645B9D4F8B80012
:102C800001F070FB21F4606101F093FB374620797D
:102C9000800717D5D4F8A800032864D8DFE800F02F
:102CA0000802050801F085FC02E001F050FC054631
:102CB0002E4645B9D4F8A80001F033FB21F00301FA
:102CC00001F055FB3E46207940071BD5D4F894000F
:102CD00058B1B0F5007F05D0B0F5807F3ED101F04E
:102CE00068FC02E001F033FC05462F465DB9D4F8DC
:102CF0009400D9F8C01000254A4621F440710843D9
:102D0000C9F8C00037462079C00617D5D4F8C400EA
:102D1000302809D0202804D0102822D101F049FC05
:102D200002E001F02DFB05464DB9D4F8C400D9F8F6
:102D3000BC104A4621F0300101F019FB3D462079D4
:102D4000000708D5D4F8C000D9F8C01021F0C001A0
:102D50000843C9F8C0002846BDE8F08701250127CF
:102D6000D1E70125EBE701250126ACE70126FFF7B6
:102D70006CBC01250127FFF78DBC01250126FFF75B
:102D8000A7BC01250127FFF7C1BC01250126FFF7DC
:102D9000DBBC01250127F5E40125012613E501250A
:102DA0000126E2E50125012702E60125012118E6B9
:102DB000012501276BE701F0CAFB064600287FF4D6
:102DC00044ACE06DFFF739BCFEF7D4FD064641F296
:102DD000883703254846D9F8C80080073FF5ACAED0
:102DE000FEF7C8FD801BB8424FF00300F2D931E670
:102DF000CFFFFF002DE9F843002800F0AA807A4BAE
:102E000004460D46186800F00F0088420AD2186880
:102E100020F00F0028431860186800F00F00A84247
:102E200040F097802068714FC1060CD579687022F8
:102E300002EA11226169914205D97A6822F4E042DE
:102E400042EA01217960010704D501F0D6FB01D9DE
:102E500001F076FB994641070AD5E1687A6802F0ED
:102E60007002914281BF7A6822F07002114379604A
:102E700081070AD5A1687A6802F00F02914281BFEA
:102E80007A6822F00F0211437960C00753D120689D
:102E900081070AD5A1687A6802F00F0291423FBF0C
:102EA0007A6822F00F0211437960D9F8001001F01E
:102EB0000F01A9420CD9D9F8001021F00F012943C4
:102EC000C9F80010D9F8001001F00F01A94240D153
:102ED00041070AD5E1687A6802F0700291423FBF6B
:102EE0007A6822F0700211437960010704D501F07D
:102EF00084FB01D201F024FBC0060CD57868702158
:102F000001EA10216069884205D2796821F4E04124
:102F100041EA0020786000F0A3F879683D4A01F0AA
:102F20000F01515CC8403C49086031480068BDE869
:102F3000F843FEF74DBD57F81C1C606801280BD004
:102F4000022804D003284BD1890102D506E0890369
:102F500004D40120BDE8F8838905FAD5396821F049
:102F60000301084301F0DBF80646606841F2883847
:102F700003282FD0022821D001280CD1386800F076
:102F8000180008283FF483AFFEF7F4FC811B0320F0
:102F90004145F3D90AE0386810F0180F3FF477AFD5
:102FA000FEF7E8FC811B03204145F4D9BDE8F88316
:102FB000FEF7E0FC811B03204145F7D8386800F09C
:102FC00018001028F4D162E7FEF7D4FC811B03201F
:102FD0004145EBD8386800F018001828F4D156E7BE
:102FE0008907B6D5BAE700BF002002401C0C024496
:102FF0000800002080B500F033F81749054A096839
:1030000001F00F01515C01F01F01C8400249086046
:1030100080BD00BFAA7500082800002080B5FFF71A
:10302000E9FF0D490D4A0968C1F3021101F0A3B986
:1030300080B5FFF7DFFF0849084A0968C1F302219C
:1030400001F099B980B5FFF7D5FF0349034A096834
:10305000C1F3023101F08FB9200C0244BA750008A7
:10306000B0B53A49C86900F01800082804BF3848CC
:10307000B0BDC86910F0180F32D0C86900F0180050
:10308000102804BF3348B0BDC86900F018023248A8
:10309000182A5AD18B6A8A6A8C6A8D6BC2F3052210
:1030A0003AB3E406ED0803F0030305EAE474032BE6
:1030B0006FF35F3400EE104AB8EE400A1BD0012BCC
:1030C0001CD10B689B0651BF9FED251A0B68C3F3FB
:1030D000C103D84044BF01EE100AB8EE411A0FE018
:1030E000086880061C4830D50968C1F3C101C84092
:1030F000B0BD0020B0BD9FED191A01E09FED191A77
:10310000486B9FED193A6FF35F2002EE100A486B8F
:10311000C0F34620B8EE422A013000EE032AB7EE93
:10312000000A32EE000A02EE102AB8EE422A81EEC0
:10313000021A21EE000A01EE100AB8EE411A80EEE2
:10314000010ABCEEC00A10EE100AB0BD000C024429
:1031500000093D0040787D010090D00320BCBE4BAB
:103160000024744C0024744A0000003950B32DE947
:10317000F843E14F0446F86900F01808DF4881463B
:10318000006800F003062078C00628D5B8F1080FC3
:103190001AD0B8F1180F08BF022E15D03868E169AF
:1031A000002900F05F8140F4807000F0B8FF054610
:1031B000386880050CD4FEF7DDFB00F0F0FFF7D98E
:1031C000BDE8F88301207047E069002800F0D58051
:1031D000206AB96921F47C1141EA0040B861207885
:1031E000C00729D0B8F1100F22D0B8F1180F08BFCE
:1031F000032E1DD062683868002A20F4803100F068
:103200009A81B2F5A81F40F4802300F07981B2F5CD
:10321000A02F00F07A81B2F5803F00F07C81396008
:10322000386820F480203860386820F4801074E119
:103230006068002800F0A180207880074DD5B8F1A3
:10324000000F1DD0E068B8F1180F08BF012E2FD075
:103250003968002800F03181206921F01801084305
:103260003860386840F0010000F059FF05463868C2
:1032700080072BD4FEF77EFB00F091FFF7D99FE784
:10328000E068002879D02069396801F0180181428E
:1032900010D0396821F0180108433860FFF7AAFE02
:1032A000DFF800040068FEF793FB002865D101E019
:1032B000002862D0FEF75EFB05463868800705D41B
:1032C000FEF758FB401B0228F7D96FE060693969A7
:1032D00021F4FE0141EA00403861207800074FD414
:1032E0002078400765D42078800600F19580A66A92
:1032F000002E00F0D381B8F1180F40F0C28048468C
:10330000D9F80010012ED9F80C0036D0E26A01F08D
:103310000303934231D1C1F30521226B91422CD199
:103320000146626B6FF35F21013A914225D1A26B96
:10333000C0F34621013A91421FD1E26BC0F306412E
:10334000013A914219D1216CC0F3066001398842DB
:1033500013D1E06CD9F81010C1F3CC01814200F018
:103360009D8101F01FF9FEF705FB0546FEF702FB04
:10337000A842FBD001F04FF88EE10120BDE8F883B0
:10338000D9F8C800A1694E46002958D040F08060A5
:10339000C6F8C800FEF7EEFA0546D6F8C8000001E8
:1033A0009ED4FEF7E7FA401B0228F6D90320BDE8B9
:1033B000F883BD4EB859C0070FD1B85940F001008D
:1033C000B851FEF7D7FA0546B859C00705D1FEF740
:1033D000D1FA00F0E4FEF7D9F2E6A268D9F8C80005
:1033E0004D46002A20F0010100F0E080852A40F0DF
:1033F000040300F0B680052A00F0BA80012A00F02C
:10340000BF80C5F8C810D5F8C80020F0040001F04E
:1034100062F820F08000B5E03868616A00295BD06E
:1034200040F4805000F07BFE0546386880043FF58C
:103430005EAFFEF79FFA00F0B2FEF6D9C0E620F0CC
:103440008060C6F8C800FEF795FA05464846D9F8E8
:10345000C80000017FF544AFFEF78CFA00F09FFE34
:10346000F4D9ADE620F4807000F059FE05463868C6
:1034700080057FF5B4AEFEF77DFA00F090FEF6D938
:103480009EE6386820F0807000F049FE0546022E66
:1034900009D13868800140F1A780FEF76BFA00F08F
:1034A0007EFEF6D98CE63868800140F1F180FEF7A7
:1034B00061FA00F074FEF6D982E621F0010000F016
:1034C0002EFE0546386880077FF507AFFEF752FAF3
:1034D00000F065FEF6D973E620F4805000F01FFE80
:1034E0000546386880047FF502AFFEF743FA00F026
:1034F00056FEF6D964E600BF000C0244280C0244D4
:103500003B60386840F4801003E03B60386820F48A
:1035100080103860386840F4803000F000FE0546C6
:10352000386880033FF588AEFEF724FA411B03207C
:103530006429F5D944E63960386820F48010386091
:10354000386820F4802000F0EAFD054638688003E2
:103550007FF572AEFEF70EFA411B03206429F5D900
:103560002EE6C5F8C830D5F8C80040F0800005E068
:10357000C5F8C830D5F8C80020F0800000F0ABFFD7
:1035800040F00100C5F8C800FEF7F4F9054641F225
:1035900088364846D9F8C80080073FF5A4AEFEF744
:1035A000E9F9411B0320B142F3D909E6C5F8C81077
:1035B000D5F8C80020F0800000F08DFF20F0040056
:1035C000C5F8C800FEF7D6F9054641F288364846E8
:1035D000D9F8C80080077FF586AEFEF7CBF9411B0E
:1035E0000320B142F3D9EBE5D9F8000043F60371AB
:1035F00004F12C0588432ECD0843591E40EA0220D1
:103600006FF35F214FF4FE02C9F800004FF47E40D3
:1036100000EB452080B20844E16B02EB01414FF022
:10362000FE4201F4FE010844216C02EB016101F04D
:10363000FE410844C9F80C0000F0B4FF00F0EBFEB6
:10364000C9F80000606CD9F8001021F00C010843A3
:10365000C9F80000D9F80000A16C20F02000084350
:10366000C9F80000D9F8000040F48030C9F8000023
:10367000386840F0807000F052FD044638688001E0
:103680000CD4FEF777F9011B03200229F6D997E540
:10369000D9F8000005490840C9F800000020BDE83D
:1036A000F88300BF0800002024FCFFFFFCFFF8FFA8
:1036B00070B12DE9F843044600205A4AA062206800
:1036C00040F08051914205D1E1680F2903D927E0EC
:1036D00001207047E168E26B0123083103EB5212CD
:1036E000C9085143504A904204D0EF4A02F588324B
:1036F000904201D1082913D8E64A90420ED0E64AFA
:1037000090420BD0E54A90421CBFE54A904205D05A
:10371000E44A90421CBFE44A904204D1102902D9E5
:103720000120BDE8F88394F8890028B9002084F8C6
:103730008800204600F07AF8022084F88900D4E955
:103740000009D4F818800368B8F1806F23F00103F2
:103750000360836803F4F81C10D1B9F1000F05D0A1
:10376000B9F5800F0AD1A56B75B903E0A56BB5F16A
:10377000805F06D1056845F4805505605FEA4925FC
:1037800002D44FF0010E0DE0E668072E08D3256D38
:1037900007684FF0000E27F480773D43056006E090
:1037A0004FF0000E066826F480760660E668E2694F
:1037B000A16AA768D4E9043542EA0C021143E26B1E
:1037C000114331438160616A626B1143A26B114303
:1037D000226A1943294304F158051143D4E91232EE
:1037E0001143394319432CCD11431943294341EA6D
:1037F0000801BEF1000F41EA0901C160016D21F02D
:103800000101016505D1616DC26822F000421143DA
:10381000C16000200121C4F88C0084F88910BDE843
:10382000F88300BF004C0150004C014010B5BCB003
:10383000044637A81421FCF775FD02A800F0A8FC87
:1038400020689649884229D100244FF000600394F3
:10385000029002A8FEF7D2FE08B1FCF741FF104823
:10386000816941F480518161816901F48051019144
:103870000199016841F001010160006800F0010058
:1038800001900520CDE939443B9002203890E0209A
:103890003790019837A90348FDF7A6FF3CB010BD4B
:1038A0008C0C0244000002422DE9F047D0F8009051
:1038B0001D4617460E460446FEF75CF800F07DFDF7
:1038C00004D136B12FB100F06CFD05D10220BDE866
:1038D000F0870120BDE8F0870320012100F071FE90
:1038E000A4F86A7084F88810A4F868706666A4F872
:1038F0007000E066C4E91E00A4F87200A2682068A7
:10390000B2F5C02F04D1016841F40061016003E009
:10391000C26861F35242C26041684FF6FF72914340
:103920003944416000F002FD02BF016841F40071BA
:103930000160E16810292BD3564988420CD05649C2
:10394000884209D05549884206D0554988421CBF53
:103950005449884240F099806E1CB4F86A000028EF
:103960007DD020684169890708D4FEF703F8002E4E
:10397000F3D0A0EB0800A842EFD380E0616E04C949
:1039800002626166B4F86A000138A4F86A00E4E7EC
:1039900007292AD900F029FDB4F86A0000285ED072
:1039A00021684869800708D4FDF7E4FF002EF3D0B2
:1039B000A0EB0800A842EFD361E0B4F86A00012848
:1039C00006D9E26B606E22B104C80A62514605E076
:1039D000606E30F8021BA9F8201039466066B4F812
:1039E0006A000844A4F86A00D6E700F0FEFCB4F8C8
:1039F0006A00A0B320684169890708D4FDF7BAFFBF
:103A0000002EF4D0A0EB0800A842F0D337E0B4F8C1
:103A10006A10042924BFE16B412914D2B4F86A105A
:103A2000012908D9E26B616E32B131F8020BA9F8B5
:103A3000200050460CE0616E097880F82010606E1E
:103A4000411C384604E0616E04C902624FF6FC7006
:103A50006166B4F86A100844A4F86A00C7E7204613
:103A60002946424600F0DEFE08B100F074FC00F08A
:103A7000F6FD00F0FDFC18BF0120BDE8F08700F066
:103A8000EEFD00F0AFFBBDE8F087CD4988423FF482
:103A900063AF7FE700380040003C00400030014049
:103AA0000038005000300150003C00502DE9F04F2C
:103AB00085B0D0F80090D0F83CA01E4615460F46C1
:103AC0000446FDF757FF00F078FC05D137B12DB162
:103AD00026B100F066FC05D1022000E0012005B00F
:103AE000BDE8F08F052001214FF0100B00F069FDBB
:103AF000A4F87260A4F86A60C4E91E0084F8881013
:103B0000E566A4F870606766A4F868602068C1681C
:103B100021F4C021C160A649884210D0A54A904234
:103B20000DD0A54A90420AD0A44A90421CBFA44A94
:103B3000904204D0A34A904218BF4FF0080B43684C
:103B40004FF6FF750122AB4302EB5A123344436038
:103B5000036843F0010303606368B3F5800F02BF9D
:103B6000036843F400730360E368102B52D3884268
:103B70000CD09049884209D08F49884206D08F499D
:103B800088421CBF8F49884240F00C814FEA9B005D
:103B900097B2354604900E9800F1010B1FFA85F993
:103BA0004FEA054A46EA0500000400F0E78000F00D
:103BB000B2FB18BF11F0020109D0049911FA86F185
:103BC000494504D9616E04C9026200F04FFB4169A6
:103BD000BAF1000F1CD04269D2070CD1B94501D20D
:103BE000090408D4FDF7C6FEBBF1000FDAD000F0DF
:103BF00009FCD7D3D1E0016BE06E01600430B4F86A
:103C000072100139A4F87210E066B4F87250C5E77A
:103C10000025C3E7072B5DD94FEA5B0097B2B34697
:103C200003906FF00300811C033002900E98019105
:103C3000013004901FFA8BF54FEA0B4A46EA0B005D
:103C4000000400F09B8000F066FB18BF11F0020139
:103C50000BD0039911FA86F1A94206D9616E31F8A9
:103C6000022BA9F8202000F001FB4169BAF1000FF6
:103C70001AD04069C00710D1BD4201D2080416D441
:103C8000012D01D1880408D4FDF774FE04990029A0
:103C9000D4D000F0B7FBD1D37FE0B9F83010E06E9C
:103CA00020F8021B02990CE04FF0000BC2E7B9F8B4
:103CB0003010E06E20F8041BB9F8301020F8021C18
:103CC0000199B4F872201144A4F87210E066B4F8B7
:103CD00072B0AFE76FF0030097B23546033004903F
:103CE0001FFA85FA4FEA054946EA0500000445D067
:103CF00000F011FB18BF11F0020112D01BFA86F17F
:103D000051450ED9616E097880F82010B4F86A0028
:103D10000138A4F86A00616E206801316166B4F868
:103D20006A604169B9F1000F19D04269D20712D116
:103D3000BA4501D20A0414D4BAF1030F02D811F41F
:103D4000C04F08D1FDF716FE0E990131CCD000F01E
:103D500059FBC9D321E000F0F4FA049803E00025F0
:103D6000BEE700F0ECF9B4F872100844A4F8720051
:103D7000E06E0130E066B4F87250B1E720460E996B
:103D8000424600F04FFD08B100F0E5FA00F067FC94
:103D900000F06EFB18BF0120A1E600F060FC00F00F
:103DA00021FA9CE6064988423FF4F0AE34E700BFB2
:103DB00000380040003C0040003001400038005016
:103DC000003C005000300150042821D8DFE800F00A
:103DD00003100D201B002048016821F00401016040
:103DE0001E48016821F00C0111E01B48022201E08D
:103DF00019480122016821F0040101601748016897
:103E000062F3830103E01448016841F0040101609A
:103E1000704700BF411E0020B0EB116F1CBF012096
:103E200070470D4A51609060116841F003011160C4
:103E3000704700BF08480068400744BF042070472F
:103E40000648006800F00C01081FB0FA80F0400935
:103E5000082908BF0220704710E000E0E40C02448B
:103E600090F83C300222012B41D070B580F83D2003
:103E7000674C026855689368A24208D0654EB2420A
:103E800005D06C4EB24202D0684EB24203D125F446
:103E900070054E683543224E35400E683543B2F109
:103EA000804F556016D0564DAA4213D0554DAA42A8
:103EB00010D0554DAA420DD0544DAA4218BFA2426F
:103EC00008D0544CA24205D0534CA24218BFB2F1C4
:103ED000A04F0ED123F0800389681943916000221E
:103EE000012180F83C2080F83D10BDE8704010466C
:103EF00070474A4CA242EDD0494CA242EAD0494C0C
:103F0000A242E7D0484CA242E4D0484CA242E1D0C1
:103F1000474CA242DED0474CA242DBD0DFE700BFD5
:103F20008FFFFFFD58B110B500F027FB03D100F063
:103F300057FA00F007F800F078FB00F061B90120B3
:103F40007047000000680849884200D0704781B07F
:103F50000648016841F010010160006800F010009F
:103F60000090009801B07047001000409C0C024483
:103F700090F83D10012929D1022180F83D100168F7
:103F8000B1F1804F17D01E48814214D01D488142A4
:103F900011D01D4881420ED01C4881420BD01C48D4
:103FA000814208D01B48814205D01B48814218BF7E
:103FB000B1F1A04F0CD188681F4A734600F0BCFADB
:103FC0009E4618BFB2F5803F17D170470120704759
:103FD00012488142EFD012488142ECD01148814210
:103FE000E9D011488142E6D010488142E3D0104820
:103FF0008142E0D00F488142DDD000F0C3BA00BF5B
:104000000004004000080040000C00400018004080
:10401000002C0140003401400040014000040050E9
:1040200000080050000C005000180050002C0150F7
:1040300000400150003401500700010010B568B184
:104040000446D0F8880008B900F0C1FA00F01AFA66
:1040500001D000F037FA00F038FA08B1012010BDA5
:1040600000F029FA21F02A01816000F022F9BDE870
:10407000104000F089BD7047FEE710B5C1F304534E
:10408000C1F34061072400EB81009C409A404169E4
:10409000A1431143416110BD0C22426100224262E2
:1040A0004FF40042C261074A12680260D1E900235E
:1040B00042604A8902610A8989898360C26081619C
:1040C000FFF7BCBF24000020FEE7FEE720464FF4C8
:1040D00000710122FDF748BC016841F00101016057
:1040E000016801F001017047016841F001010160C0
:1040F000016801F00101019101997047A06D40F044
:104100001000A065E06D40F00100E06501207047FF
:10411000012084F8540094F8501009067047386064
:10412000FDF728BC01EE102AB8EE411A31EE021A52
:1041300080EE011ABCEEC11A11EE102A704790F8F9
:104140003000E16E0870E16E20684A1CE26690F86B
:1041500030004870E16E20684A1CE26690F830003A
:104160004870E16E20684A1CE26690F830004870A2
:104170004FF6FC70704700F0FE002070207800F0D1
:10418000FB0020707047BFF34F8FBFF36F8F7047F6
:10419000C8210830FCF7C6B86FF001007047411B1A
:1041A000032002297047C3F3C103B8EE411A24FA71
:1041B00003F300EE021AB7EE000A02EE102A31EE07
:1041C000000A01EE103AB8EE422AB8EE411A81EE2A
:1041D000021A704700F01F010122C0F34A1002FAD0
:1041E00001F17047D4F88C0040F48070C4F88C0062
:1041F000002084F88800012084F88900032070479B
:10420000012084F8480084F83E0084F83F0084F8D8
:10421000400084F8410084F8420084F8430084F8A8
:10422000440084F8450084F8460084F8470084F888
:104230003D00002010BD01F00F0004EB400000EB3A
:10424000D11414F8330FC0077047002084F85400CD
:10425000704741F82800012025616660207370478F
:10426000D0F8F00000F0020200207047B4F86A2095
:10427000013AA4F86A206166B4F86A607047016880
:1042800051E8001F026821F4907142E80013002BEE
:10429000704780F8541019730021816519617047C7
:1042A00031EE001A00EE102AB8EE400A82EE000A43
:1042B0007047016841F0010101602046704700210C
:1042C00080F84C104021816501217047F06A20F090
:1042D0001000F062306C8843216A40EAC10030640B
:1042E000F06A40F01000F06270470068B0FBF1F037
:1042F000022101EB40007047306B20F0100030636A
:10430000B06C8843216A40EAC100B064306B40F071
:1043100010003063704720684FF6FF724169164203
:104320007047D9F8BC1000254A467047016841F033
:10433000010101606168B1F5800F70473060FDF7E1
:1043400019BB90F83000E16E08707047D9F8B010D2
:1043500000254A467047D4F88C0040F02000C4F88D
:104360008C007047D9F8B81000254A4670470843BA
:10437000C9F8BC007047515C01F01F01C84080BD06
:1043800004F1300000F0C0B941E80002002A704793
:1043900004F00F0001EB400000EBD41090F8331054
:1043A000704794F88800012870470843C9F8B000A6
:1043B00070470843C9F8B8007047804694F88900F0
:1043C00001287047A069F16A21F00C010843F062EE
:1043D0007047A069316B21F00C01084330637047CE
:1043E000002084F83C00204670474FF6FC706E1C9D
:1043F00000F1020AC71C704700222B46009020469D
:1044000000F0EABCA0EB08000E9988427047012139
:10441000206121737047E06CC000C9F81000D9F822
:10442000000040F010007047F06A43F603718843C3
:1044300094E82E000843591E40EA02206FF35F21E2
:104440004FF4FE02F0624FF47E4000EB452080B254
:104450000844216902EB01414FF0FE4201F4FE01E4
:104460000844616902EB016101F0FE4108447047B4
:10447000012084F88900002084F88800D4F88C009A
:10448000002870472420C4F888002068A16A0268C8
:10449000002922F00102026070479DF800009DF89B
:1044A0000110424602F066BA626A616833F812206F
:1044B000B0FBF2F070472068416821F49041416000
:1044C00081687047204600F00BBB204600F0C4BB5B
:1044D00006B0BDE8F081C5F8C800D5F8C80070473F
:1044E000306B43F60371884394E82E000843591E4D
:1044F00040EA02206FF35F214FF4FE0230634FF475
:104500007E4000EB452080B20844216902EB014166
:104510004FF0FE4201F4FE010844616902EB0161C3
:1045200001F0FE4108447047069D0078267846F069
:10453000010626700095704702400020062A704749
:104540007A6822F4E06242EA01117960704704F16E
:10455000080000F0A1B8206850E8020F216820F0A0
:10456000010041E80202002A704700F00F0098F8AD
:1045700001104044C07C81427047044690F83D00E1
:1045800000287047086840F001000860002070476C
:10459000D5F8081321F0E0710843704720463146F2
:1045A000FCF746B8D9F8000020F01000C9F8000068
:1045B0007047D9F80000494640F40030C9F80000BF
:1045C000704784F889000020C4F88C0070470020F0
:1045D00084F884002046FFF74EBD8DF8010028784E
:1045E000B8F1000F8DF800007047410800F002009C
:1045F00061F3596200F1050870477968702202EA98
:104600001112216991427047B7EE002AC1F3066189
:1046100001EE101AB8EE411A31EE021A80EE010ACC
:10462000BCEEC00A10EE101A70470220211D84F85B
:104630003D00206800F0AEB9416800200847ED0653
:10464000F60804F003046FF35F2306EAE575032C14
:104650006FF35F3500EE105AB8EE400A70472046FF
:1046600000F08AB88168826801F0040102F0080253
:1046700089187047B8EE411A00EE021AB7EE000A28
:104680007047016851E8001F026821F0100142E8FC
:104690000013002B7047704770B5B84E0446306861
:1046A00020F08060FFF74AFE05463068000105D51E
:1046B000FDF760F9401B0228F7D922E0FFF7B4FEAE
:1046C000F063FFF77FFEE069F16A21F02001084303
:1046D000F062606AF16A08434FF6F871F062FFF722
:1046E000F5FD306840F08060FFF728FE0446306832
:1046F000000144BF002070BDFDF73CF9001B0328FA
:10470000F5D3032070BD00BF70B59C4E04463068E1
:1047100020F08050FFF712FE05463068800005D576
:10472000FDF728F9401B0228F7D922E0FFF7D8FE51
:104730007064FFF74EFEE069316B21F02001084301
:104740003063606A316B08434FF6F8713063FFF7EE
:10475000D3FD306840F08050FFF7F0FD044630682C
:10476000800044BF002070BDFDF704F9001B032842
:10477000F5D3032070BD00BF10B5016840F26F345F
:104780004A698B6943F008038B618B6943F010031E
:104790008B610B6823F001030B600B69A3430B6172
:1047A0008B6823F440438B6090F88930042B0BD046
:1047B000930609D5D0F88C3043F08003C0F88C30D4
:1047C0008B6943F020038B6190F88930032B0BD069
:1047D000530609D5D0F88C3043F00403C0F88C3070
:1047E0008B6943F040038B61930509D5D0F88C3079
:1047F00043F00103C0F88C308B6943F400738B6184
:10480000D20509D5D0F88C2042F00802C0F88C20DF
:104810008A6942F480728A610021A0F86A10A0F8C7
:10482000721010BDF8B514460D4606464F1C306890
:104830004069000744BF0020F8BDFDF79BF8002F3A
:10484000F5D0001BA84224BF0320F8BDEFE7704756
:10485000FDF794B810B59CB008A85021FBF762FD95
:1048600002AC18212046FBF75DFD2248016821F0CB
:1048700030010160016801F0300101910199416846
:104880000907FCD54FF480503222012111904020BD
:10489000089200220B910D9008201B92CDE919027D
:1048A0000C9002200322CDE9160220221890CDE9B7
:1048B00012004FF48070CDE9141210920F9008A8E6
:1048C000FEF754FC08B172B6FEE71F2014210290D7
:1048D000201DFBF727FD20460121FEF78BFA08B1CA
:1048E00072B6FEE70448016821F0300101601CB097
:1048F00010BD00BF100802440020024010B51E4841
:1049000001221F4CD0F8801041F47001C0F88010D3
:104910001A490A600022CA610A620B6823400B60D0
:10492000184B8A62CA620A634B638A63CB630A6468
:104930004B648A640B6823F480230B600A654FF094
:10494000006101601048C1684A0F062A04D801F0CE
:104950006041B1F1404F0ED10169C9071FBF0B493A
:1049600001600B490160016941F0020101610169C7
:1049700041F00101016110BD08ED00E0000C0244AE
:10498000E3EAE2EA800201010C2002403B2A190816
:104990007F6E5D4C70B5444A0368904243D0B0F1DD
:1049A000804F0ED0414CA0420BD0414CA04208D0C9
:1049B000404CA04205D0404CA04218BFB0F1A04FDF
:1049C0005CD123F070034C682343B0F1804F1CBFCF
:1049D000364CA0422BD0364CA04228D0354CA042B9
:1049E00025D03B4CA04222D0334CA0421FD0394CA2
:1049F000A04218BFB0F1A04F19D0304CA0421CBF4C
:104A00002F4CA04213D02F4CA04210D0324CA042C9
:104A10000DD02E4CA0421CBF304CA04207D02A4CD7
:104A2000A04204D007E023F070034C682343CC6815
:104A300023F4407323434E6923F080030C688D6890
:104A400033430360C562846290421CBF1A4A90429D
:104A500008D0204A904205D01C4A90421CBF1F4AF1
:104A600090421CD109690163012141610169C907B3
:104A70001EBF016921F00101016170BD0F4CA04210
:104A80009FD00F4CA0429CD00E4CA04299D00E4C0F
:104A9000A04296D00D4CA0423FF493AF95E70A4A4E
:104AA0009042DFD0E0E700BF002C0140000400404E
:104AB00000080040000C0040003401400004005099
:104AC00000080050000C005000340150002C015030
:104AD0000018004000400140001800500040015004
:104AE00010B5816A0A0706D50268836B546824F4FE
:104AF000004423435360CA0706D00268C36A54685F
:104B000024F40034234353608A0706D50268036BFC
:104B1000546824F48034234353604A0706D502685E
:104B2000436B546824F4802423435360CA0606D59B
:104B30000268C36B946824F48054234393608A060C
:104B400006D50268036C946824F4005423439360F0
:104B50004A060FD50268436C546824F480141C4341
:104B6000B3F5801F546005D1836C546824F4C004ED
:104B700023435360090606D50168C06C4A6822F4D5
:104B800000221043486010BDBCB504460020C4F8A4
:104B90009000FCF7EFFE054620680168090714D570
:104BA0006FF07E404FF40011FFF726FC60B12068E3
:104BB00050E8000F216820F08000FFF7E5FBF6D1F8
:104BC00003202021882223E020680068400716D5B2
:104BD0006FF07E404FF48001FFF70EFC78B1206843
:104BE00050E8000F216820F49070FFF7CDFBF6D15C
:104BF000FFF7B1FCFCD1032020218C2208E020200B
:104C000000217022C4F88800C4F88C00E1660020FE
:104C1000A150002184F88410BCBD000010B5FFF73E
:104C20002EFBFCD10B49026852E8022F03680A40B0
:104C300043E80224002CF6D1C16E012902D1FFF70E
:104C400020FDFCD12021C0F88C1000214167C166F5
:104C500010BD00BFFEFFFFEF70B504460068524E66
:104C600004F108030ECB056835401943666940F02E
:104C7000805331434E4E2943E56929430160416821
:104C800021F44051114341604849A2698B421CBF45
:104C9000236A1A43836833401A438260626AC36A94
:104CA00023F00F031A438842C26251D0414988421F
:104CB0001BD0414988421CD04049884217D0404906
:104CC00088420BD03F4988420DD03F49884207D0E7
:104CD0003E49884214BF002002200BE0202009E05A
:104CE0004FF4805035E0012004E0042002E0102061
:104CF00000E008200021FDF755F8B5F5004F15D16B
:104D000020B3334BFFF7D0FB4A0802EB40004FF6CD
:104D1000EF72B0FBF1F0A0F1100191423AD84FF6DA
:104D2000F0710140C0F3420008440DE070B1284B1F
:104D3000FFF7BAFB4FF6EF7200EB5100B0FBF1F05A
:104D4000A0F11001914225D82168C860002522E019
:104D5000002000210025FDF725F8E0B11C4B616A19
:104D6000626833F81110B0FBF1F002EB42018842A7
:104D700010D3B0EB023F0DD8010E000210EB520031
:104D800041F100010023FBF783FAA0F54071114ABD
:104D90009142D9D301250020C4E91D004FF0011034
:104DA000A066284670BD00BFF369FFCF0024005401
:104DB000FFF4FF1100480040004C0040005000404C
:104DC00000640040003801400024004400440040DA
:104DD000C275000800FD0F002DE9F047DDF82090B6
:104DE0008246984616460F460068032509F10104DD
:104DF000C1693940C91BB1FA81F14909B1421ED1DB
:104E0000002CF5D0FCF7B6FDA0EB0800484517D8FC
:104E1000B9F1000F14D0DAF8000001684907E7D5AE
:104E2000402F18BF802FE3D0C16909070BD4C16997
:104E30000905DDD5032520244FF4006106E0002597
:104E40002846BDE8F0870125082108240162504664
:104E5000FFF7E4FE00208AF88400CAF89040EFE7EC
:104E60000020012102F040BAFEE711448AB28A42D2
:104E700002D1B2EB400F01D3A1EB400188B27047E1
:104E8000BCB513460C4605460DF107010DF10602AF
:104E9000184601F013F9E800094900EB8400425874
:104EA0009DF807309DF8064092B2E41AA40244EA45
:104EB000C3331B0408BF4FF000431A444250BCBD2B
:104EC000006401402DE9F041174DDFF8D485044618
:104ED000002600276878411CC9B28F420DD2874254
:104EE00003D2A868B0B1304401E0404612D1C16895
:104EF0002046884724360137ECE705F10C003721BE
:104F0000FBF710FA05F113002021FF22FBF703FA4B
:104F1000BDE8F081E4480068C00701D1BDE8F08138
:104F200000BEBDE8F08100BFF00000202DE9F8438D
:104F3000144E80464FF000090021F789B489E01B28
:104F400085B2402D28BF402596F90000B0F1FF3F03
:104F500009DCBC4206D0B16889B106F114002A46CA
:104F6000FBF7C7F98021E21B40462B46CDF80090A5
:104F700018BF06F1140202F0B7FABDE8F88300206A
:104F8000BDE8F883400000200878400604BF487858
:104F9000052804D0002001210822FFF771BF4888AE
:104FA000012161F3DF1001490860F3E74C60014023
:104FB000F0B59C4B102001F00F020826824C00EA4D
:104FC000D10026EA111649B203EB42124FF4806376
:104FD000B71D04361044827B7C4854F82250C0F838
:104FE000803084460120B840032707FA06F6304493
:104FF0000F4E304348F280062E4330402026B1F158
:10500000FF3F05F4C061C8BF4FF40056B1F5806F93
:1050100018BF7040BFF34F8FBFF36F8F44F822006B
:10502000BFF34F8FBFF36F8FCCF80030F0BD00BFE0
:105030008F8FFF0770B565484FF4806100220D4BDC
:105040004FF6FF740025C0F880109649FFF79BF8D3
:105050001C2D05D04E19EA500435C6F80640F7E776
:10506000BFF34F8F4FF48062BFF36F8F0260C02099
:10507000088070BD046001402DE9F0478E78C87843
:105080000F468D8800F00301304600F0CDF8082867
:1050900015D24D4A04464FFA86F8324952F820009C
:1050A00008F00F090840F97801F00301484402298B
:1050B0000BD003294ED1174648F2806108E07A48A8
:1050C0000068C0074BD000BE49E0174648F2800197
:1050D0006FF3DF2540EA010A0021F609284600F0B7
:1050E00093FB4FF6FC7186F001024FF6FF73084008
:1050F00007EBC40101EB8201D1F800249A4310446C
:105100006FF07002B8F1000FC1F8000445484FF489
:10511000806100EB491000EB061085818473F7482D
:10512000C0F8801048BF6FF4E0422023B8F1FF3F81
:10513000C8BF4FF40053BFF34F8F83EA0A03BFF396
:105140006F8F1A4047F82420FFF71DF801600120F7
:10515000BDE8F087D4480068C00700D000BE00203A
:10516000BDE8F087707000F8F0B52E4C01F00F022A
:10517000102348F280074FF4806603EAD10049B259
:1051800004EB42121044104A847BDC4852F824504D
:10519000C0F880603D430E4FB1F1FF3FC4BF4BF6F6
:1051A0008F77C0F2FF7705EA0701C8BF4FF480533D
:1051B000BFF34F8F5940BFF36F8F42F82410FEF7B3
:1051C000E2FF0660F0BD00BF0060014008E100E0C2
:1051D000BF8FFF07B0B5134C01F00F00C9090D01D7
:1051E00004EB4014625104EB01120024548113813A
:1051F000546000F09DFB0120B0BD00BF70B5094CAC
:1052000001F00F00C90900260D0104EB401466519E
:1052100004EB011466812381626000F089FB0120A8
:1052200070BD00BF9C050020F0B501241D4A4FEA67
:10523000D01C00F00F0584EAD01402EBD01300203C
:1052400014440433261D08281CD013F8204002EB18
:10525000800734B1FC788C4204BFBC78AC420FD1DB
:105260001DE0012902D116F820404CB9BC78FF2C72
:1052700018BFAC4204D1FC78FF2C18BF8C4208D078
:105280000130E0E788480068C00700D000BE002079
:1052900005E0F9700CEB07010122BD700A71C0B284
:1052A000F0BD00BF94000020F0ED00E02DE9FE43CA
:1052B000054640788846023805281DD8DFE800F00A
:1052C00003440E1509887548002101734173017468
:1052D00011E072480178013101700DE06F48017BE7
:1052E000002900F0D580012105E06C48017B0029F0
:1052F00000F0CE80002181736848B8F1000F446847
:1053000002D16848FFF798F9664F04F10800294672
:1053100000233A8901F0B7F90646B8F1000F02D12F
:105320007968012088473EB128786978424603B001
:10533000BDE8F04301F01EBB5B480068C00700F009
:10534000A78000BEBDE8FE83DFF85091544C0026D4
:10535000002799F80100411CC9B28F4213D2C1B293
:105360008F4204D2D9F8081051B1314401E02146EE
:1053700006D10A6A22B169682878904799F8010035
:1053800024360137E7E799F80E00002859D00020AD
:1053900089F80E00CDE901000520D9F80460FFF777
:1053A0001CF902D13F48FFF747F93E4C06F10800CF
:1053B00069460023228901F066F90646B8F1000F1C
:1053C00002D1616801208847B6B3FFF766F838E07C
:1053D000297911F00F003FF48FAF304B03EB400001
:1053E0005C7800EBD11292F82320944208D99B6894
:1053F000002B3FF481AF02EBC20203EB820602E016
:105400007FF47AAF264EF269002A3FF475AFCA09DD
:10541000841814F8330FFEF7AEFEAB6828786A796B
:10542000F669B047A0BB207840F0010020702078DA
:1054300040F0040020705FE7F2480068C00700D029
:1054400000BE99F81200C00722D00320FFF7C5F86C
:105450006868D9F80450019002D11248FFF7ECF8BF
:10546000104C05F1080069460023228901F00BF970
:105470000546B8F1000F02D16168012088471DB1CF
:10548000FFF70BF8BDE8FE83EF480068C00701D1C5
:10549000BDE8FE8300BEBDE8FE8300BFF000002033
:1054A000DC7500080C000020F0ED00E010B500F005
:1054B0007BFAEF4C00202060206840F45D402060C3
:1054C00000F092FAA06940F40040A061012010BDF4
:1054D00004484FF4806101607046FEF754FE864632
:1054E000704700BF88E100E0BFF34F8F03484FF4DF
:1054F0008061BFF36F8F0160704700BF08E100E07B
:105500002DE9F04F89B0BC4D6C6CA0050ED56FF441
:10551000007001216864A86C6FF3DF2007904FF4DE
:105520004070ADF8180006A8FFF7C0FE600500F156
:105530004481E00412D5286C012120F00400286485
:10554000286C20F0080028646FF4805068644FF4E1
:10555000A060ADF8180006A8FFF7A8FE200512D538
:10556000286C012140F008002864286C40F00400F9
:1055700028646FF4006068644FF48060ADF8180030
:1055800006A8FFF793FEE0050DD59C48017839B1D8
:10559000012902BF2A6C22F010022A64013901702D
:1055A0006FF480706864DFF8DC84019405F5806036
:1055B000934C4FF014090290686C000440F10E8186
:1055C000686C00F00F0655F826A05FEA0A4040F12B
:1055D000B180CDF80C90039818B10398013803906E
:1055E000F9E75FEA0A502AD455F82600C146204060
:1055F00040F0800045F8260055F826B00BF48C40AA
:105600000BF00F04B0F5884008EB441818BF0120D8
:10561000029B03EBC60151F8202051F8200013FA39
:1056200080F1D8F80400C2F30947B8B3002207920A
:10563000042206923A4606AB01F025F839E0029AB8
:10564000002302EBC60041684068C1F3094712FA23
:1056500080F004A93A4601F0E1F855F82600204010
:1056600040F08000082F45F826000CD1DDE9040148
:10567000CDE907014FF4C0600121ADF8180006A87C
:10568000FFF714FE56E070480068C00700D000BE67
:10569000002001210822FFF7F3FB4BE0B8F80A00D5
:1056A000D8F8002000230244084611463A4601F08B
:1056B000B5F8B8F80A00B8F80C2038449742A8F8B2
:1056C0000A001DD3B8F8081083B2994218D90BF418
:1056D000C063B3F5806F08D0081A80B2904238BF1B
:1056E000024630460121FFF7CBFB454C4BF28001CF
:1056F00004F5405000EA0B00484045F8260016E04B
:1057000030460121FFF7BCFBB8F80A008DF81C40B9
:10571000002401218DF81D4008904FF4E060ADF8A1
:10572000180006A8FFF7C2FDC8F80840344CC84668
:105730004FF014095FEA0A607FF53EAF55F8260086
:10574000204040F4004045F8260055F8262002F09D
:105750000F0102F4C06308EB41101030B3F5806F05
:1057600012D1C37B002B3FF427AF0023C373012367
:1057700023EA921205EBC60303EB8202D2F800344F
:105780006FF31943C2F80034028943899A4210D159
:105790004FF4E0600892ADF8180000208DF81D006D
:1057A00001F1800001218DF81C0006A8FFF77EFDA5
:1057B00002E7314600F05EF8FEE66FF48060686450
:1057C00000F012F9002001218DF81C004FF48070C8
:1057D000ADF8180006A8FFF769FD0AE0019840043B
:1057E00007D519480068C00700D000BE6FF480409C
:1057F000686409B0BDE8F08F0060014094050020A6
:105800000F0FFF07F0ED00E01CB50C460DF107018E
:105810000DF1060200F052FC994A01461088431827
:10582000002C1C4618BF0C44A1B2148018BF40EADB
:105830000340B1F5006F06D903480068C00700D0E7
:1058400000BE4FF6FF701CBDF0ED00E0E0B500209B
:105850008021002200230090FFF7BCFC8CBD0000DB
:105860006048026822F4007261F3492202607047C6
:10587000406001402DE9FC4705462B488A464FF021
:10588000000CA0F580684FEACA0358F82170002187
:1058900007F4C069B9F5806F08BFC7F38011AE89FE
:1058A0002A8943EA81016B890C18095810FA81F1A1
:1058B000D01A80B2B04238BF0646686840B10422B0
:1058C0006B46CDF804C00092324600F0C9FE07E0F6
:1058D0002868C218084600231146324600F0B6FF79
:1058E0006889B9F5806F4FF48061104A48F2B003BF
:1058F00030446FF39F26688120686FF3194040EAB7
:105900000640206004BF0120E8733A4025485A4011
:10591000C0F88010FEF737FC48F82A20FEF733FC69
:105920000160BDE8FC8700BF006401403F0FFF0736
:10593000F8B5544A012902EB401000EB0110847BBA
:1059400004D12146BDE8F840FFF794BF018985895D
:105950004A4EA94238BF0D4656F82400104900EAC5
:10596000010700F4C060B0F5806F04D1204600212B
:105970002A46FFF785FA204601212A46FFF780FADA
:1059800008484FF480614BF28002C0F880107A40E2
:10599000FEF7F9FB46F82420FEF7F5FB0160F8BDA1
:1059A0000F3FFF0708E100E082B00E4803210160CD
:1059B000002101910199C82903D200BF0199013149
:1059C000F7E7016821F002010160002100910099D0
:1059D000C82903D200BF00990131F7E700214160D7
:1059E00002B0704740600140F8B52549234D0020C2
:1059F0004FF6FF72E864082805D001EB8003013000
:105A0000C3F80220F7E74024002000270C80002183
:105A1000FFF70AFC802000218026FFF705FC1948CB
:105A2000002187778483877384814020FFF7ECFE11
:105A3000044640200021FFF7E7FE4FF6FC71124BB1
:105A40004FF6FF7704EA01021C680840BC43224479
:105A50001A600822D5F800146FF30F0108440121E1
:105A6000C5F8000400202C68FFF70AFA074842F244
:105A70002021204048402860EE64F8BD00600140CD
:105A8000940000209C05002004640140707000F820
:105A900070B5B748FF22144D01784078C1EBC111B1
:105AA000C0EBC010B1FBF2F6B0FBF2F428788642EE
:105AB0000AD0411DB14284BF711D814204D8F1B2A8
:105AC000072000F085FB2E706878A1B281420AD0D1
:105AD000421D8A4284BF0531814204D8E1B20B20C5
