:020000040800F2
:10000000580E0020210300082F2B0008F92A0008B1
:100010002D2B0008BF070008F13400083303000847
:10002000000000000000000000000000B52F0008E4
:10003000C107000800000000D32E0008B72F0008F9
:100040003D0300083D0300083D0300083D03000890
:100050003D0300083D0300083D0300083D03000880
:100060003D0300083D0300083D0300083D03000870
:100070003D0300083D0300083D0300083D03000860
:100080003D0300083D0300083D0300083D03000850
:100090003D0300083D0300083D0300083D03000840
:1000A000C30700083D0300083D0300083D030008A6
:1000B0003D0300083D0300083D0300083D03000820
:1000C0003D0300083D0300083D0300083D03000810
:1000D0003D0300083D0300083D0300083D03000800
:1000E0003D0300083D0300083D0300083D030008F0
:1000F0003D0300083D0300083D0300083D030008E0
:100100003D0300083D0300083D0300083D030008CF
:100110003D0300083D0300083D0300083D030008BF
:100120003D0300083D0300083D0300083D030008AF
:100130003D0300083D0300083D0300083D0300089F
:100140003D0300083D0300083D0300083D0300088F
:100150003D0300083D0300083D0300083D0300087F
:1001600000000000000000009B3400083D03000870
:100170003D0300083D0300083D0300083D0300085F
:100180003D0300083D0300083D0300080000000097
:10019000000000003D030008000000000000000017
:1001A00000000000000000003D0300083D030008BF
:1001B0003D0300083D0300083D0300083D0300081F
:1001C0003D0300083D03000800000000000000009F
:1001D0000000000000000000000000003D030008D7
:1001E0003D0300083D03000800000000000000007F
:1001F0003D0300083D0300083D0300080000000027
:10020000000000003D0300083D0300083D03000816
:100210003D0300083D0300083D0300083D030008BE
:100220003D03000800000000000000003D0300083E
:100230003D03000800000000000000000000000076
:100240000000000000000000000000003D03000866
:100250003D03000800F002F800F052F814A696E8FA
:10026000000CB244B344DA4501D100F049F8BAE8D1
:100270000F000FA696E83000A5EB040504EB060777
:10028000AAEB0704A7F101074FEA15154FEA34144A
:10029000A4F10104AC4201D300F032F813F0010FD5
:1002A00018BFFB1A43F0010300F001F8DBE7184721
:1002B0007856000098560000103A24BF78C878C1DC
:1002C000FAD8520724BF30C830C144BF04680C605C
:1002D000704700007047000000230024002500261E
:1002E000103A28BF78C1FBD8520728BF30C148BF99
:1002F0000B6070471FB505F082FA1FBD10B510BD29
:1003000000F092F91146FFF7F5FF03F013FF00F03C
:10031000B0F903B4FFF7F2FF03BC00F0B7F9000037
:100320000A4880470A480047FEE7FEE7FEE7FEE787
:10033000FEE7FEE7FEE7FEE7FEE7FEE7FEE700007A
:1003400004480549054A064B70470000653000081F
:100350005502000858080020580E0020580A0020B6
:10036000580A002053EA020C00F069802DE9F04B96
:100370004FF00006002B1FBFB3FA83F503FA05F414
:1003800024FA05F65E4012BF1643B2FA82F502FA6D
:1003900005F4C5F120051EBF22FA05FC44EA0C0451
:1003A000203556EA044C4FEA144418BF641C4FF041
:1003B00000084FF00009904271EB030C39D300297B
:1003C00019BFB1FA81F701FA07F6B0FA80F700FA1F
:1003D00007F6C7F120071EBF20FA07FC46EA0C0605
:1003E0002037B6FBF4FCA7EB0507103F07F01F0B07
:1003F000CBF120062CFA06F60CFA0BFB44BFB346F1
:100400000026202FA4BF5E464FF0000B5BEA060CCF
:1004100008BF4FF0010B19EB0B0948EB0608ABFBCB
:10042000027C06FB02CC0BFB03CCC01B71EB0C0166
:10043000C1E70B46024641464846BDE8F08B13B57E
:10044000084318BF4FF0FF300146AFF30080BDE80E
:100450001C40704710B5431C02E010F8011B71B13D
:100460008107FAD14FF0013202C88C1A8C4314EA8A
:10047000C211F9D0C01A0A0603D0C01E10BDC01A9E
:1004800010BD0A0401D0801E10BD0902FCD0401E20
:1004900010BD032A40F2308010F0030C00F01580EC
:1004A00011F8013BBCF1020F624498BF11F801CB77
:1004B00000F8013B38BF11F8013BA2F1040298BFDC
:1004C00000F801CB38BF00F8013B11F0030300F046
:1004D0005780083AC0F0088051F8043B083A51F8B8
:1004E00004CBA0E80810F5E7121D5CBF51F8043BEF
:1004F00040F8043BAFF30080D20724BF11F8013B62
:1005000011F801CB48BF11F8012B24BF00F8013BC3
:1005100000F801CB48BF00F8012B704702F0FF0341
:1005200043EA032242EA024200F05EB84FF00002C2
:1005300000B5134694469646203922BFA0E80C50D9
:10054000A0E80C50B1F12001BFF4F7AF090728BFB4
:10055000A0E80C5048BF0CC05DF804EB890028BF30
:1005600040F8042B08BF704748BF20F8022B11F059
:10057000804F18BF00F8012B7047704770477047D5
:1005800010B5203AC0F00B80B1E81850A0E8185020
:10059000B1E81850A0E81850203ABFF4F5AF5FEA70
:1005A000027C24BFB1E81850A0E8185044BF18C915
:1005B00018C0BDE810405FEA827C24BF51F8043BBC
:1005C00040F8043B08BF7047D20728BF31F8023B10
:1005D00048BF11F8012B28BF20F8023B48BF00F8A4
:1005E000012B70474FF000020429C0F0128010F078
:1005F000030C3FF49DAFCCF1040CBCF1020F18BF0B
:1006000000F8012BA8BF20F8022BA1EB0C01FFF78B
:100610008FBF5FEAC17C24BF00F8012B00F8012BDB
:1006200048BF00F8012B7047754600F02BF8AE4626
:1006300005006946534620F00700854618B020B5EE
:10064000FFF77EFEBDE820404FF000064FF00007A8
:100650004FF000084FF0000BAC46ACE8C009ACE826
:10066000C009ACE8C009ACE8C00921F007018D461B
:10067000704710B50446AFF300802046BDE8104037
:10068000FFF747BE0048704740000020014918208E
:10069000ABBEFEE7260002007047000008B102F082
:1006A00071BA2DE9F04186B03D480C4602274FF063
:1006B0000708174D02F03CFA02F03AFA016941F4DA
:1006C00000310161006900F4003001900198049745
:1006D0000297CDF81480042001900120039001AE10
:1006E0002846314600F0AAF808203146CDF814809B
:1006F00002970190284600F0A1F80648214602F032
:10070000FDF9002818BF6FF0030006B0BDE8F081C6
:1007100000000242380300207047000000EB400058
:10072000224901EB800000F057B800BF10B586B039
:1007300004461B48026842F004020260006800F0B0
:10074000040000900220CDE903004FF40050019016
:1007500000981448D9B11449029101A900F06EF82B
:1007600004EB4400114901EB80041149204600F0DC
:100770002DF8104A2046002100F052F818200F21D1
:10078000002200F0A5F9182000F092F904E0002101
:10079000029101A900F052F8002006B010BD00BF80
:1007A0008C0C02440008024200001110CC0300200F
:1007B0000D000006B90700080020FFF7ADBFFEE7F7
:1007C00070470020FFF7AABF72B6FEE710B10160C4
:1007D0000020704701207047F8B5044600680122E8
:1007E0000E4F00F01F0102FA01F5082101EA503610
:1007F00057F82600054204D047F82650606800B13B
:100800008047381D50F82610294206D040F826505F
:10081000A06810B1BDE8F8400047F8BD0C200244C4
:10082000022903D0012903D031B94260082100E038
:100830000421425000207047012070472DE9FF4FEE
:10084000584A4FF000084FF0000900264FF0000B07
:10085000029002EA9022009200F1200201920B68BD
:1008600033FA0BF508BFBDE8FF8F012202FA0BFE39
:1008700013EA0E0000F08780D1F804C003964CF014
:100880001005122D13D108F01C050F2202FA05F4F1
:100890006FF0030202EA5B07019AD359A3430C6984
:1008A00004F00F04AC402343D351D1F804C0029E9E
:1008B00003220CF0030A474602FA09F435680AFAE3
:1008C00009F3A5436FEA04082B43BCF1120F336010
:1008D00061D8012202FA0CF313F0061F5BD0B36853
:1008E000D1E9022403EA080304FA09F42343B360BC
:1008F0004FEA1C13746803FA0BF324EA0E04234333
:100900007360F46802FA09F304EA08042343F3600D
:100910005FEACC03B846039E35D506F018030F22D4
:100920002BF0030502FA03F41F4A15442F6E27EA41
:100930000404009F07FA03F323432B6613684D68F2
:1009400043EA0004EF0258BF23EA00041460AF0238
:10095000536843EA000458BF23EA00045460AF031D
:10096000D2F8843043EA000458BF23EA0004C2F8F6
:100970008440ED03D2F8803043EA000458BF23EAF4
:100980000004C2F8804008F1040809F102090836A1
:100990000BF1010B63E78A68BAF1030F08BF012A64
:1009A000AFD1B5E77F7F2F0000200244426902EA01
:1009B0000103914341EA0341816170471823002AF2
:1009C00008BF2823C150704705480068704700BF22
:1009D0003348034900780A6810440860704700BF34
:1009E0005007002080B5032000F098F801F0E8FBE4
:1009F0000A490B4A096801F00F01515CC8402A49B5
:100A00000860042002F00EF80F2000F00BF808B187
:100A1000012080BD00F04AF8002080BD200C024477
:100A20001A58000870B51E4E04463078C8B11D49EA
:100A3000096849070AD402F02BF8022825D00128BA
:100A40001BD050BB30784FF4FA5101E04FF47A716B
:100A5000B1FBF0F014490968B1FBF0F002F008F8BE
:100A600008B1012507E04FF0FF30214600220025A4
:100A700000F02EF87460284670BD30784FF47A711B
:100A8000B1FBF0F04FF4FA41E6E730784FF47A71B9
:100A9000B1FBF0F04FF40041DEE70020DEE700BFDD
:100AA0000000002010E000E024000020704700005B
:100AB000002809D400F01F010122C0F34A1002FAF5
:100AC00001F1024A42F82010704700BF00E100E047
:100AD000F0B5184B4FF0FF361C68C4F30224E51E36
:100AE00084F0070438BF002506FA05F7BA43042C42
:100AF00028BF042406FA04F4A14300F00F04A9401F
:100B0000043C1143044A234409010244002848BF1D
:100B100003F10C021170F0BD00E400E005494FF64E
:100B2000FF030A681A4060F30A2203481043086072
:100B3000704700BF0CED00E00000FA0501684A6D47
:100B400042F001024A650122C0F8D822002280F852
:100B5000CC22486D40F0020048650020704768B321
:100B60007CB5044690F8950228B9002084F89402D8
:100B7000204600F053F8032084F89502206802F024
:100B8000A3FC94E80F00257C009502F077FC80BB65
:100B900020680021002502F09DFC50BB2079012136
:100BA0000022002398420BD0A61828323375C6E9DC
:100BB0000955F562F57571750133F3E7012070474A
:100BC00004F5B6710022002398420BD001F8183CBE
:100BD00041E902220A6001F8152C01F8172C28318E
:100BE0000133F1E794E80F00257C009502F05EFCEC
:100BF00020B1022084F8950201207CBD00206074A1
:100C0000012084F89502207B012804BF2046FFF7CD
:100C100095FF206802F044FC00207CBD10B5B6B002
:100C2000044602A8C8210830FFF780FC206812495A
:100C300088421FD110200390002002903020339072
:100C400002A800F08BFD08B1FFF7BEFD00F018F818
:100C50000A480022016841F08071016000210068AB
:100C600000F08070019001984A20FFF731FF4A2080
:100C7000FFF71EFF36B010BD00600140A40C024417
:100C80000248016841F00071016070473808024471
:100C900070B52F494B6B8C6A8A6A8D6A8E6BC2F372
:100CA000052272B102F0F4F818D0022C0DD001EE3A
:100CB000103A0B689FED272A012C914C01F069FF37
:100CC00016E00021C0E900113FE001EE103A9FED6F
:100CD000212A02F0EDF89FED212A07E001EE103AFB
:100CE0009FED1C2A02F0E4F89FED1B2A01F082FF21
:100CF0000A6820EE010A920102D58A6AD20301D461
:100D0000002206E04A6BB7EE002AC2F3462201F049
:100D10001CFF02600A68920102D58A6A920301D41C
:100D2000002206E04A6BB7EE002AC2F3064201F049
:100D30000CFF42600A68920102D58A6A520301D40C
:100D4000002102E0496B02F08FF8816070BD00BFA6
:100D5000000C02440000003920BCBE4B0024744A41
:100D600070B52F49CB6BCC6ACA6ACD6A0E6CC2F3E0
:100D7000052272B102F08CF818D0022C0DD001EED1
:100D8000103A0B689FED272A012C5D4C01F001FF02
:100D900016E00021C0E900113FE001EE103A9FED9E
:100DA000212A02F085F89FED212A07E001EE103A92
:100DB0009FED1C2A02F07CF89FED1B2A01F01AFF20
:100DC0000A6820EE010A120102D5CA6AD20301D4D0
:100DD000002206E0CA6BB7EE002AC2F3462201F0F9
:100DE000B4FE02600A68120102D5CA6A920301D4F5
:100DF000002206E0CA6BB7EE002AC2F3064201F0F9
:100E0000A4FE42600A68120102D5CA6A520301D4E4
:100E1000002102E0C96B02F027F8816070BD00BFBD
:100E2000000C02440000003920BCBE4B0024744A70
:100E300070B52F494B6C0C6B0A6B0D6B8E6CC2F34B
:100E4000052272B102F024F818D0022C0DD001EE68
:100E5000103A0B689FED272A012C294C01F099FECE
:100E600016E00021C0E900113FE001EE103A9FEDCD
:100E7000212A02F01DF89FED212A07E001EE103A29
:100E80009FED1C2A02F014F89FED1B2A01F0B2FE20
:100E90000A6820EE010A920002D50A6BD20301D43F
:100EA000002206E04A6CB7EE002AC2F3462201F0A7
:100EB0004CFE02600A68920002D50A6B920301D4CC
:100EC000002206E04A6CB7EE002AC2F3064201F0A7
:100ED0003CFE42600A68920002D50A6B520301D4BC
:100EE000002102E0496C01F0BFFF816070BD00BFCE
:100EF000000C02440000003920BCBE4B0024744AA0
:100F00000090D003BFB5431E024661F100040020EB
:100F1000D3F1070570EB040480F09E8082F010038B
:100F20000B4300F0D08182F020030B4300F09F813F
:100F300082F480530B4300F0488182F400530B434A
:100F400000F0768182F480430B4300F0008382F44A
:100F500000430B4300F0B28282F480330B4300F075
:100F6000CD8282F400330B4300F01F8182F4802392
:100F70000B4300F0088382F400130B4300F04C8213
:100F800082F480030B4300F0CC8181F4805313433F
:100F900000F0CE8182F080630B4300F02F8282F05C
:100FA00000630B4300F00A8282F080530B4300F091
:100FB000958282F000530B4300F0B68282F08043AA
:100FC0000B4300F05F8281F00203134300F047827D
:100FD00081F00403134300F01D8181F008031343E3
:100FE00000F0FC8181F01003134300F0B98181F41B
:100FF0000073134300F0CD8182F00072114340F082
:101000009583D549D1F8F00000F44072D1F8F00092
:10101000800703D5B2F5807F00F0ED81D1F8F000B4
:10102000000103D5B2F5007F00F013830868800348
:101030004FF0000040F17A83B2F5407F40F07683B4
:10104000C86910F4785F00F0DD82C869C349C0F355
:101050000520B1FBF0F069E3DFE813F0080084003D
:1010600068035B006803680368032F00BA48D0F880
:10107000D81011F0070100F09B820268012903D10A
:1010800012F0006240F0C0820268022903D112F01F
:10109000005240F00F8203680268032903D113F065
:1010A000020340F03683042903D112F4007240F0A9
:1010B0003C8301F08FFD052930E1A748D0F8D81016
:1010C00011F4606100F06B820268B1F5007F03D11A
:1010D00012F0006240F098820268B1F5806F03D18F
:1010E00012F0005240F0E68103680268B1F5C06F6B
:1010F00003D113F0020340F00C83B1F5006F03D16C
:1011000012F4007240F0118301F064FDB1F5206F1C
:1011100004E19148D0F8D81011F4E07100F03F825A
:101120000268402903D112F0006240F06D8202682B
:10113000802903D112F0005240F0BC81036802689C
:10114000C02903D113F0020340F0E382B1F5807FA0
:1011500003D112F4007240F0E88201F03BFDB1F5DA
:10116000A07FDBE07C48D0F8D81011F0380100F007
:1011700016820268082903D112F0006240F044820E
:10118000102900F0978103680268182903D113F031
:10119000020340F0BE82202903D112F4007240F015
:1011A000C48201F017FD2829B8E06B48D0F8DC10A4
:1011B000C1F30221052900F22582DFE811F08B013D
:1011C000FD01F4016F02620202026348D0F8E010F0
:1011D00001F0E061B1F1007F00F06C81B1F1807F3E
:1011E00000F01282002900F0758103680268B1F1F5
:1011F000407F03D113F0020340F08B82B1F1806F86
:1012000003D112F4007240F0908201F0E3FCB1F1DE
:10121000A06F83E05049D1F8E8000968890300F421
:10122000407040F1E981002840F0E6814B487DE2C2
:101230004948D0F8E41001F44031B1F5803F00F0A6
:10124000B281002900F0AB8102680068B1F5003F6F
:1012500003D112F0020240F0118210F400701CBFA2
:1012600040F60010C0F23D00B1F5403F46E23A487A
:10127000D0F8D81011F4603100F091810268B1F516
:10128000004F03D112F0006240F0BE810268B1F558
:10129000803F03D112F0005240F00C8103680268D5
:1012A000B1F5C03F03D113F0020340F03282B1F533
:1012B000003F03D112F4007240F0378201F08AFC43
:1012C000B1F5203F2AE02448D0F8D81011F4E041CD
:1012D00000F065810268B1F5805F03D112F0006211
:1012E00040F092810268B1F5005F03D112F0005224
:1012F00040F0E08003680268B1F5405F03D113F06D
:10130000020340F00682B1F5804F03D112F400725F
:1013100040F00B8201F05EFCB1F5A04F08BF9003D6
:1013200004E20D48D0F8E400400640F19A81A5E0BF
:101330000949D1F8E40000F04062B2F1806F00F09A
:101340003281002A00F0C68000200B68B2F1006FE5
:1013500000F0E480EAE100BF000C024440787D0127
:10136000CC48D0F8E41001F03001102900F0798168
:101370000268202903D112F0005240F09B800068DF
:1013800010F400501CBF46F60040C0F2DC203029AB
:10139000B4E1C048D0F8E810D0F8F02001F008011E
:1013A000920700D539B3002918BF4FF4FA41D0F89D
:1013B000F00010F0006018BF0846B7E1B549D1F859
:1013C000E00000F00702042A00F21C81B248DFE8C6
:1013D00012F04801F300BA00AD011F01AD48D0F88A
:1013E000E810D0F8F02001F0C001920740F12B8105
:1013F000002940F028814FF4004097E1A548D0F83B
:10140000E8100268920401F0300140F125810029C2
:1014100040F02281CD4889E1CB48D0F8E81001F0B6
:10142000070102292AD0012900F05B8111B302686B
:10143000032903D112F400327FF4F8AE0268006889
:10144000042903D112F0020240F0188110F4007058
:101450001CBF40F60010C0F23D0005294EE1BA481D
:10146000D0F8E41001F00301DFE811F00400FB0004
:101470000800AB00BDE8BF4000F06CBE01A8FFF75C
:101480006FFC93E0B048D0F8E01011F4606100F018
:101490008F800268B1F5007F03D112F0006240F046
:1014A000B3800268B1F5806F40F02B8112F00052DA
:1014B00000F0278101A8FFF7BBFCD5E0A248D0F8D7
:1014C000E41001F44011B1F5801F00F06C80002998
:1014D00040F0CC80BDE8BF4000F064BE9A49D1F82E
:1014E000E000C0F3C202042A00F28C809A48DFE8D0
:1014F00012F0B80063002A001D018F009249D1F854
:10150000E40000F04072B2F1807F4CD0002A46D057
:1015100000200B68B2F1007F40F0088113F0020256
:1015200000F004810868A9E08749D1F8E000C0F321
:101530008212042A66D88848DFE812F093003E0041
:101540000500F8006A0001A8FFF772FC37E07E484A
:10155000D0F8E41001F44021B1F5802F23D0F1B18F
:1015600002680068B1F5002F03D112F0020240F0CA
:10157000858010F400701CBF40F60010C0F23D00E2
:10158000B1F5402FBAE07048D0F8DC10C1F3023159
:10159000052937D8DFE801F0031007827515BDE88B
:1015A000BF4000F0EBBD01A8FFF742FC0398BDE08F
:1015B000BDE8BF4000F0ECBD01A8FFF7D1FB0198EA
:1015C000B4E0D0F8E810036802689B0701F04041DE
:1015D00002D5002900F09D80920503D5B1F1804F1E
:1015E00000F0A3800022B1F1004F04BF47F6400293
:1015F000C0F27D12006823E0B0F5007F04D0B0F5A2
:10160000807F2ED0002091E001A8FFF7A9FB2BE0FE
:10161000D1F8E8000B680A689B0700F0404001D54C
:10162000002876D0920502D5B0F1804F7DD00022FF
:10163000B0F1004F04BF47F64002C0F27D120868C7
:1016400010F400304AE0D0F8F02012012DD54029E6
:101650002BD14FF4FA4069E0026892012ED510298F
:101660002CD101A8FFF714FB02985FE00268006824
:10167000B1F5001F39D112F0020236D0C0F3C1001B
:1016800049E0D0F8F0004FF4FA41000101EAE070BF
:101690004CE000BF000C02440080BB00D0F8F0001A
:1016A0004FF4004101EA803040E00022802908BF69
:1016B00048F21202006810F400700FE0D0F8F02039
:1016C000920702D520293FF496AE0022302908BFA8
:1016D0004FF4FA42D0F8F00010F0006018BF104646
:1016E00024E0BDE8BF4000F06BBD10F400701CBFEB
:1016F00040F60010C0F23D00B1F5401F18BF0020B9
:1017000014E003680268B1F5C06F08D113F002035A
:1017100005D0C2F3C1000F4921FA00F006E0B1F58F
:10172000006F05D112F4007202D0094804B0B0BDB8
:10173000006810F400301CBF47F64000C0F27D1076
:10174000B1F5206FDAE700BF000C0244006CDC0248
:1017500000093D000090D0030080BB002DE9F04758
:1017600004460068C1016849894608D5A16DD9F8C9
:10177000C0204B4622F040421143C9F8C010C007B8
:1017800012D0E06D052800F2A183DFE810F006001A
:10179000C4032200060006000600D9F8B0104A462D
:1017A00021F0070101F07FFA00262078800701D49C
:1017B00035461EE0206E4FEAF000052800F28983CE
:1017C0003546DFE800F00D030A0D0D0D01F012FBA8
:1017D00005E001F057FA00F0A0BB01F053FA05460E
:1017E0002F463DB9206E01F03AFA21F0380101F0A0
:1017F0005AFA37462078400719D5606E4FEAB01084
:10180000052800F26A83DFE800F0090306090909E8
:1018100001F0F0FA01E001F035FA05462E463DB937
:10182000606E01F01CFA21F4E07101F03CFA3E46D2
:101830002078000719D5A06E4FEA7020052800F225
:101840005083DFE800F009030609090901F0D2FA24
:1018500001E001F017FA05462F463DB9A06E01F0F0
:10186000FEF921F4606101F01EFA37462078C006C7
:1018700019D5E06E4FEA3030052800F23683DFE8F4
:1018800000F009030609090901F0B4FA01E001F0CA
:10189000F9F905462E463DB9E06E01F0E0F921F474
:1018A000E04101F000FA3E462078800619D5206F0D
:1018B0004FEAF030052800F21C83DFE800F009034E
:1018C0000609090901F096FA01E001F0DBF9054685
:1018D0002F463DB9206F01F0C2F921F4603101F0CB
:1018E000E2F937466078C0061CD5606F4FEA306079
:1018F000052800F20183DFE800F00C03090C0C0C52
:1019000001F078FA04E000BF280C024401F0BAF9B3
:1019100005462E463DB9606F01F0A6F921F0E06161
:1019200001F0C5F93E466078800618D5A06F6FF0CB
:10193000010101EB3041022908D34FEA304028B1C0
:10194000012840F0A88001F09DF905462F463DB9D9
:10195000A06F01F07CF921F4403101F08AF937469B
:101960006078400618D5E06F6FF0010101EBB041DF
:10197000022908D34FEAB04028B1012840F08E80F8
:1019800001F080F905462E463DB9E06F01F05FF9A0
:1019900021F4402101F06DF93E46607800061AD529
:1019A000D4F880006FF0010101EB3051022908D317
:1019B0004FEA305028B1012840F0738001F062F9FD
:1019C00005462F4645B9D4F8800001F040F921F4CE
:1019D000401101F04EF93746A078C00715D0D4F871
:1019E000840040B1B0F1007F05D0B0F1807F4CD1D0
:1019F00001F048F905462E4645B9D4F8840001F0B7
:101A000026F921F0407101F034F93E466079C006B4
:101A100015D5D4F8880040B1B0F1006F05D0B0F111
:101A2000806F35D101F02EF905462F4645B9D4F81F
:101A3000880001F00CF921F0406101F01AF93746F5
:101A4000D4E900010905C5498A460DD5DAF8001028
:101A5000534621F40041CAF80010D4F8C810DAF84F
:101A600000201143CAF8001080032DD5D4F88C0053
:101A70004FEA3020052800F24282DFE800F0180328
:101A80001518181801F0B6F910E001250126BDE778
:101A900001250127D4E70125012761E7012501265A
:101AA0007BE70125012797E701F0ECF805462E4674
:101AB0005DB9D4F88C00D9F8B41000254A4621F459
:101AC000E0610843C9F8B4003E46A07840071ED53F
:101AD000D4F890004FEA3030052800F21382DFE896
:101AE00000F009030609090901F084F901E001F099
:101AF000C9F805462F465DB9D4F89000D9F8B4105E
:101B000000254A4621F4E0410843C9F8B4003746AD
:101B1000A078800614D5D4F8A000052800F2F5813D
:101B2000022800F0528129465DB9D4F8A000D9F806
:101B3000C01000254A4621F007010843C9F8C0003B
:101B40003946D4E90002920501D4884614E0D4F85D
:101B5000A42042F00803082B0BD1A84665B9D9F898
:101B6000C0304D46002523F008031A43C9F8C020B1
:101B7000EBE701254FF00108800101D4404619E050
:101B8000794F5AF8070040F001004AF80700FEF7C5
:101B90001BFF064650465AF80700C00707D1FEF75C
:101BA00013FF801B0228F5D90325032002E0002D36
:101BB000284651D021684A011ED5D4F898206FF0EC
:101BC000010303EB3213022B0BD34FEA321343B161
:101BD000012B3ED1D9F800304E4643F40033C9F80A
:101BE00000302E464DB9D9F8C0304D46002523F0BF
:101BF00030031A43C9F8C0200646480201D43746CC
:101C000017E0D4F89C00402803D080B901F00FF908
:101C100002E001F0EFF805462F4655B9D4F89C00D4
:101C200001F015F821F0400101F023F8E7E7012564
:101C30000127E078000760D5D4F8AC00042800F252
:101C4000BB80DFE800F0034D4A50500001F0EFF890
:101C500049E001250126D0E74846D9F8C80010F42C
:101C6000407019D0D4F8BC10884212D0D9F8C800FE
:101C7000D9F8C8104A4641F4803120F44070C9F8C0
:101C8000C810D9F8C81021F48031C9F8C810C9F8B3
:101C9000C800C00740F04881D4F8BC00DAF8002042
:101CA000AB4900F4407322F47C5201EA10116FF347
:101CB0001F30B3F5407F08BF0A43CAF80020D9F8A7
:101CC000C81000254A4621F44071C9F8C810D9F857
:101CD000C8100843C9F8C80050E700F0D3FF01E07E
:101CE00001F088F805462E4645B9D4F8AC0000F05E
:101CF000BBFF21F0070100F0DAFF3E46E078C006A6
:101D00001DD5D4F8B0004FEAF000042857D8DFE81A
:101D100000F00309060C0C0001F089F805E000F062
:101D2000B1FF01E001F066F805462F4645B9D4F849
:101D3000B00000F099FF21F0380100F0B8FF3746FD
:101D4000E078800625D5D4F8B4004FEAB010042816
:101D500038D80FF20C01D1E800F000BF1C0C02448F
:101D6000090F0C12120000BF08FCFFFF01F05FF822
:101D700005E000F087FF01E001F03CF805462E4643
:101D800045B9D4F8B40000F06FFF21F4E07100F021
:101D90008EFF3E46E078400628D5D4F8B8004FEADA
:101DA0007020052800F2B480DFE800F01603131657
:101DB000161601F01FF80EE0012501269EE7012509
:101DC0000127BDE701250126E4E701F013F80546E8
:101DD000A9E600F057FF05462F4645B9D4F8B800EC
:101DE00000F042FF21F4606100F061FF3746207986
:101DF000800717D5D4F8A800032864D8DFE800F0DE
:101E00000802050801F013F802E000F0F3FF0546B0
:101E10002E4645B9D4F8A80000F019FF21F00301BF
:101E200000F027FF3E46207940071BD5D4F89400E8
:101E300058B1B0F5007F05D0B0F5807F3ED100F0FD
:101E4000F6FF02E000F0D6FF05462F465DB9D4F854
:101E50009400D9F8C01000254A4621F44071084387
:101E6000C9F8C00037462079C00617D5D4F8C40099
:101E7000302809D0202804D0102822D100F0D7FF24
:101E800002E000F0FFFE05464DB9D4F8C400D9F8D1
:101E9000BC104A4621F0300100F0EBFE3D462079AF
:101EA000000708D5D4F8C000D9F8C01021F0C0014F
:101EB0000843C9F8C0002846BDE8F087012501277E
:101EC000D1E70125EBE701250126ACE70126FFF765
:101ED0006CBC01250127FFF78DBC01250126FFF70A
:101EE000A7BC01250127FFF7C1BC01250126FFF78B
:101EF000DBBC01250127F5E40125012613E50125B9
:101F00000126E2E50125012702E60125012118E667
:101F1000012501276BE700F06DFF064600287FF4DE
:101F200044ACE06DFFF739BCFEF74EFD064641F2CA
:101F3000883703254846D9F8C80080073FF5ACAE7E
:101F4000FEF742FD801BB8424FF00300F2D931E6A4
:101F5000CFFFFF002DE9F843002800F0AA807A4B5C
:101F600004460D46186800F00F0088420AD218682F
:101F700020F00F0028431860186800F00F00A842F6
:101F800040F097802068714FC1060CD579687022A7
:101F900002EA11226169914205D97A6822F4E0428D
:101FA00042EA01217960010704D500F056FF01D90A
:101FB00000F019FF994641070AD5E1687A6802F0F6
:101FC0007002914281BF7A6822F0700211437960F9
:101FD00081070AD5A1687A6802F00F02914281BF99
:101FE0007A6822F00F0211437960C00753D120684C
:101FF00081070AD5A1687A6802F00F0291423FBFBB
:102000007A6822F00F0211437960D9F8001001F0CC
:102010000F01A9420CD9D9F8001021F00F01294372
:10202000C9F80010D9F8001001F00F01A94240D101
:1020300041070AD5E1687A6802F0700291423FBF19
:102040007A6822F0700211437960010704D500F02C
:1020500004FF01D200F0C7FEC0060CD578687021DD
:1020600001EA10216069884205D2796821F4E041D3
:1020700041EA0020786000F0A3F879683D4A01F059
:102080000F01515CC8403C49086031480068BDE818
:10209000F843FEF7C7BC57F81C1C606801280BD03A
:1020A000022804D003284BD1890102D506E0890318
:1020B00004D40120BDE8F8838905FAD5396821F0F8
:1020C0000301084300F03EFD0646606841F288388F
:1020D00003282FD0022821D001280CD1386800F025
:1020E000180008283FF483AFFEF76EFC811B032025
:1020F0004145F3D90AE0386810F0180F3FF477AF84
:10210000FEF762FC811B03204145F4D9BDE8F8834A
:10211000FEF75AFC811B03204145F7D8386800F0D0
:1021200018001028F4D162E7FEF74EFC811B032053
:102130004145EBD8386800F018001828F4D156E76C
:102140008907B6D5BAE700BF002002401C0C024444
:102150000400002080B500F033F81749054A0968EB
:1021600001F00F01515C01F01F01C84002490860F5
:1021700080BD00BF1A5800082400002080B5FFF77A
:10218000E9FF0D490D4A0968C1F3021100F075BD60
:1021900080B5FFF7DFFF0849084A0968C1F302214B
:1021A00000F06BBD80B5FFF7D5FF0349034A09680E
:1021B000C1F3023100F061BD200C02442A5800082E
:1021C000B0B53A49C86900F01800082804BF38487B
:1021D000B0BDC86910F0180F32D0C86900F01800FF
:1021E000102804BF3348B0BDC86900F01802324857
:1021F000182A5AD18B6A8A6A8C6A8D6BC2F30522BF
:102200003AB3E406ED0803F0030305EAE474032B94
:102210006FF35F3400EE104AB8EE400A1BD0012B7A
:102220001CD10B689B0651BF9FED251A0B68C3F3A9
:10223000C103D84044BF01EE100AB8EE411A0FE0C6
:10224000086880061C4830D50968C1F3C101C84040
:10225000B0BD0020B0BD9FED191A01E09FED191A25
:10226000486B9FED193A6FF35F2002EE100A486B3E
:10227000C0F34620B8EE422A013000EE032AB7EE42
:10228000000A32EE000A02EE102AB8EE422A81EE6F
:10229000021A21EE000A01EE100AB8EE411A80EE91
:1022A000010ABCEEC00A10EE100AB0BD000C0244D8
:1022B00000093D0040787D010090D00320BCBE4B5A
:1022C0000024744C0024744A0000003950B32DE9F6
:1022D000F843E14F0446F86900F01808DF488146EA
:1022E000006800F003062078C00628D5B8F1080F72
:1022F0001AD0B8F1180F08BF022E15D03868E1695E
:10230000002900F05F8140F4807000F01BFC05465E
:10231000386880050CD4FEF757FB00F036FCF7D97F
:10232000BDE8F88301207047E069002800F0D580FF
:10233000206AB96921F47C1141EA0040B861207833
:10234000C00729D0B8F1100F22D0B8F1180F08BF7C
:10235000032E1DD062683868002A20F4803100F016
:102360009A81B2F5A81F40F4802300F07981B2F57C
:10237000A02F00F07A81B2F5803F00F07C813960B7
:10238000386820F480203860386820F4801074E1C8
:102390006068002800F0A180207880074DD5B8F152
:1023A000000F1DD0E068B8F1180F08BF012E2FD024
:1023B0003968002800F03181206921F018010843B4
:1023C0003860386840F0010000F0BCFB0546386812
:1023D00080072BD4FEF7F8FA00F0D7FBF7D99FE778
:1023E000E068002879D02069396801F0180181423D
:1023F00010D0396821F0180108433860FFF7AAFEB1
:10240000DFF800040068FEF70DFB002865D101E04D
:10241000002862D0FEF7D8FA05463868800705D450
:10242000FEF7D2FA401B0228F7D96FE060693969DC
:1024300021F4FE0141EA00403861207800074FD4C2
:102440002078400765D42078800600F19580A66A40
:10245000002E00F0D381B8F1180F40F0C28048463A
:10246000D9F80010012ED9F80C0036D0E26A01F03C
:102470000303934231D1C1F30521226B91422CD148
:102480000146626B6FF35F21013A914225D1A26B45
:10249000C0F34621013A91421FD1E26BC0F30641DD
:1024A000013A914219D1216CC0F30660013988428A
:1024B00013D1E06CD9F81010C1F3CC01814200F0C7
:1024C0009D8100F0ADFCFEF77FFA0546FEF77CFA31
:1024D000A842FBD000F003FC8EE10120BDE8F883A8
:1024E000D9F8C800A1694E46002958D040F0806054
:1024F000C6F8C800FEF768FA0546D6F8C80000011D
:102500009ED4FEF761FA401B0228F6D90320BDE8ED
:10251000F883BD4EB859C0070FD1B85940F001003B
:10252000B851FEF751FA0546B859C00705D1FEF774
:102530004BFA00F02AFBF7D9F2E6A268D9F8C800F6
:102540004D46002A20F0010100F0E080852A40F08D
:10255000040300F0B680052A00F0BA80012A00F0DA
:10256000BF80C5F8C810D5F8C80020F0040000F0FE
:1025700009FC20F08000B5E03868616A00295BD072
:1025800040F4805000F0DEFA0546386880043FF5DC
:102590005EAFFEF719FA00F0F8FAF6D9C0E620F0BF
:1025A0008060C6F8C800FEF70FFA05464846D9F81D
:1025B000C80000017FF544AFFEF706FA00F0E5FA27
:1025C000F4D9ADE620F4807000F0BCFA0546386816
:1025D00080057FF5B4AEFEF7F7F900F0D6FAF6D92C
:1025E0009EE6386820F0807000F0ACFA0546022EB6
:1025F00009D13868800140F1A780FEF7E5F900F0C5
:10260000C4FAF6D98CE63868800140F1F180FEF713
:10261000DBF900F0BAFAF6D982E621F0010000F009
:1026200091FA0546386880077FF507AFFEF7CCF9C9
:1026300000F0ABFAF6D973E620F4805000F082FA8D
:102640000546386880047FF502AFFEF7BDF900F05B
:102650009CFAF6D964E600BF000C0244280C024440
:102660003B60386840F4801003E03B60386820F439
:1026700080103860386840F4803000F063FA054616
:10268000386880033FF588AEFEF79EF9411B0320B2
:102690006429F5D944E63960386820F48010386040
:1026A000386820F4802000F04DFA05463868800331
:1026B0007FF572AEFEF788F9411B03206429F5D936
:1026C0002EE6C5F8C830D5F8C80040F0800005E017
:1026D000C5F8C830D5F8C80020F0800000F052FBE3
:1026E00040F00100C5F8C800FEF76EF9054641F25A
:1026F00088364846D9F8C80080073FF5A4AEFEF7F3
:1027000063F9411B0320B142F3D909E6C5F8C810AB
:10271000D5F8C80020F0800000F034FB20F0040061
:10272000C5F8C800FEF750F9054641F2883648461C
:10273000D9F8C80080077FF586AEFEF745F9411B42
:102740000320B142F3D9EBE5D9F8000043F6037159
:1027500004F12C0588432ECD0843591E40EA02207F
:102760006FF35F214FF4FE02C9F800004FF47E4082
:1027700000EB452080B20844E16B02EB01414FF0D1
:10278000FE4201F4FE010844216C02EB016101F0FC
:10279000FE410844C9F80C0000F042FB00F09FFA2B
:1027A000C9F80000606CD9F8001021F00C01084352
:1027B000C9F80000D9F80000A16C20F020000843FF
:1027C000C9F80000D9F8000040F48030C9F80000D2
:1027D000386840F0807000F0B5F904463868800130
:1027E0000CD4FEF7F1F8011B03200229F6D997E576
:1027F000D9F8000005490840C9F800000020BDE8EC
:10280000F88300BF0400002024FCFFFFFCFFF8FF5A
:1028100070B12DE9F843044600205A4AA0622068AE
:1028200040F08051914205D1E1680F2903D927E09A
:1028300001207047E168E26B0123083103EB52127B
:10284000C9085143504A904204D0504A02F5883298
:10285000904201D1082913D84D4A90420ED04D4ADA
:1028600090420BD06C4A90421CBF4B4A904205D01C
:102870004A4A90421CBF454A904204D1102902D9CD
:102880000120BDE8F88394F8890028B9002084F875
:102890008800204600F084F8022084F88900D4E9FA
:1028A0000009D4F818800368B8F1806F23F00103A1
:1028B0000360836803F4F81C10D1B9F1000F05D050
:1028C000B9F5800F0AD1A56B75B903E0A56BB5F119
:1028D000805F06D1056845F4805505605FEA4925AB
:1028E00002D44FF0010E0DE0E668072E08D3256DE7
:1028F00007684FF0000E27F480773D43056006E03F
:102900004FF0000E066826F480760660E668E269FD
:10291000A16AA768D4E9043542EA0C021143E26BCC
:10292000114331438160616A626B1143A26B1143B1
:10293000226A1943294304F158051143D4E912329C
:102940001143394319432CCD11431943294341EA1B
:102950000801BEF1000F41EA0901C160016D21F0DB
:102960000101016505D1616DC26822F00042114389
:10297000C16000200121C4F88C0084F88910BDE8F2
:10298000F88300BF004C0150004C0140003C005057
:1029900000380040003C004000380050003001503A
:1029A00010B5BCB0044637A81421FDF7BFFD02A83E
:1029B000C8210830FDF7BAFD20681749884229D19F
:1029C00000244FF000600394029002A8FEF7C6FEB8
:1029D00008B1FDF7F9FE1148816941F48051816128
:1029E000816901F4805101910199016841F001016F
:1029F0000160006800F0010001900520CDE9394434
:102A00003B9002203890E0203790019837A9044885
:102A1000FDF714FF3CB010BD003001408C0C0244A7
:102A200000000242042821D8DFE800F003100D2046
:102A30001B002048016821F0040101601E48016864
:102A400021F00C0111E01B48022201E0194801228B
:102A5000016821F0040101601748016862F38301F5
:102A600003E01448016841F004010160704700BFB1
:102A7000411E0020B0EB116F1CBF012070470D4AB2
:102A800051609060116841F003011160704700BF10
:102A900008480068400744BF0420704706480068A3
:102AA00000F00C01081FB0FA80F04009082908BFA7
:102AB0000220704710E000E0E40C024410B568B159
:102AC0000446D0F8880008B900F0B9F900F034F9EC
:102AD00001D000F051F900F052F908B1012010BD09
:102AE00000F043F921F02A01816000F08CF8BDE884
:102AF000104000F057BB7047FEE700000C22426117
:102B0000002242624FF40042C261074A126802602A
:102B1000D1E9002342604A8902610A898989836078
:102B2000C2608161FFF7CABF20000020FEE7FEE718
:102B3000016841F001010160016801F001010191AA
:102B4000019970473860FDF73FBF01EE102AB8EEDB
:102B5000411A31EE021A80EE011ABCEEC11A11EED2
:102B6000102A704701640020704700F0FE002070BA
:102B7000207800F0FB0020707047BFF34F8FBFF349
:102B80006F8F70476FF001007047411B03200229CF
:102B90007047C3F3C103B8EE411A24FA03F300EE01
:102BA000021AB7EE000A02EE102A31EE000A01EE18
:102BB000103AB8EE422AB8EE411A81EE021A704776
:102BC00001F00F0004EB400000EBD11414F8330FB8
:102BD000C0077047D0F8F00000F0020200207047F4
:102BE000016851E8001F026821F4907142E8001367
:102BF000002B704731EE001A00EE102AB8EE400AA2
:102C000082EE000A7047016841F001010160204630
:102C10007047F06A20F01000F062306C8843216A3F
:102C200040EAC1003064F06A40F01000F062704782
:102C3000306B20F010003063B06C8843216A40EAAA
:102C4000C100B064306B40F0100030637047D9F8B9
:102C5000BC1000254A4670473060FDF7B5BED9F874
:102C6000B01000254A467047D9F8B81000254A46EA
:102C700070470843C9F8BC007047515C01F01F0160
:102C8000C84080BD04F1300000F05CB941E80002AA
:102C9000002A704704F00F0001EB400000EBD41055
:102CA00090F8331070470843C9F8B00070470843E4
:102CB000C9F8B8007047A069F16A21F00C01084317
:102CC000F0627047A069316B21F00C01084330635A
:102CD000704700222B460090204600F08BBBE06C32
:102CE000C000C9F81000D9F8000040F0100070478B
:102CF000F06A43F60371884394E82E000843591E96
:102D000040EA02206FF35F214FF4FE02F0624FF4BD
:102D10007E4000EB452080B20844216902EB01416E
:102D20004FF0FE4201F4FE010844616902EB0161CB
:102D300001F0FE41084470472420C4F88800206850
:102D4000A16A0268002922F00102026070479DF822
:102D500000009DF80110424601F0A6BF626A61685A
:102D600033F81220B0FBF2F070472068416821F47C
:102D70009041416081687047204600F0BFB920460D
:102D800000F078BAC5F8C800D5F8C8007047306BB5
:102D900043F60371884394E82E000843591E40EA25
:102DA00002206FF35F214FF4FE0230634FF47E4048
:102DB00000EB452080B20844216902EB01414FF04D
:102DC000FE4201F4FE010844616902EB016101F079
:102DD000FE4108447047069D0078267846F00106BB
:102DE0002670009570477A6822F4E06242EA011189
:102DF0007960704704F1080000F06CB8206850E872
:102E0000020F216820F0010041E80202002A704709
:102E100000F00F0098F801104044C07C81427047D8
:102E2000D9F8000020F01000C9F800007047D9F868
:102E30000000494640F40030C9F800007047002007
:102E400084F884002046FFF756BE8DF801002878EC
:102E5000B8F1000F8DF8000070477968702202EA1F
:102E60001112216991427047B7EE002AC1F3066141
:102E700001EE101AB8EE411A31EE021A80EE010A84
:102E8000BCEEC00A10EE101A7047416800200847D7
:102E9000ED06F60804F003046FF35F2306EAE57518
:102EA000032C6FF35F3500EE105AB8EE400A7047FE
:102EB000B8EE411A00EE021AB7EE000A7047016838
:102EC00051E8001F026821F0100142E80013002BB6
:102ED0007047704770B5834E0446306820F08060BC
:102EE000FFF7BAFE05463068000105D5FDF76CFD19
:102EF000401B0228F7D922E0FFF7FAFEF063FFF744
:102F0000DAFEE069F16A21F020010843F062606AAC
:102F1000F16A08434FF6F871F062FFF77AFE306805
:102F200040F08060FFF798FE04463068000144BF1F
:102F3000002070BDFDF748FD001B0328F5D30320DA
:102F400070BD00BF70B5674E0446306820F08050F9
:102F5000FFF782FE05463068800005D5FDF734FD99
:102F6000401B0228F7D922E0FFF711FF7064FFF73A
:102F7000A9FEE069316B21F0200108433063606AEB
:102F8000316B08434FF6F8713063FFF751FE30683C
:102F900040F08050FFF760FE04463068800044BF78
:102FA000002070BDFDF710FD001B0328F5D30320A2
:102FB00070BD00BF7047FDF70BBD000010B59CB0A1
:102FC00008A85021FDF7B2FA02AC18212046FDF7FF
:102FD000ADFA2248016821F030010160016801F07A
:102FE00030010191019941680907FCD54FF48050E7
:102FF0003222012111904020089200220B910D9065
:1030000008201B92CDE919020C9002208122189011
:10301000CDE91600CDE912002020CDE91412109060
:103020004FF480700F9008A8FFF750F908B172B6FE
:10303000FEE71F2014210290201DFDF777FA20469D
:103040000121FEF787FF08B172B6FEE70448016868
:1030500021F0300101601CB010BD00BF1008024417
:103060000020024010B51E4801221F4CD0F88010ED
:1030700041F47001C0F880101A490A600022CA6148
:103080000A620B6823400B60184B8A62CA620A63AB
:103090004B638A63CB630A644B648A640B6823F4D2
:1030A00080230B600A654FF0006101601048C16821
:1030B0004A0F062A04D801F06041B1F1404F0ED109
:1030C0000169C9071FBF0B4901600B490160016914
:1030D00041F002010161016941F00101016110BD8E
:1030E00008ED00E0000C0244E3EAE2EA800201019C
:1030F0000C2002403B2A19087F6E5D4C10B5816A96
:103100000A0706D50268836B546824F400442343FD
:103110005360CA0706D00268C36A546824F40034B6
:10312000234353608A0706D50268036B546824F46E
:103130008034234353604A0706D50268436B5468C2
:1031400024F4802423435360CA0606D50268C36B67
:10315000946824F48054234393608A0606D5026859
:10316000036C946824F40054234393604A060FD5FB
:103170000268436C546824F480141C43B3F5801F28
:10318000546005D1836C546824F4C0042343536015
:10319000090606D50168C06C4A6822F40022104373
:1031A000486010BDBCB504460020C4F89000FDF78F
:1031B0000BFC054620680168090714D56FF07E40B6
:1031C0004FF40011FFF785FD60B1206850E8000F53
:1031D000216820F08000FFF759FDF6D1032020215F
:1031E000882223E020680068400716D56FF07E40F3
:1031F0004FF48001FFF76DFD78B1206850E8000FB3
:10320000216820F49070FFF741FDF6D1FFF7F6FD3D
:10321000FCD1032020218C2208E0202000217022F4
:10322000C4F88800C4F88C00E1660020A150002199
:1032300084F88410BCBD000010B5FFF7D1FCFCD1B0
:103240000B49026852E8022F03680A4043E802244F
:10325000002CF6D1C16E012902D1FFF730FEFCD15E
:103260002021C0F88C1000214167C16610BD00BF4D
:10327000FEFFFFEF70B504460068524E04F10803EC
:103280000ECB056835401943666940F080533143E1
:103290004E4E2943E56929430160416821F44051BC
:1032A000114341604849A2698B421CBF236A1A43FB
:1032B000836833401A438260626AC36A23F00F0353
:1032C0001A438842C26251D0414988421BD04149C9
:1032D00088421CD04049884217D0404988420BD0D0
:1032E0003F4988420DD03F49884207D03E49884235
:1032F00014BF002002200BE0202009E04FF4805092
:1033000035E0012004E0042002E0102000E0082065
:103310000021FDF7F7FDB5F5004F15D120B3334B74
:10332000FFF71CFD4A0802EB40004FF6EF72B0FBBE
:10333000F1F0A0F1100191423AD84FF6F07101403E
:10334000C0F3420008440DE070B1284BFFF706FDC2
:103350004FF6EF7200EB5100B0FBF1F0A0F110015D
:10336000914225D82168C860002522E00020002174
:103370000025FDF7C7FDE0B11C4B616A626833F8B8
:103380001110B0FBF1F002EB4201884210D3B0EB18
:10339000023F0DD8010E000210EB520041F1000176
:1033A0000023FCF7DFFFA0F54071114A9142D9D309
:1033B00001250020C4E91D004FF00110A066284639
:1033C00070BD00BFF369FFCF00240054FFF4FF116C
:1033D00000480040004C00400050004000640040A5
:1033E00000380140002400440044004032580008E6
:1033F00000FD0F002DE9F047DDF820908246984649
:1034000016460F460068032509F10104C1693940D9
:10341000C91BB1FA81F14909B1421ED1002CF5D086
:10342000FDF7D2FAA0EB0800484517D8B9F1000F14
:1034300014D0DAF8000001684907E7D5402F18BF1B
:10344000802FE3D0C16909070BD4C1690905DDD517
:10345000032520244FF4006106E000252846BDE83E
:10346000F08701250821082401625046FFF7E4FE99
:1034700000208AF88400CAF89040EFE750B1016C50
:1034800021F000410164016C41F00101016400215F
:10349000416400E0012108467047002000F074BB41
:1034A000816D21F400418165002070470121016494
:1034B000016C21F001010164016C21F00041016403
:1034C0000021416400207047016C4BF680729143EB
:1034D000FFF748BB012904D041B9016C21F000413C
:1034E00002E0016C41F00041FFF73CBB0120704756
:1034F000FEE711448AB28A4202D1B2EB400F01D3F7
:10350000A1EB400188B27047BCB513460C46054696
:103510000DF107010DF10602184601F015F8E8005B
:10352000094900EB840042589DF807309DF8064099
:1035300092B2E41AA40244EAC3331B0408BF4FF05A
:1035400000431A444250BCBD006401402DE9F041E3
:10355000174DDFF8D4850446002600276878411C03
:10356000C9B28F420DD2874203D2A868B0B13044AD
:1035700001E0404612D1C168204688472436013711
:10358000ECE705F10C003721FCF7D0FF05F1130043
:103590002021FF22FCF7C2FFBDE8F081E44800686B
:1035A000C00701D1BDE8F08100BEBDE8F08100BFD9
:1035B000200100202DE9F843144E80464FF0000909
:1035C0000021F789B489E01B85B2402D28BF402532
:1035D00096F90000B0F1FF3F09DCBC4206D0B168AB
:1035E00089B106F114002A46FCF753FF8021E21B43
:1035F00040462B46CDF8009018BF06F1140202F0A9
:10360000ABF8BDE8F8830020BDE8F883A8000020EF
:103610000878400604BF4878052804D0002001211E
:103620000822FFF771BF4888012161F3DF100149CB
:103630000860F3E74C600140F0B59C4B102001F0AE
:103640000F020826824C00EAD10026EA111649B280
:1036500003EB42124FF48063B71D04361044827BA3
:103660007C4854F82250C0F8803084460120B8408D
:10367000032707FA06F630440F4E304348F280061F
:103680002E4330402026B1F1FF3F05F4C061C8BF92
:103690004FF40056B1F5806F18BF7040BFF34F8FE5
:1036A000BFF36F8F44F82200BFF34F8FBFF36F8FCC
:1036B000CCF80030F0BD00BF8F8FFF0770B56548B4
:1036C0004FF4806100220D4B4FF6FF740025C0F8C7
:1036D00080109649FFF751FA1C2D05D04E19EA507B
:1036E0000435C6F80640F7E7BFF34F8F4FF480620A
:1036F000BFF36F8F0260C020088070BD046001407E
:103700002DE9F0478E78C8780F468D8800F00301C8
:10371000304600F0CDF8082815D24D4A04464FFA3D
:1037200086F8324952F8200008F00F090840F9786D
:1037300001F00301484402290BD003294ED117465A
:1037400048F2806108E07A480068C0074BD000BEAC
:1037500049E0174648F280016FF3DF2540EA010A8D
:103760000021F609284600F093FB4FF6FC7186F025
:1037700001024FF6FF73084007EBC40101EB820121
:10378000D1F800249A4310446FF07002B8F1000F92
:10379000C1F8000445484FF4806100EB491000EB8C
:1037A000061085818473F748C0F8801048BF6FF415
:1037B000E0422023B8F1FF3FC8BF4FF40053BFF3EE
:1037C0004F8F83EA0A03BFF36F8F1A4047F8242014
:1037D000FFF7D3F901600120BDE8F087D448006805
:1037E000C00700D000BE0020BDE8F087707000F870
:1037F000F0B52E4C01F00F02102348F280074FF471
:10380000806603EAD10049B204EB42121044104A28
:10381000847BDC4852F82450C0F880603D430E4F52
:10382000B1F1FF3FC4BF4BF68F77C0F2FF7705EAD7
:103830000701C8BF4FF48053BFF34F8F5940BFF308
:103840006F8F42F82410FFF798F90660F0BD00BFB3
:103850000060014008E100E0BF8FFF07B0B5134CE6
:1038600001F00F00C9090D0104EB4014625104EB93
:103870000112002454811381546000F09DFB01204B
:10388000B0BD00BF70B5094C01F00F00C90900269A
:103890000D0104EB4014665104EB01146681238191
:1038A000626000F089FB012070BD00BF540700205A
:1038B000F0B501241D4A4FEAD01C00F00F0584EA40
:1038C000D01402EBD013002014440433261D082822
:1038D0001CD013F8204002EB800734B1FC788C42F6
:1038E00004BFBC78AC420FD11DE0012902D116F80B
:1038F00020404CB9BC78FF2C18BFAC4204D1FC78F6
:10390000FF2C18BF8C4208D00130E0E788480068DF
:10391000C00700D000BE002005E0F9700CEB0701E5
:103920000122BD700A71C0B2F0BD00BFFC000020D2
:10393000F0ED00E02DE9FE43054640788846023868
:1039400005281DD8DFE800F003440E1509887548E6
:10395000002101734173017411E072480178013153
:1039600001700DE06F48017B002900F0D580012136
:1039700005E06C48017B002900F0CE8000218173B6
:103980006848B8F1000F446802D16848FFF77DFA33
:10399000664F04F10800294600233A8901F00DF82A
:1039A0000646B8F1000F02D17968012088473EB180
:1039B00028786978424603B0BDE8F04301F074B955
:1039C0005B480068C00700F0A78000BEBDE8FE832A
:1039D000DFF85091544C0026002799F80100411C53
:1039E000C9B28F4213D2C1B28F4204D2D9F80810A3
:1039F00051B1314401E0214606D10A6A22B1696819
:103A00002878904799F8010024360137E7E799F8BC
:103A10000E00002859D0002089F80E00CDE90100E1
:103A20000520D9F80460FFF710FA02D13F48FFF7EC
:103A30002CFA3E4C06F1080069460023228900F06A
:103A4000BCFF0646B8F1000F02D16168012088472B
:103A5000B6B3FFF77CF938E0297911F00F003FF495
:103A60008FAF304B03EB40005C7800EBD11292F843
:103A70002320944208D99B68002B3FF481AF02EBCE
:103A8000C20203EB820602E07FF47AAF264EF269AF
:103A9000002A3FF475AFCA09841814F8330FFFF7F2
:103AA00064F8AB6828786A79F669B047A0BB2078DB
:103AB00040F001002070207840F0040020705FE7A3
:103AC000F2480068C00700D000BE99F81200C00795
:103AD00022D00320FFF7B9F96868D9F804500190A3
:103AE00002D11248FFF7D1F9104C05F108006946E0
:103AF0000023228900F061FF0546B8F1000F02D1D2
:103B00006168012088471DB1FFF721F9BDE8FE83F8
:103B1000EF480068C00701D1BDE8FE8300BEBDE8E4
:103B2000FE8300BF200100204C5800080800002040
:103B3000F0ED00E010B500F07BFAEF4C00202060C3
:103B4000206840F45D40206000F092FAA06940F4E3
:103B50000040A061012010BD04484FF48061016065
:103B60007046FFF70AF88646704700BF88E100E01C
:103B7000BFF34F8F03484FF48061BFF36F8F016035
:103B8000704700BF08E100E02DE9F04F89B0BC4D5F
:103B90006C6CA0050ED56FF4007001216864A86CF0
:103BA0006FF3DF2007904FF44070ADF8180006A8BF
:103BB000FFF7C0FE600500F14481E00412D5286CD7
:103BC000012120F004002864286C20F008002864FB
:103BD0006FF4805068644FF4A060ADF8180006A838
:103BE000FFF7A8FE200512D5286C012140F008003F
:103BF0002864286C40F0040028646FF40060686456
:103C00004FF48060ADF8180006A8FFF793FEE005BA
:103C10000DD59C48017839B1012902BF2A6C22F0E8
:103C200010022A64013901706FF480706864DFF853
:103C3000DC84019405F58060934C4FF014090290E8
:103C4000686C000440F10E81686C00F00F0655F8B6
:103C500026A05FEA0A4040F1B180CDF80C900398AD
:103C600018B1039801380390F9E75FEA0A502AD4A3
:103C700055F82600C146204040F0800045F8260057
:103C800055F826B00BF48C400BF00F04B0F58840CB
:103C900008EB441818BF0120029B03EBC60151F842
:103CA000202051F8200013FA80F1D8F80400C2F364
:103CB0000947B8B300220792042206923A4606AB9F
:103CC00000F07BFE39E0029A002302EBC600416857
:103CD0004068C1F3094712FA80F004A93A4600F09F
:103CE00037FF55F82600204040F08000082F45F8A7
:103CF00026000CD1DDE90401CDE907014FF4C060D5
:103D00000121ADF8180006A8FFF714FE56E0704830
:103D10000068C00700D000BE002001210822FFF784
:103D2000F3FB4BE0B8F80A00D8F800200023024467
:103D3000084611463A4600F00BFFB8F80A00B8F8FA
:103D40000C2038449742A8F80A001DD3B8F8081090
:103D500083B2994218D90BF4C063B3F5806F08D0D1
:103D6000081A80B2904238BF024630460121FFF760
:103D7000CBFB454C4BF2800104F5405000EA0B00B0
:103D8000484045F8260016E030460121FFF7BCFB0D
:103D9000B8F80A008DF81C40002401218DF81D4060
:103DA00008904FF4E060ADF8180006A8FFF7C2FDD8
:103DB000C8F80840344CC8464FF014095FEA0A605E
:103DC0007FF53EAF55F82600204040F4004045F80E
:103DD000260055F8262002F00F0102F4C06308EB1C
:103DE00041101030B3F5806F12D1C37B002B3FF42C
:103DF00027AF0023C373012323EA921205EBC60306
:103E000003EB8202D2F800346FF31943C2F8003496
:103E1000028943899A4210D14FF4E0600892ADF8CC
:103E2000180000208DF81D0001F1800001218DF89F
:103E30001C0006A8FFF77EFD02E7314600F05EF8A1
:103E4000FEE66FF48060686400F012F90020012142
:103E50008DF81C004FF48070ADF8180006A8FFF72D
:103E600069FD0AE00198400407D519480068C007B9
:103E700000D000BE6FF48040686409B0BDE8F08FE8
:103E8000006001404C0700200F0FFF07F0ED00E03D
:103E90001CB50C460DF107010DF1060200F054FBB4
:103EA000994A014610884318002C1C4618BF0C4440
:103EB000A1B2148018BF40EA0340B1F5006F06D9E3
:103EC00003480068C00700D000BE4FF6FF701CBD5D
:103ED000F0ED00E0E0B500208021002200230090FA
:103EE000FFF7BCFC8CBD00006048026822F4007241
:103EF00061F3492202607047406001402DE9FC47B0
:103F000005462B488A464FF0000CA0F580684FEA22
:103F1000CA0358F82170002107F4C069B9F5806F11
:103F200008BFC7F38011AE892A8943EA81016B89F2
:103F30000C18095810FA81F1D01A80B2B04238BF7B
:103F40000646686840B104226B46CDF804C0009272
:103F5000324600F01FFD07E02868C218084600231B
:103F60001146324600F00CFE6889B9F5806F4FF4B7
:103F70008061104A48F2B00330446FF39F26688195
:103F800020686FF3194040EA0640206004BF01201A
:103F9000E8733A4025485A40C0F88010FEF7EDFD1E
:103FA00048F82A20FEF7E9FD0160BDE8FC8700BF64
:103FB000006401403F0FFF07F8B5544A012902EBA6
:103FC000401000EB0110847B04D12146BDE8F8408D
:103FD000FFF794BF018985894A4EA94238BF0D4633
:103FE00056F82400104900EA010700F4C060B0F55B
:103FF000806F04D1204600212A46FFF785FA20462B
:1040000001212A46FFF780FA08484FF480614BF2FD
:104010008002C0F880107A40FEF7AFFD46F82420F9
:10402000FEF7ABFD0160F8BD0F3FFF0708E100E0C0
:1040300082B00E4803210160002101910199C82935
:1040400003D200BF01990131F7E7016821F00201B5
:104050000160002100910099C82903D200BF009996
:104060000131F7E70021416002B070474060014034
:10407000F8B52549234D00204FF6FF72E864082863
:1040800005D001EB80030130C3F80220F7E740249C
:10409000002000270C800021FFF70AFC802000216F
:1040A0008026FFF705FC19480021877784838773F2
:1040B00084814020FFF7ECFE044640200021FFF7FA
:1040C000E7FE4FF6FC71124B4FF6FF7704EA010250
:1040D0001C680840BC4322441A600822D5F800142A
:1040E0006FF30F0108440121C5F8000400202C687B
:1040F000FFF70AFA074842F2202120404840286092
:10410000EE64F8BD00600140FC0000205407002070
:1041100004640140707000F870B5064648691446A2
:104120000D4601F061FA6B69304601212246BDE877
:104130007040184786B0FCF755FCFEF73FFF0DF1C5
:10414000040814214046FCF7F1F94A486F4D01225A
:1041500010274FF00109016841F0800101600168FA
:1041600001F0800100910099016841F001010160B6
:10417000016801F0010100910099016841F004011A
:104180000160016801F0040100910099016841F0AB
:10419000020101601021006800F002000090009808
:1041A0002846FCF70BFC0224002628464146CDE9B0
:1041B000017904940396FCF741FB05F50060414644
:1041C0000396CDE90176FCF739FB2B4808212B4DEE
:1041D000017105F54051C0F80A604472C471C0F81D
:1041E0000D600160FCF7BBFC08B172B6FEE7244C21
:1041F00007214FF080404FF080624FF48003C4E904
:104200000D06C4E90620C4E90A61C4E9026104F1AB
:1042100048001C21E663C4E90866C4E90053C4E908
:104220000466FCF783F92046FEF7F2FA08B172B68D
:10423000FEE700200021002401F09AF901F097F92F
:1042400000200121FCF772FA0E494FF4E130C1E978
:10425000000400208C608C81FCF720FA08B172B653
:10426000FEE74FF0FF30002100F05AFE00F00CF89E
:10427000F7E700BF8C0C0244D80300200030014057
:10428000BC06002064010020BFB503AC0020002163
:1042900000F00CFD20B10020214600F01DFDF5E7E7
:1042A000FCF792FB184C6168401AB0F57A7F29D967
:1042B000FCF78AFB606015482021FCF777FB20782B
:1042C00001280FD14FF4725000250DF10902002191
:1042D0000323ADF8090000208DF80B5000F00CFD11
:1042E0002570BFBD64200DF10602002103238DF867
:1042F000080043F69040ADF80600002000F0FCFCFA
:1043000001202070BFBD00BFA000002000000242BD
:1043100000207047012070477FB58A4CC02120469D
:10432000FCF704F904F1400040250026002100229A
:1043300000238DE8610004F12800039500F09AF94C
:1043400004F1800000210122002303958DE8610023
:1043500004F1100000F08EF97FBD00BF2DE9F84F89
:1043600080468D1848790F460C46012806D1B87949
:104370003C46012802D1F8793C4678B1607804289F
:1043800004BF6079012805D1A079032804BFE07932
:10439000002810D0002080B2BDE8F88F387838446B
:1043A0000446A842EAD220782044A842E6D86178A0
:1043B0002429F5D0E2E7DFF884AA9AF82A0040B170
:1043C0009AF8120028B1D9480068C007E2D000BEB0
:1043D000E0E7A0788AF800804FF0000B8AF801002F
:1043E0002078261836E030783118A94237D871780D
:1043F00005292ED14046314601F080F988B396F95F
:104400000200B0F1FF3F12DDD14609F8288F89F88C
:104410000200B0886FF3DF20A9F8040009F10C0056
:1044200000F00AFA484600F045F968B920E08AF839
:104430001200B0888AF810806FF3DF20AAF8140009
:104440000AF11C0000F0F8F931780BF1010B705CF7
:104450000E4406442079834538BFAE42C3D3F01BD7
:1044600099E7F4480068C0073FF494AF00BE91E7B5
:10447000F0480068C0073FF48DAF00BE8AE700BF78
:10448000B0B5304C002504F13400C4E90055C4E94E
:10449000025500F0D1F904F11C0084F82A5000F014
:1044A000CBF9A574B0BD00BF2DE9F0412548984671
:1044B000012790F82A50837C87F001063C46F707D5
:1044C00004D18D4202D000278B42F5D1E30721D0E1
:1044D00006F001035B42DEB2740054FA83F300EB92
:1044E000831090F82A3000F110058B421AD100F1A8
:1044F00028075AB9296A31B11FFA88F205F1240058
:10450000002300F05AFA304600F09EFC384600F0D6
:10451000D1F814E0C7480068C00700D000BE0020F2
:10452000BDE8F08100205AB9AA788A4208D128460D
:1045300000F02AF918B92846414600F05DF901203B
:10454000BDE8F081B401002000233E2888BF01238C
:104550000B704FF001014FF0010384BF05231F21B1
:104560000844D8401070C0B298407047E0B50022AF
:10457000097800230092802222EA0101002201F042
:10458000EBF88CBD817809B142780AB10020704700
:10459000007801F093B8417801B1704702788178D2
:1045A000104601F0B9B81CB50446407808B10020A7
:1045B0001CBDA2680B462078A1783AB10024009473
:1045C000002B08BF1A4601F0C7F81CBD002200925C
:1045D00004F10C0201F0E0F81CBD0000F0B5DDE9CB
:1045E00005452544AC421AD226782644AE4216D858
:1045F0006678042E09D0052E0ED1A67806F00F0796
:1046000001EB470707EBD61605E0E67826B9A67852
:104610009E4206D21644307026783444E2E70120E8
:10462000F0BD84480068C00700D000BE0020F0BD87
:104630000178C9070ED1017849070BD40178C90761
:1046400008D10178490705D4017841F004010170CF
:1046500001207047002070470178490708D501788C
:10466000C90705D1017801F0FB01017001207047F5
:1046700000207047F8B50D46069961B1079A52B10E
:1046800004464570DDE908760C3000F0D9F80120C9
:10469000A760E680F8BD0020F8BDB0B504460C3038
:1046A00092B2002300F076F90546204600F002F8A9
:1046B0002846B0BDB0B50446808AE18A401AB4F9F4
:1046C000101048BF00EB4100D1FA50F0A18880B231
:1046D000884214D32046FFF755FF80B1A08AE18AB3
:1046E000401AB4F9101048BF00EB4100D1FA50F065
:1046F000A18882B28A4205D22046FFF74CFF0025EE
:104700002846B0BD4942E588084080B2A84238BF7B
:10471000054620462946FFF746FF0028F0D14548C8
:104720000068C007EBD000BEE9E700BFF0ED00E095
:10473000B0B5D2B104460C3092B2002300F03DF97E
:104740000546A08AE18A411A208A48BF01EB400150
:104750008AB2824228BF0246A1888A4201D2884298
:1047600004D2204600F010F800E000252846B0BD35
:10477000818AC28AB0F91000891A48BF01EB400152
:10478000D0FA51F080B27047B0B50446808AE18A11
:10479000401A218A48BF00EB410080B2884238BFEE
:1047A000014631B32046FFF7EDFE10B3A16839B1E1
:1047B00004F10C00E288002300F0ECF805460AE062
:1047C000A08AE18A258A401A48BF00EB450080B2E2
:1047D000A84238BF054620464DB12946FFF7E3FE03
:1047E00040B914480068C00703D000BE01E0FFF7DD
:1047F000D2FE00252846B0BD10B5828A0446C38A81
:104800000020B1B19A4214D1A088013808420FD1DA
:104810002046FFF7B7FE58B120460021FFF7C3FE40
:1048200008B1012010BD03480068C00700D000BED9
:10483000002010BDF0ED00E00021418101817047B2
:10484000B2F5004F08D810B50024448183718280EE
:1048500001600481BDE810400020B2F5004F98BF10
:10486000012070472DE9FE4F93460C9A8C46054671
:104870008088991A48BF01EB40010E0446D08EB2E1
:10488000B04206D20146984298BF4942CA18014632
:104890006A810D9B16181746361A121ABCB284424A
:1048A000F9D2C71B88B2584538BF83468BB3D5F8B9
:1048B0000080B8B2834508EB04013AD993F8009020
:1048C000ABEB070064460190C9F1000007EA000A5B
:1048D00060461FFA8AF2009200F052F9A9F1010035
:1048E00014FA8AFA3840C1B2002947D0009A02AFC0
:1048F000A9EB010C019C08EB020313FA86F30026D6
:10490000B14219D09A5DBA550136F9E74FF0000B64
:104910003DE02868BAB2011993452AD96046644639
:10492000FBF7B7FDABEB070114FA87F08AB22968F1
:1049300021E060465A4628E01FFA8CF2A3B23944BF
:10494000934238BF1A46D6B20D9B0022B24204D21F
:104950002F68BF5C8F540132F8E756FA80F202A943
:10496000504600F00DF92868A41B0AF1040A8119C9
:1049700006E060465A46FBF78CFD08E02968019C7A
:10498000200404D0A2B250460D9B00F0F9F858461E
:10499000BDE8FE8FBCB5044605894089CDE900031A
:1049A00020462B46FFF75EFF0546A08861892A4610
:1049B000FEF79FFD60812846BCBD2DE9F04F87B012
:1049C000002A00F08480B0F808808A468688044671
:1049D000418980799946154698B1AE421DD9B8EB08
:1049E000010048BF00EB460015FA80F0B0EB460F1F
:1049F00005D3701B82B23046FEF77BFD80462F4602
:104A000014E0B8EB010048BF00EB4600D6FA50F0C6
:104A100087B2BD4238BF2F4606E0A81B88463746FE
:104A2000B9F1000F08BF8244002F50D008EB060BED
:104A300042461146921BABEB060B88B2B042F8D24D
:104A4000761AB9F1000F44D022681118B0B287422B
:104A50004DD94B4699F80090B81B0292CDF81480BE
:104A600004900393C9F1000006EA00055046AAB27B
:104A7000019200F06DF8A9F101011AFA85F001EA3E
:104A800006035FFA83F8B8F1000F4AD0A9EB0801DA
:104A9000049D89B2AAB28A4238BF114606AE5FFAB7
:104AA00081FADDF80C9000905AFA83F231464B46B9
:104AB00000F04EF8DDE90110AC460844002110FA80
:104AC0008BF0884516D0725C42540131F9E700271B
:104AD0003AE02168B2B2084497421DD95146FBF72B
:104AE000D8FCB81B1AFA86F182B2206816E050464C
:104AF0003A4620E000984644DDF814800021043056
:104B00002268514503D2755C55540131F8E702EB38
:104B10000A01ACEB0A0C09E051463A46FBF7B9FC36
:104B20000CE0DDE9039CDDF8148021685FEA0C42AB
:104B300004D01FFA8CF24B4600F00AF8A0884146D8
:104B40003A46FEF7D6FC2081384607B0BDE8F08F24
:104B50001CB50BB11C7805E0042403E008C8121B47
:104B60000B60214493B2A342F8D2120407D000682C
:104B7000019001AA084611461A46FBF78AFC1CBDA3
:104B80001CB504460BB1187806E0042004E00B18AD
:104B90000968121A02C4194693B28342F7D210046C
:104BA00007D000201A46019001A8FBF772FC01987B
:104BB00020601CBDB0B51C4C0A6800254B6884E819
:104BC0002C00E560BDE8B040FFF7D0BCF8B5164E4C
:104BD0000C684D680027C6E90045F781B260CC88B3
:104BE000A342254638BF1D46B5813CB17AB973B1A1
:104BF000C9480068C00714D000BE12E0FFF7B6FC39
:104C000040B9C5480068C0070BD000BE09E0FEF7F8
:104C1000D1FC08B10120F8BDBF480068C00700D032
:104C200000BE0020F8BD00BFA80000200020704793
:104C300000487047825800080048704770580008C4
:104C4000002070470020704710B5F0B1042884BFE1
:104C5000002010BD124951F820402046FBF7FAFB16
:104C600010F0E00F18BF1F200E49C0B202310246FB
:104C70002AB114F8013B013A21F8023BF8E702217E
:104C800001EB400040F4407106E00548054900682A
:104C9000008848804FF441710248018010BD00BF78
:104CA00028000020740100207047000000EB400045
:104CB000624901EB8010818FC28F891A028F48BF31
:104CC00001EB420189B2914238BF0A46017B407B29
:104CD000401A52FA80F0704780B500EB4000574A06
:104CE00002EB801004222830FFF7D7FC0438B0FA1A
:104CF00080F0400980BD00BF2DE9FE4F904600EBDB
:104D000040004E4A002402EB8015A87C002800F0E9
:104D100091804FEA011B994605F1100AAE1C00274D
:104D20000BF1050002900BF10F0001904F456ED082
:104D30005046FFF71DFD04286BD318F90700A97929
:104D4000013791B1042969D27054AB78AA79511C0A
:104D500003F00F03042BA97116D1093014D1101DD3
:104D600040EA0B00307008460CE00221E870A9719F
:104D7000A97801F00F0104291AD109301FD1029836
:104D800030700220E87104E0E879C2B2C9B2914201
:104D9000CCD1C0B2042802D234540130FAE75046D4
:104DA00031460422FFF7C4FC0428EC80BED03BE06F
:104DB000C1B2090910F1400F03DA042016E0042003
:104DC00017E0A1F10C02022A0FD30E29F5D00F290A
:104DD00011D11030C1B2032911D8C0001849194AA5
:104DE000C0B2C14022FA00F00BE0032041EA0B01FF
:104DF0003170E8719AE70198AC80A870C1E705218D
:104E0000022041EA0B01E871A9700221BDE74C467E
:104E100000E03C465046FFF7B7FC0BE03E48006818
:104E2000C00706D000BE04E03B480068C00700D0C1
:104E300000BE3C462046BDE8FE8F00BFB401002006
:104E40000402030204030403704770477047000024
:104E50002DE9F047DFF894A980469AF80000FF2872
:104E600002D00120BDE8F0870D4669B3294F3721F4
:104E700007F10C00FBF75AFB002038700AF10C0018
:104E8000FFF7DAFC0AF104007860781C00F0A2FB5E
:104E9000B8607878FF2823D0DFF8C4960024002675
:104EA000411CC9B28E4221D2C0B2864203D2B86838
:104EB00080B1204401E048460CD1406850B18047A1
:104EC000243401367878EBE713480068C0071DD01A
:104ED00000BE1BE010480068C00717D000BE15E0F8
:104EE0000D480068C00711D000BE0FE040462946BB
:104EF0008AF80080FEF71EFE18B14046FEF738FE25
:104F0000AFE705480068C00700D000BE0020BDE83C
:104F1000F08700BF20010020F0ED00E070477047EF
:104F20002DE9F04F8BB0DFF8C49899F80000FF2806
:104F300000F0128307ACDFF89C88D64D4FF0000BD1
:104F400004F1040ABBF1100F00F00683D9F8041035
:104F5000D8F8046000208847B9F8082006F1080056
:104F600021460023FFF716FDD9F80410064601205C
:104F70008847002E00F0F0829DF81D0001380728B8
:104F800000F29E80DFE800F00431151E0D38752A0E
:104F90009DF81C0000F02CFC9DF8200088F8110002
:104FA000BBE298F80C00002800F0B782FFF74EFF34
:104FB000B3E298F81200C00700F0AF820898FFF73C
:104FC000ADFFAAE298F80C00002800F0A68298F83D
:104FD0000F00C0F34000FFF7A2FF9EE208990029EE
:104FE00000F09B820998884797E29DF81C0000F02A
:104FF000FFFB00F0B9FA90E298F80000002800F0FA
:10500000A28298F80000013888F8000098F80000A3
:10501000002840F08282012088F80C0098F83300C4
:1050200000F0FE0088F8330098F8330000F0FB0031
:1050300088F8330098F8340000F0FE0088F8340057
:1050400098F8340000F0FB0088F8340000209DF848
:105050001C7000F0C9FA9DF82020C2F3411002280C
:105060004AD0032855D12868C00700F04C8200BE02
:1050700049E29DF8201011F00F0008EB400000EB12
:10508000D11292F8333003F0FE0382F8333092F8F5
:10509000333003F0FB0382F8333017D0CA091044D1
:1050A00098F8012090F82300824217D9D8F80820F8
:1050B000002A00F04D8200EBC00002EB800011E0FE
:1050C0002868C00700F0298200BE26E29DF81C0077
:1050D0009DF82120099B00F095FA1EE2DFF880047C
:1050E00040F036822E4685699DF81C009DF82120EF
:1050F000099BA847354610E2DFF8680400F074FA0F
:1051000038460121524600F030FA002800F0FB81B9
:1051100003E202F01F0102292CD0012917D0002937
:1051200050D101285AD1BDF8240010F0F00F40F002
:10513000EA81FDF76DFE40F29580D8F8081000294D
:1051400000F0E18100EBC00001EB80018DE0BDF8D3
:10515000240010F0F00F40F0D681FDF759FE50D931
:10516000D8F80810002900F0CE8100EBC00001EB58
:1051700080014AE0BDF8241001F00F00082827D272
:1051800008EB4003C9B298F80160AC46DFF8D05391
:1051900003EBD11393F823309E424FF0000603EB4C
:1051A000C30308BF2E46D8F8085088BF05EB830616
:1051B00012F0600F43D0002E654600F0A4813846FF
:1051C000314653E02868C00700F09D8100BE9AE197
:1051D0002868C00700F0978100BE94E19DF8210087
:1051E000092847D8DFE810F00A006E0046000A01DF
:1051F00046001601220146004C00780098F80F0086
:1052000056E0DFF85C1340F07E8138465246FEF7E8
:1052100083FF002840F081819DF8200010F0600F8E
:1052200040F07181002000F0DFF99DF821000B288B
:1052300000F036810A2840F06681002022E09DF8C7
:105240002120032A18BF012A26D1BDF82200654675
:10525000002840F00F810020012A40F0098100F071
:1052600039FA07E1BE4940F04E8138465246FEF712
:1052700053FF4AE72868C00700F0458100BE42E1BD
:1052800098F810008DF82A00384651460DF12A0290
:10529000012314E0F0ED00E0002A654640F0E380D1
:1052A00008EB4000C909084490F83300C0F34000FF
:1052B000ADF82A00384651460DF12A020223FFF7C5
:1052C00085FC2AE1BDF82200012840F01C8198F8F5
:1052D0000F0000F0FD009AE098F810009DF82260A1
:1052E000B04200F0DD8078B138460021FEF7FCFDC9
:1052F0003846FEF7E3F998F8110006903846FEF7B5
:1053000025F9069888F81100002E88F8106000F042
:10531000C580701EC0B2FFF78BFC002800F0B9807A
:105320004178022940F0B580C17998F80F20C1F387
:10533000801102F0FE02114488F80F1041884218D3
:1053400000F109010392914280F0EF80087808444F
:10535000904200F2EA804B78042B03D00B2B0146DD
:10536000F1D0E5E0501A4FF0000C0026049180B215
:10537000059098F80130581CC2B2964233D29E4232
:1053800006D2D8F80800002800F0B280604402E09D
:10539000734840F0AD8003693846059ACDF818C0CF
:1053A0009847092803D301460598884206D2DDF8BC
:1053B00018C0013604990CF1240CDAE704980D4664
:1053C00008F113021023CDE90001F0B208F1230126
:1053D000FFF704F9002800F0B08098F80100049964
:1053E0002944EC4D0130C0B2F2B28242039AAAD3F2
:1053F0002868C00700F0808000BE7DE0BDF8220074
:10540000012840F0808098F80F0040F0020088F8F2
:105410000F0045E0504600F0EBF89DF822103846AA
:10542000FEF758FD012088F80D0076E0BDF8220057
:105430004FF0FF3101EB10210E2900F26480C0B261
:10544000DFE801F0083D336161464C6161616161F3
:1054500061613800FFF7F0FB002861D00246384652
:105460005146122341E02868C0074CD000BE4AE0F4
:1054700000F05EF9002E50D0384631465246FEF715
:105480004BFE002000F0B0F898F83400C00707D0B9
:1054900043E02868C0072FD000BE2DE000F064F87C
:1054A00038465146FFF786FB37E0BDF82410FFF77A
:1054B000CBFB0FE0FFF7BAFB28B3024612E0FFF781
:1054C000B7FB024670B92868C0071CD000BE1AE0BE
:1054D000FFF7B6FBB8B10246037804E0FFF7B2FB72
:1054E000024680B1538838465146FFF76FFB0CE601
:1054F0002868C00700D000BE002088F81000286887
:10550000C00700D000BE9DF81C000021FEF770F916
:105510009DF81C008021FEF76BF90BF1010B11E5E2
:105520002868C007EFD000BEEDE7FFF78EFCB7E7B5
:105530002868C007E0D000BEDEE7A74D2868C00796
:10554000DAD000BED8E72868C00705D000BE03E067
:105550002868C00700D000BE0BB0BDE8F08F00BFC8
:105560004C5800086B550008704700207047704782
:105570001CB5A1B101280BD80A784AB1144B1A54B2
:105580000A78012A02D1FFF763FCD0B101201CBDCB
:1055900091480068C00700D000BE00201CBD012457
:1055A0000DF106010020ADF80640FFF751FC10B1E7
:1055B00007490C701CBD88490968C907EED000BEB8
:1055C0001CBD85480068C007E7D000BEE5E700BF06
:1055D00074020020002101700020704780B5364819
:1055E0001421FAF7A3FF80BD33490861704700BF5B
:1055F000314A016840680023C2E90010C2E9023361
:10560000704700BF70B52C4D04461E4695F900004A
:10561000414049B2B1F1FF3F27DD002807D4A86817
:1056200000283DD005F114013246FAF732FFE8892F
:10563000A96830443144E881A96080B2E988814298
:1056400018BF3F2E23D82B6923B11B4A20460221C5
:10565000984738B318492046FEF788FF50BB5E488C
:105660000068C0071CD000BE1AE02EB15A4800687E
:10567000C00715D000BE13E020462946FDF7C8FF3D
:105680002B69BBB10C4A20460321984712E0204603
:10569000FDF790FF70B950480068C00700D000BE09
:1056A000002070BD20460021FEF7A2F82046802190
:1056B000FEF79EF8012070BDA8000020454A01F0C9
:1056C0000F0002EB400000EBD11000213330FEF759
:1056D000AFBF00BF10B545480C460078FDF7ACFFE2
:1056E0003C49FDF7D7FA01F0FD0180F8331090F83E
:1056F000331001F0FE0180F8331010BD88780007E8
:1057000003D43A480078FDF7FBBF33480068C00770
:1057100000D000BE002070472E4A01F00F0002EBBF
:10572000400000EBD11000213330FEF795BF00BFE1
:1057300010B52E480C460078FEF75AF82549FDF7BB
:10574000A9FA41F0020180F8331090F8331041F0CB
:10575000010180F8331010BD7CB51E4CFDF730FA06
:1057600007D12248FDF737FBFEF778F838B1012062
:105770007CBD19480068C00709D000BE07E020784A
:10578000FDF7F3F914480068C00700D000BE002000
:105790007CBD00BFF0ED00E07CB50E4CFDF710FACB
:1057A00007D11248FDF717FBFEF76CF838B101205E
:1057B0007CBD09480068C00709D000BE07E020781A
:1057C000FDF7D3F904480068C00700D000BE0020F0
:1057D0007CBD00BF20010020F0ED00E00146034841
:1057E000007809B1FEF7C4B9FEF7B6B90800002089
:1057F00080B5FDF7ABFEBDE88040FFF7EFBEF1EEF0
:10580000100A4FF6FF71C0F2C03120EA010040F0EB
:105810004070E1EE100A704709040000000000002B
:10582000000001020304060708090000000001024D
:105830000304010002000400060008000A000C0036
:105840001000200040008000000100000000000067
:105850001943000815430008814400085D4300080F
:1058600011430008A94400080000000000000000E7
:105870001201000200000040FECA024000010102C5
:1058800003010902650002010080320904000000E2
:1058900001010000092401000109000101090401BE
:1058A0000002010300000724010001410006240258
:1058B000010100062402020200092403010301027F
:1058C000010009240302040101010009050102404D
:1058D00000000000052501010109058102400000CA
:1058E0000000052501010331323334353600546997
:1058F0006E79555342204D4944490044616E6165BB
:105900002773204D49444920436F6E74726F6C6C4D
:1059100065720053544D6963726F656C6563747290
:105920006F6E696373000000485900080000002092
:1059300040000000B802000888590008400000201C
:10594000180E0000D802000801000000100000003E
:10595000FF000000DD5700080C0000007602002068
:10596000C000000000000000004400400090D00390
:105970001858000813590008FB580008E758000899
:08598000EE58000800000000D1
:040000050800025598
:00000001FF
