:020000040800F2
:10000000900D0020690200083B490008E7480008FD
:10001000394900080F060008F15B00087B02000860
:10002000000000000000000000000000175200085F
:1000300005070008000000005D5000081952000884
:100040008502000885020008850200088502000874
:100050008502000885020008850200088502000864
:100060008502000885020008850200088502000854
:100070008502000885020008850200088502000844
:100080008502000885020008850200088502000834
:100090008502000885020008850200088502000824
:1000A00007070008850200088502000811070008FC
:1000B0008502000885020008850200088502000804
:1000C00085020008850200088502000885020008F4
:1000D00085020008850200088502000885020008E4
:1000E00085020008850200088502000885020008D4
:1000F00085020008850200088502000885020008C4
:1001000085020008850200088502000885020008B3
:1001100085020008850200088502000885020008A3
:100120008502000885020008850200088502000893
:100130008502000885020008850200088502000883
:100140008502000885020008850200088502000873
:100150008502000885020008850200088502000863
:100160000000000000000000495800088502000857
:100170008502000885020008850200088502000843
:1001800085020008850200088502000800000000C2
:1001900000000000850200080000000000000000D0
:1001A0000000000000000000850200088502000831
:1001B0008502000885020008850200088502000803
:1001C0008502000885020008000000000000000011
:1001D0000000000000000000000000008502000890
:1001E00085020008850200080000000000000000F1
:1001F0008502000885020008850200080000000052
:100200000000000085020008850200088502000841
:1002100085020008850200088502000885020008A2
:1002200085020008000000000000000085020008B0
:10023000850200080000000000000000000000002F
:10024000000000000000000000000000850200081F
:1002500085020008DFF80CD000F0ACF80048004739
:1002600059630008900D0020074880470748004761
:10027000FEE7FEE7FEE7FEE7FEE7FEE7FEE7FEE756
:10028000FEE7FEE7FEE70000C55200085502000841
:100290002DE9F05F0546002092469B4688460646BB
:1002A000814640241BE0284641464746224600F04E
:1002B00070F853465A46C01A914110D31146184659
:1002C000224600F057F82D1A67EB01084F462246E8
:1002D0000120002100F04EF817EB00094E41201ECE
:1002E000A4F10104DFDC484631462A464346BDE816
:1002F000F09F40EA01039B0703D009E008C9121FE1
:1003000008C0042AFAD203E011F8013B00F8013BCF
:10031000521EF9D27047D2B201E000F8012B491EFB
:10032000FBD270470022F6E710B513460A46044692
:100330001946FFF7F0FF204610BD421C10F8011BC4
:100340000029FBD1801A704730B50B4601460020CA
:100350002022012409E021FA02F59D4205D303FA87
:1003600002F5491B04FA02F52844151EA2F1010208
:10037000F1DC30BD202A04DB203A00FA02F1002033
:1003800070479140C2F1200320FA03F319439040D3
:100390007047202A04DB203A21FA02F0002170473E
:1003A00021FA02F3D040C2F12002914008431946DD
:1003B000704700001CB509480090094801900546A7
:1003C000009C06E0E06840F0010394E807009847CD
:1003D0001034AC42F6D3FFF741FF00004080000824
:1003E000608000080146C06D836D826D13F0500F70
:1003F00007D0D20648BF00F049BB006D826E0846A8
:10040000104742F40071816501680B68CA681B07D8
:1004100003D4910707D500F037BB12F4406FFAD12F
:10042000C9688904F7D4816D21F480718165816D7B
:10043000C9045EBF816D41F00101816500F024BBFC
:10044000C06D816D41F040018165C16D41F00401D5
:10045000C16500F01BBBC06D00F017BB7CB5044646
:100460000020019021688A68D2072AD11B4E886833
:1004700006F17F02104222D18868304040F001002E
:1004800088601748006800021CD401F06FFA054626
:1004900020680168C9071CBF00207CBD8168C907AE
:1004A00001BF8168314041F00101816001F05EFAD5
:1004B000401B0328ECD320680068C007E8D104F093
:1004C00051FA7CBD0748084904F05DFB0190019892
:1004D0000028DAD001980138F8E700BFC0FFFF7F9D
:1004E0000883024228000020400D030008B104F0F8
:1004F000A4BA2DE9F04186B03D480C4602274FF0E2
:100500000708174D04F024FA04F022FA016941F4B7
:1005100000310161006900F40030019001980497F6
:100520000297CDF81480042001900120039001AEC1
:100530002846314601F054F908203146CDF81480A0
:1005400002970190284601F04BF90648214604F035
:10055000DBF9002818BF6FF0030006B0BDE8F0819A
:1005600000000242240400207047000000EB40001D
:10057000224901EB800001F001B900BF10B586B03F
:1005800004461B48026842F004020260006800F062
:10059000040000900220CDE903004FF400500190C8
:1005A00000981448D9B11449029101A901F018F931
:1005B00004EB4400114901EB80041149204601F08D
:1005C000D7F8104A2046002101F0FCF818200F212E
:1005D000002201F04FFA182001F03CFA04E000215B
:1005E000029101A901F0FCF8002006B010BD00BF87
:1005F0008C0C02440008024200001110B8040020D4
:100600000D000006090600080020FFF7ADBFFEE759
:1006100041EA00031343002908BF1146002818BF10
:10062000014681EA0300000C18BF0120704748B161
:1006300090F8200049B191F8201088421CBF022098
:10064000704702E041B191F820002AB192F82010E1
:1006500088421CBF03207047002070472DE9F043FB
:10066000D2F800C08568C9B14FF6FC7E00274FF66E
:10067000FF7800264FF0000901EA0E03AF4224D2B2
:100680009E4222D004682FB124EA0804B1463443C4
:1006900054F82C4004EA0E060137EFE700234FF62A
:1006A000FC784FF6FF7E00264FF000099D420BD0EC
:1006B00007682BB127EA0E04B146344354F82C7076
:1006C00007EA08060133F1E72F4639B14FF6FC730C
:1006D00019408E421CBF0120BDE8F083408897601E
:1006E00046EA004149EA0043D160536051F82C10BA
:1006F00029B14FF6FC730004194008431061002033
:10070000BDE8F08370470020FFF730BF72B6FEE708
:10071000014800F025BF00BFAC0300202DE9F843DD
:1007200004460020009094F85400012804BF0220E1
:10073000BDE8F8830120884684F854002068816869
:10074000490736D4D8F80010C44D012907D0C44A4F
:1007500091420AD1D8F80C20C24B9A4205D1D5F863
:10076000C82042F00102C5F8C820D8F804201F278D
:10077000C1F3846102F01F03C2F301229F4099403C
:1007800000EB8202166BBE433143116304F018FC88
:1007900040F0B680D8F80820D8F80010B2F1004F29
:1007A0000DD1002204F0A0F82068416941F0004119
:1007B0000BE0A06D40F02000A065012048E104F0AE
:1007C00093F82068416921F000414161D8E90412A1
:1007D000C368042965D1016E066ED8F80030AE46B4
:1007E000A24DC6F38466AC461946C3F3846293FAFD
:1007F000A3F3B3FA83F76FF31F5100293B4608BFF9
:1008000013469E420DD1016E21F000410166D8F8D9
:10081000003003EA0501C3F3846293FAA3F3B3FA49
:1008200083F73B460029754608BF1346466E466E61
:10083000C6F384669E420ED1416E21F000414166AE
:100840006146D8F8003003EA0C01C3F3846293FADE
:10085000A3F3B3FA83F73B46002908BF1346866E1D
:10086000866EC6F384669E420DD1816E21F00041F2
:100870008166D8F8003003EA0C01C3F3846293FA6E
:10088000A3F3B3FA83F7002908BF1746C16EC16E00
:10089000C1F38461B94202BFC16E21F00041C1665B
:1008A0002EE000F16007D8F800C06F4E57F821E045
:1008B0000EEA060E062606EA93039A400CF0F84369
:1008C0001A4342EA0E0242F0004247F82120D8F8CB
:1008D0001010D8F8182057F8213023F080731A43ED
:1008E00047F82120D8F8101057F8212098F81C302C
:1008F00022F00072012B08BF02F1007247F821209C
:10090000D8F800108268D20754D1D0F8B030D8F8A7
:100910000C600A46A946554D6FF31F5206F01807A2
:100920009343FD400D402B43C0F8B0304D4B9E42E9
:100930003FD1DAB191FAA1F1B1FA81F2531C9106DB
:1009400003F01E05092D19D8013201F1806103F071
:100950001F03012502F01F0201F0F84105FA03F31D
:1009600002EB420241EA025119431CE0012202EB70
:1009700091638A0E03F01E050A2DE5D3013203F0C0
:100980001F03012501F1806102F01F0205FA03F344
:10099000374D01F0F84102EB420205EB02521143E0
:1009A000194341F00071D8F8082003F09DFFD8F8F2
:1009B00000104D462F48014249D0D5F808232E4B50
:1009C000994202F0E07008BF12F4000310D02B4BE4
:1009D000994220D10023B3EB106F1CD105F5807133
:1009E00022688A4233D104F060FA40F080702CE033
:1009F0002168A9422BD104F058FA804940F4000044
:100A0000C5F808037C4804F0BEF800900098F0B1E7
:100A100000980138F9E71A4B994208BF12F4800296
:100A20000CD01848814212D12068A8420FD0D0F8CB
:100A3000C81041F00101C0F8C81008E02168A942BF
:100A400005D104F032FA40F48000C5F80803002014
:100A5000002184F85410BDE8F88300BF00800242F2
:100A60000200300400007F4000F0FF03FFFF0F0092
:100A7000000020FE00000880000021C30000294380
:100A8000000052C700005A47704770477047000087
:100A9000F8B50446002000906CB3A06D28B920463C
:100AA00000F0B4F804F01FF8E06521688868800061
:100AB000504842BF8A6802408A608A68D20014D4D3
:100AC00000F180508A6810404C4A40F080508860A5
:100AD00049480068B0FBF2F0022202EB40000090AF
:100AE000009810B100980138F9E78868C00004D474
:100AF00003F038FF02E00120F8BD00208A68A36DF2
:100B000002F0040203F01003D218A26D5BD122F4AC
:100B100081720232A2658A68D2070ED1384A136800
:100B2000D2F800512B43DB0707D16368D2F800539A
:100B300025F47C152B43C2F80033627EA36B43EA95
:100B40004232D4E902352A431A4394F8203042EA6B
:100B50000342012B04D1636A2A4D05EB43431A4338
:100B6000A36A23B1E56A03F478732B431A43CB6875
:100B7000254D2B401A43CA60226B0B6923F040635A
:100B80001A430A618A68120724D4CA6894F8345058
:100B900044F2020394F83C609A43237E6D0045EAD8
:100BA00083331A43CA60012E0A6910D140F2FD73E3
:100BB00004F140079A43E8CF1A432A4332433A43A9
:100BC00042F0010205E042F01001012010E022F0A5
:100BD00001020A610A6B236922F00F02012B02BF96
:100BE000E369013B1A430A63A16D012262F301012B
:100BF000A165F8BDC0FFFF5F28000020400D030085
:100C0000088002420000FEFF0740F0FF70B5D4B03C
:100C100004464FA81421FFF785FB684603F094FEB5
:100C2000374D216805F50040814266D14FF4001030
:100C3000002600906846019602F0BAF808B1FFF766
:100C400065FD3048016841F480610160016801F48C
:100C500080613491349903F0E8FE3490032051967A
:100C6000509002204F9034984FA9284600F0B8FDCC
:100C700021201C21349034AD281DFFF753FB0120A7
:100C800014214596CDE93D0005F12C00FFF74AFB04
:100C90001D49284600F0D4F808B1FFF737FD1B487E
:100CA000194A002100F0F8FA08B1FFF72FFD1748A4
:100CB00000F0B2FB08B1FFF729FD1548154A0021E5
:100CC00002608122C0E90E11C0E91011826400F0B7
:100CD000FDF908B1FFF71AFD0D4D0C49284600F04B
:100CE00043FB08B1FFF712FD28461021EC6525658E
:100CF00000F01CFC08B1FFF709FD54B070BD00BF47
:100D0000000002428C0C02445C01002044010020DF
:100D1000AC030020500002402DE9F0419CB0044695
:100D2000424F8846D7F8080221688968490703D4EA
:100D300094F85410012901D1022048E010F01F0559
:100D40004FF00100164684F8540018BF092D39D120
:100D50002046FFF783FBB8BB2168A06D40F6017207
:100D6000904300F58070A0650DB1B94203D0A06D2D
:100D700020F48010A065A06D00222E4B2E4DC004E3
:100D800044BFE26D22F00602E2651C2200200A60E8
:100D90004A6842F010024A6084F85400244AC86845
:100DA00040F00100C860206D826690F85020C0E9D4
:100DB000185312060ED48269012A1DD0022A08BFD8
:100DC000B6001AE0052DC3D003F08DFE01201CB043
:100DD000BDE8F081406F0028F8D001680029F5D007
:100DE00001A800F0DDF80028F0D10798012810D004
:100DF000022808BFB6000DE0760040314246334677
:100E000000F065FC21680D4B8A681A4004328A6044
:100E1000DDE77600206D2168426F40311268C2E93B
:100E20000261C2F8108000F02DFBEBE70081024266
:100E30004104000857040008E5030008C0FFFF7FD5
:100E4000002876D0002974D0F0B500F11006C26BEE
:100E500078CE344322431A432A430A6003789B0620
:100E600014D500F124054FF07C77866B38CD07EB65
:100E70000454354304F07C742C434FF47C7505EB2B
:100E8000031303F47C7323431A430A60426840F25D
:100E9000FF24036B22401A434A60C368B3F5007F06
:100EA00005D0B3F5806F04D10478A40601D51A43A8
:100EB0004A60436B1A434A60436C43B1856C046CCF
:100EC00005F03F0544EA054422431A434A60B0F85E
:100ED00068308B6002789207304A21D5C46C4FF09D
:100EE000805502EB0444144023438B60046D05EAF3
:100EF000D4044FF0005523448B60446D05EA9404FC
:100F00004FF0804523448B60846D05EA54042344EC
:100F10008B60C46DB4F1FF3FDCBF03F100438B6015
:100F2000036ECB60436E0B6103789B0703D41423DD
:100F300025E0012230E0036D002B00D55B426FF30A
:100F40005F3302F1C0544B61456D2E04002D48BF44
:100F500005FB04F6344023434B61836D002B00D521
:100F60005B429BB202F178428B61C46D2504002C78
:100F700048BF04FB02F545EA03021C238A610022F4
:100F8000CA50006883074FF4E06358BF4FF4A06372
:100F900018430862BDE8F040104670470000FF07A4
:100FA000B8B3B1B3B0B591F82020474C02600B68DC
:100FB00003F0080303610B6803F4002343610B682B
:100FC00003F0030383610B6803F44033C3610B68D0
:100FD000C3F30513013343620B68C3F305530133B5
:100FE00083620B6803F04023C3620B682340836372
:100FF0000B6803F4C053C3634B689C050BD4DBB28E
:1010000043604B795B0754BF00234FF48063C36098
:1010100005E0012155E04FF40073C36043604B6865
:10102000920703F4006383604B6803F44043036456
:101030004B6803F040734364CB8803F03F03836441
:101040004B6803F0404303630B8983660BD4012292
:10105000C264CA6802660A6900214266C0E91411C6
:10106000C0E916112BE04A896FF3DF220132C26416
:10107000CA6802660A6942664B696FF35F330365AB
:10108000CA8A6FF35F3242658C68E50042BF5B42FB
:1010900003658C68A30044BF524242650B8B836595
:1010A0008A69120CC2658C68650042BF5B42836529
:1010B0008C68B4F1FF3FDCBF5142C1650021BDE83F
:1010C000B0400846704700BF0020000CB0B5044691
:1010D00000F04CFCC4B10546022084F85400002006
:1010E00084F84C002068416941F0060141612068A4
:1010F0004169C9070AD000F039FC401B0528F6D920
:101100000120032210218BE00120B0BDD4E90E1292
:101110001143494A904259D0484A90421CBF484A1C
:10112000904253D0474A904250D0474A90424DD0C7
:10113000464A90424AD0B04A904247D0AF4A904285
:1011400044D0434A904241D0424A90423ED0424A23
:1011500090423BD0414A904238D0414A904235D0EB
:10116000404A904232D0A64A90422FD0A54A90429F
:101170002CD03D4A904229D03C4A90421CBF3C4A68
:10118000904223D03B4A904220D03B4A90421DD00F
:101190003A4A90421AD09C4A904217D09B4A9042B9
:1011A00014D0374A904211D0364A90421CBF364A7A
:1011B00090420BD0354A904208D0354A904205D033
:1011C000344A90421CBF934A904231D1226C114361
:1011D000426922F443021143416100210164626CBF
:1011E0004264854A8164C1640165904211D0834A9A
:1011F00090421CBF824A90420BD0824A904208D053
:10120000814A904205D0814A90421CBF814A904257
:101210000AD141658165C1670122A06C206500206B
:10122000A16584F85420B0BD794A9042F1D0F2E72C
:10123000774A9042CAD0CBE750000240D00002402B
:1012400050010240D001024050020240D002024050
:1012500050100240D010024050110240D011024004
:1012600050120240D012024050000250D0000250F2
:1012700050010250D001025050020250D0020250E0
:1012800050100250D010025050110250D011025094
:1012900050120250D012025050B12DE9F04186B0E8
:1012A000154682B104464069012803D1042009E0B3
:1012B0000120704727682A460E463846FFF7A8F9EE
:1012C00020B105202061012003F070BD3846314671
:1012D0002A46FFF7ACF90028E8D10220924A207391
:1012E00000202061286A03F019FE61F39A624FB171
:1012F00096B11746CDF8048001AA03F0DCFD98B141
:101300000620DFE7DEB14FF6FC7026602840104370
:1013100046F82800022021E04FF6FC702560384096
:10132000104345F8280017E0A0680399814209D1CD
:10133000606858B14FF6FC710840384304E0012062
:1013400025600BE056F8280045F828004FF6FC70A1
:101350002840384346F82800A0680130A0600020EB
:1013600003F0BCFCB0E700BF90B189B1026D7AB167
:1013700010B590F8543090F85440022C18BF052B4B
:1013800008D1002180F84C1040218165012010BD5A
:10139000012070470B7B022B02D10120086110BD98
:1013A0000368154CA34211D0144CA3421CBF144C2B
:1013B000A3420BD0134CA34208D0134CA34205D038
:1013C000124CA3421CBF124CA3420BD14B68812A82
:1013D00003D123B14167002010BD002BFAD00420B7
:1013E0000861D3E70B4CA342F0D00B6893F8203090
:1013F0009B07EBD50320F3E750030240D0030240E4
:1014000050130240D013024050030250D003025048
:1014100050130250D01302502DE9F04186B078B13C
:10142000066804462EB1606828B1B04206D1002596
:1014300007E0022003E06069012805D10420206153
:101440000125284603F0B2BC0220002500212073AC
:101450002561376A07F0020000F105082046CDF843
:10146000048001AAFFF7FAF879082F4A4FF6FC70BA
:1014700061F35962304061F39A620499104403F0B9
:1014800036FBDEE7002847D0436F002B44D0016DC8
:10149000002941D010B590F8544002685169012CE0
:1014A00004D0022C3AD111F4803137D090F8541086
:1014B00001292BD190F84C400221012C30D003F0AF
:1014C00036FB012180F84C10516941F4BA41516159
:1014D000416E19B1516941F400715161006F18B149
:1014E000506940F40050506118684FF6FF710E4B80
:1014F00020EA010111604FF6FC710140006A4008CA
:1015000060F3596360F39A635818D06750690021FB
:1015100040F00100506103E0012103E003F01DFBF6
:10152000BDE8104008467047000001F8024601205F
:10153000AAB1CB0612D5136840F6FF7201F0110173
:1015400023EA020203F57B63C3F3C4139840112915
:1015500051680CBF084321EA00005060002070472A
:1015600010B5044600680C21024661F30B021168B5
:1015700000F57B62C2F3C412D140C90700F0A68017
:101580000169490509D54169490506D54FF48061CE
:10159000C160A16D41F00101A1650169090509D58D
:1015A0004169090506D54FF40061C160A16D41F0A4
:1015B0000201A1650169C90409D54169C90406D5BB
:1015C0004FF48051C160A16D41F00401A165016932
:1015D000490409D54169490406D54FF48041C160E9
:1015E000A16D41F00801A165016989050AD541692C
:1015F000890507D54FF40071C160616E11B12046B5
:10160000884720680169890427D54169890424D560
:101610004FF40051C16094F85410042915D1416968
:1016200021F400514161416941F002014161012110
:1016300084F8541094F85020120641BF626F117361
:10164000002181640020E16E39E0052184F8541006
:10165000216F11B12046884720680169C90520D54E
:101660004169C9051DD594F85010090604D4816C50
:1016700069B904F1540108E0C16F41B9816C31B915
:10168000012184F85410616F0C3101220A7000218D
:1016900084F84C104FF44071C160216E09B12046AE
:1016A0008847A06D90B12068416941F00201416115
:1016B00003F062F944BF616F08730020A16E84F8E3
:1016C0004C0019B12046BDE81040084710BD20B1BC
:1016D00070B5046D1CB1012070BD0120704790F8F9
:1016E0004C40012C01D1022070BD012480F84C40F7
:1016F00090F85440012C24D1022480F85440002456
:1017000084650468456EA66CC3EA0603A3644FF4BF
:10171000FE43E360E1642265616941F4BA416161BD
:101720001DB1616941F400716161006F18B16069B8
:1017300040F400506061606940F001006061002089
:1017400070BD002180F84C1040218165C3E7000086
:10175000B0B5044600F00AF90546BA48611C0078A5
:1017600018BF044400F002F9401BA042FAD3B0BDF8
:1017700010B101600020704701207047F8B50446A1
:10178000006801220E4F00F01F0102FA01F5082146
:1017900001EA503657F82600054204D047F8265093
:1017A000606800B18047381D50F82610294206D0E5
:1017B00040F82650A06810B1BDE8F8400047F8BDD9
:1017C0000C200244022903D0012903D031B9426020
:1017D000082100E00421425000207047012070479A
:1017E0002DE9FF4F584A4FF000084FF0000900263E
:1017F0004FF0000B029002EA9022009200F12002CA
:1018000001920B6833FA0BF508BFBDE8FF8F012288
:1018100002FA0BFE13EA0E0000F08780D1F804C034
:1018200003964CF01005122D13D108F01C050F2261
:1018300002FA05F46FF0030202EA5B07019AD3593A
:10184000A3430C6904F00F04AC402343D351D1F8F7
:1018500004C0029E03220CF0030A474602FA09F470
:1018600035680AFA09F3A5436FEA04082B43BCF173
:10187000120F336061D8012202FA0CF313F0061F35
:101880005BD0B368D1E9022403EA080304FA09F43F
:101890002343B3604FEA1C13746803FA0BF324EA82
:1018A0000E0423437360F46802FA09F304EA08049F
:1018B0002343F3605FEACC03B846039E35D506F0B8
:1018C00018030F222BF0030502FA03F41F4A1544F4
:1018D0002F6E27EA0404009F07FA03F323432B66C5
:1018E00013684D6843EA0004EF0258BF23EA00047E
:1018F0001460AF02536843EA000458BF23EA0004AF
:101900005460AF03D2F8843043EA000458BF23EA9E
:101910000004C2F88440ED03D2F8803043EA0004AA
:1019200058BF23EA0004C2F8804008F1040809F116
:10193000020908360BF1010B63E78A68BAF1030F5D
:1019400008BF012AAFD1B5E77F7F2F0000200244F6
:10195000426902EA0103914341EA03418161704710
:101960001823002A08BF2823C15070470548006883
:10197000704700BF3348034900780A681044086084
:10198000704700BF8808002080B5032000F098F859
:1019900001F040FF0A490B4A096801F00F01515C50
:1019A000C8402A490860042002F0E4FD0F2000F03E
:1019B0000BF808B1012080BD00F04AF8002080BD7E
:1019C000200C0244327F000870B51E4E0446307869
:1019D000C8B11D49096849070AD402F001FE02286E
:1019E00025D001281BD050BB30784FF4FA5101E0CC
:1019F0004FF47A71B1FBF0F014490968B1FBF0F0D3
:101A000002F0DEFD08B1012507E04FF0FF3021466E
:101A10000022002500F02EF87460284670BD307852
:101A20004FF47A71B1FBF0F04FF4FA41E6E7307809
:101A30004FF47A71B1FBF0F04FF40041DEE7002083
:101A4000DEE700BF0400002010E000E028000020D6
:101A500070470000002809D400F01F010122C0F3E4
:101A60004A1002FA01F1024A42F82010704700BF02
:101A700000E100E0F0B5184B4FF0FF361C68C4F3EE
:101A80000224E51E84F0070438BF002506FA05F796
:101A9000BA43042C28BF042406FA04F4A14300F03E
:101AA0000F04A940043C1143044A234409010244A1
:101AB000002848BF03F10C021170F0BD00E400E003
:101AC00005494FF6FF030A681A4060F30A220348EB
:101AD00010430860704700BF0CED00E00000FA05FD
:101AE00001684A6D42F001024A650122C0F8D8221D
:101AF000002280F8CC22486D40F0020048650020AA
:101B000070477047704770472DE9FE4F04460068E4
:101B100004F022F801041BD4410500F1A88241041D
:101B200000F1B582810400F1B682C10400F1CE82D9
:101B3000010500F1EA82010600F1F682810500F15B
:101B40000183C00540F1DF8220684FF6FF62D7E2D3
:101B500004F5277004F5AA7ADE4DDF4F4FF0000937
:101B6000019004F1140002902168486C000440F1D7
:101B7000CA824A6C12F00F0B30D051F82B805FEA0A
:101B8000084040F1DB8051F82B00284040F08000F5
:101B900041F82B000BEB8B000AEBC006307B0028D2
:101BA00067D0F07802286CD130785FEA484100F1C4
:101BB000908003F031FA0746B069C01B38BF484631
:101BC000B06101D803F090F95FEA486003D430783F
:101BD000216803F0BEF8002F5ED199E00868D206B4
:101BE0001ED4284040F400400860207D57F83000A3
:101BF000A16AC0F30940206308440021A062204686
:101C0000FFF780FF607C0028AED0E06A0028ABD1EF
:101C10002068617C41F08001C16484F81190A3E7E1
:101C200002053BD400049FD50868284040F080009E
:101C3000086094F8540103F0FFF90028C4F870011B
:101C400000F03481D4F8681100293FF48DAFB4F866
:101C50005A210346206803F081FFD4F86801D4F8C4
:101C6000701108440021C4F868012046FFF74BFFBB
:101C70007AE7307803F0E0F9002849D00746F28887
:101C800040E0307803F065F851F82010490434D46E
:101C900003F0C2F9E0B30746728933E094F85401C7
:101CA00003F0CAF90146C4F870012068082940F021
:101CB000F681B4F85A210199082303F04FFF2068F8
:101CC0000168294041F080010160204600F000FBDE
:101CD0004AE703F08FF90746B069C01B38BF484692
:101CE000B06101D803F000F95FEA486003D53078AD
:101CF000216803F02EF827B90AE003F07BF938B128
:101D000007463289716920683B4603F027FF00E0EF
:101D10000027D6E906013944F16110B13069B842B3
:101D200004D931782046FFF7EEFE06E070693146AF
:101D300038447061206803F0A7FD674F5FEA0860D0
:101D40007FF512AF206850F82B10294041F4004174
:101D500040F82B100BEB8B01029A02EBC106F178D5
:101D600001291AD1307BC6F81890002800F0C080F5
:101D700070785FEA486154D4012800F0A1800028FF
:101D800040F0B680307807EBC000416821F07C411C
:101D90004160416841F0004199E05FEAC85115D4C3
:101DA000317857F83120B369C2F309429B1A38BF22
:101DB0004B46B36140F29D807169F36911447161D2
:101DC0009918F161314603F05FFDCDE630785FEAA6
:101DD000486136D403F020F9B169091A38BF494681
:101DE000B16153D95FEA484101D403F02EF896F867
:101DF0002410012940F02E81D6E90431D6E907727A
:101E00000744F76101449A42716180F0A080002A82
:101E100000F0EC8000204FF00009134686F8240003
:101E200096E001285AD0002862D1307857F8301057
:101E300021F07C4147F8301057F8301041F0004154
:101E400054E003F0D7F8B169091A38BF4946B161C7
:101E500024D95FEA484101D502F0F7FF96F8241033
:101E6000012940F0F780D6E90471D6E9072302443E
:101E7000F2610144BB42716180F085800022002B39
:101E800086F8242040F0818003467FE07078317826
:101E9000012832D0A0BB02F0A2FD30E0707831788A
:101EA00001283AD0E0BB02F09AFD38E0216805F540
:101EB00040500A6810404BF280025040086053E6E0
:101EC000307807EBC000416889B2416041684160E9
:101ED0000EE000BF0F0FFF0700640140307857F895
:101EE000301089B247F8301057F8301047F83010EA
:101EF00031782046FFF706FE36E602F093FE426098
:101F0000F078022801D103F04FF82046FFF7FAFDE0
:101F10005FEA48403FF528AE0EE002F083FE4260E3
:101F2000F078022801D103F03FF82046FFF7EAFDE0
:101F30005FEA48407FF518AE307821684CF28003A4
:101F400051F820202A401A4341F820200CE6D01AEC
:101F5000306270788D4F012832D0002861D13078FE
:101F6000002B07EBC00050F8042F22F07C420260E7
:101F700040D03E2B46D803F00102076802EB530223
:101F800047EA82624BE0DA1B3B46326270787F4F51
:101F9000012820D0002858D1307857F8302022F07E
:101FA0007C4247F8302053B33E2B3CD857F83020C2
:101FB00003F0010707EB530742EA8762734F42E0E1
:101FC000307807EBC000426892B24260426842EA51
:101FD0000342426025E0307857F8302092B247F84B
:101FE000302057F8302042EA03422CE086F8249053
:101FF0000346AEE7026842F00042026011E057F883
:1020000030201EE0DA064FF0FF374FEA531208BFC8
:1020100007EB5312076847EA826242F0004202600F
:102020005A4F728912E0DA064FF0FF374FEA531227
:1020300008BF07EB5312554F57F8307047EA8262DA
:10204000524F42F0004247F83020328920689BB25C
:1020500003F0B2FD3078216805F1300351F82020FB
:102060001A4048F2B0035A4041F820207CE520682D
:102070004FF6FF32416C11404164204600F018F9E0
:102080002046002103B0BDE8F04F00F014B92068ED
:102090004BF6FF7234E020684DF6FF7230E005F534
:1020A00040510268114049F280025140016005F13F
:1020B00030010268114048F290025140016001680D
:1020C000294041F080010160BDE8FE8F2068016C6D
:1020D00021F004010164016C21F00801016494F80D
:1020E000CC02012806D10020002184F8CC02204631
:1020F000FFF707FD204600F0DCF820684EF6FF727F
:10210000416C11404164BDE8FE8F20684FF2FF72C0
:10211000016C41F008010164416C11404164016CA3
:1021200041F00401016408E020684FF67F72416CC1
:102130001140416494F8CC1279B12046BDE8FE4FBD
:1021400000F0C7B820684FF6FF52416C114041645F
:102150002046BDE8FE4F00F0ADB8016C41F004012F
:102160000164016C41F008010164012184F8CC1282
:102170003C21406D01EA90000121C4F8D0022046C4
:1021800003B0BDE8F04FFFF7BCBC00BF00640140E6
:1021900068B37CB5044690F8950228B9002084F80D
:1021A0009402204600F054F8032084F89502206839
:1021B00003F064FB94E80F00257C009503F034FBEA
:1021C00080BB20680021002503F0E2FC50BB207991
:1021D00001210022002398420BD0A6182832337523
:1021E000C6E90955F562F57571750133F3E701200C
:1021F000704704F5B6710022002398420BD001F815
:10220000183C41E902220A6001F8152C01F8172C4C
:1022100028310133F1E794E80F00257C009503F0A5
:102220001FFB20B1022084F8950201207CBD002014
:102230006074012084F89502207B012804BF2046A9
:10224000FFF74EFC206803F005FB00207CBD00007A
:1022500010B5B6B0044602A802F076FB2068124919
:1022600088421FD11020039000200290302033902C
:1022700002A800F09DFD08B1FEF748FA00F02AF828
:102280000A480022016841F0807101600021006865
:1022900000F08070019001984A20FFF7EBFB4A2084
:1022A000FFF7D8FB36B010BD00600140A40C02441B
:1022B00070477047704710B502F057FE04BF022008
:1022C00010BD617402F000FC03F070FC02F09ABDD6
:1022D000704770470248016841F000710160704723
:1022E0003808024470B52F494B6B8C6A8A6A8D6A34
:1022F0008E6BC2F3052272B102F043FE18D0022C9D
:102300000DD001EE103A0B689FED272A012C914C5D
:1023100002F09AFB16E00021C0E900113FE001EE57
:10232000103A9FED212A02F053FE9FED212A07E08B
:1023300001EE103A9FED1C2A02F04AFE9FED1B2A87
:1023400002F0FCFB0A6820EE010A920102D58A6ABB
:10235000D20301D4002206E04A6BB7EE002AC2F392
:10236000462202F013FB02600A68920102D58A6AD3
:10237000920301D4002206E04A6BB7EE002AC2F3B2
:10238000064202F003FB42600A68920102D58A6AA3
:10239000520301D4002102E0496B02F0CEFD8160BE
:1023A00070BD00BF000C02440000003920BCBE4BD1
:1023B0000024744A70B52F49CB6BCC6ACA6ACD6AC7
:1023C0000E6CC2F3052272B102F0DBFD18D0022CB4
:1023D0000DD001EE103A0B689FED272A012C5D4CC1
:1023E00002F032FB16E00021C0E900113FE001EEEF
:1023F000103A9FED212A02F0EBFD9FED212A07E024
:1024000001EE103A9FED1C2A02F0E2FD9FED1B2A1F
:1024100002F094FB0A6820EE010A120102D5CA6A92
:10242000D20301D4002206E0CA6BB7EE002AC2F341
:10243000462202F0ABFA02600A68120102D5CA6AAB
:10244000920301D4002206E0CA6BB7EE002AC2F361
:10245000064202F09BFA42600A68120102D5CA6A7B
:10246000520301D4002102E0C96B02F066FD8160D5
:1024700070BD00BF000C02440000003920BCBE4B00
:102480000024744A70B52F494B6C0C6B0A6B0D6BB2
:102490008E6CC2F3052272B102F073FD18D0022CCB
:1024A0000DD001EE103A0B689FED272A012C294C24
:1024B00002F0CAFA16E00021C0E900113FE001EE87
:1024C000103A9FED212A02F083FD9FED212A07E0BB
:1024D00001EE103A9FED1C2A02F07AFD9FED1B2AB7
:1024E00002F02CFB0A6820EE010A920002D50A6B6A
:1024F000D20301D4002206E04A6CB7EE002AC2F3F0
:10250000462202F043FA02600A68920002D50A6B82
:10251000920301D4002206E04A6CB7EE002AC2F30F
:10252000064202F033FA42600A68920002D50A6B52
:10253000520301D4002102E0496C02F0FEFC8160EC
:1025400070BD00BF000C02440000003920BCBE4B2F
:102550000024744A0090D003BFB5431E024661F1C7
:1025600000040020D3F1070570EB040480F09E8086
:1025700082F010030B4300F0D08182F020030B4364
:1025800000F09F8182F480530B4300F0488182F475
:1025900000530B4300F0768182F480430B4300F03C
:1025A000008382F400430B4300F0B28282F4803354
:1025B0000B4300F0CD8282F400330B4300F01F8107
:1025C00082F480230B4300F0088382F400130B4352
:1025D00000F04C8282F480030B4300F0CC8181F444
:1025E0008053134300F0CE8182F080630B4300F0F0
:1025F0002F8282F000630B4300F00A8282F0805346
:102600000B4300F0958282F000530B4300F0B6823A
:1026100082F080430B4300F05F8281F0020313439A
:1026200000F0478281F00403134300F01D8181F024
:102630000803134300F0FC8181F01003134300F002
:10264000B98181F40073134300F0CD8182F00072F0
:10265000114340F09583D549D1F8F00000F4407261
:10266000D1F8F000800703D5B2F5807F00F0ED814E
:10267000D1F8F000000103D5B2F5007F00F013831C
:10268000086880034FF0000040F17A83B2F5407F84
:1026900040F07683C86910F4785F00F0DD82C86985
:1026A000C349C0F30520B1FBF0F069E3DFE813F0A4
:1026B0000800840068035B006803680368032F0058
:1026C000BA48D0F8D81011F0070100F09B820268D8
:1026D000012903D112F0006240F0C0820268022991
:1026E00003D112F0005240F00F8203680268032900
:1026F00003D113F0020340F03683042903D112F40E
:10270000007240F03C8302F0F9F9052930E1A74856
:10271000D0F8D81011F4606100F06B820268B1F556
:10272000007F03D112F0006240F098820268B1F598
:10273000806F03D112F0005240F0E6810368026816
:10274000B1F5C06F03D113F0020340F00C83B1F573
:10275000006F03D112F4007240F0118302F0CEF941
:10276000B1F5206F04E19148D0F8D81011F4E07170
:1027700000F03F820268402903D112F0006240F06D
:102780006D820268802903D112F0005240F0BC81B2
:1027900003680268C02903D113F0020340F0E3820A
:1027A000B1F5807F03D112F4007240F0E88202F0AC
:1027B000A5F9B1F5A07FDBE07C48D0F8D81011F086
:1027C000380100F016820268082903D112F0006275
:1027D00040F04482102900F09781036802681829AC
:1027E00003D113F0020340F0BE82202903D112F47A
:1027F000007240F0C48202F081F92829B8E06B48E9
:10280000D0F8DC10C1F30221052900F22582DFE8AF
:1028100011F08B01FD01F4016F02620202026348B4
:10282000D0F8E01001F0E061B1F1007F00F06C81C0
:10283000B1F1807F00F01282002900F075810368F9
:102840000268B1F1407F03D113F0020340F08B82A4
:10285000B1F1806F03D112F4007240F0908202F067
:102860004DF9B1F1A06F83E05049D1F8E800096853
:10287000890300F4407040F1E981002840F0E681CE
:102880004B487DE24948D0F8E41001F44031B1F5FD
:10289000803F00F0B281002900F0AB81026800683F
:1028A000B1F5003F03D112F0020240F0118210F4A2
:1028B00000701CBF40F60010C0F23D00B1F5403F73
:1028C00046E23A48D0F8D81011F4603100F0918116
:1028D0000268B1F5004F03D112F0006240F0BE81F2
:1028E0000268B1F5803F03D112F0005240F00C8134
:1028F00003680268B1F5C03F03D113F0020340F052
:102900003282B1F5003F03D112F4007240F03782F9
:1029100002F0F4F8B1F5203F2AE02448D0F8D810AE
:1029200011F4E04100F065810268B1F5805F03D1E8
:1029300012F0006240F092810268B1F5005F03D1AD
:1029400012F0005240F0E08003680268B1F5405F89
:1029500003D113F0020340F00682B1F5804F03D19A
:1029600012F4007240F00B8202F0C8F8B1F5A04FEB
:1029700008BF900304E20D48D0F8E400400640F19F
:102980009A81A5E00949D1F8E40000F04062B2F173
:10299000806F00F03281002A00F0C68000200B68B2
:1029A000B2F1006F00F0E480EAE100BF000C0244E5
:1029B00040787D01CC48D0F8E41001F030011029B6
:1029C00000F079810268202903D112F0005240F012
:1029D0009B80006810F400501CBF46F60040C0F217
:1029E000DC203029B4E1C048D0F8E810D0F8F0205D
:1029F00001F00801920700D539B3002918BF4FF440
:102A0000FA41D0F8F00010F0006018BF0846B7E1B6
:102A1000B549D1F8E00000F00702042A00F21C8159
:102A2000B248DFE812F04801F300BA00AD011F011F
:102A3000AD48D0F8E810D0F8F02001F0C0019207BE
:102A400040F12B81002940F028814FF4004097E1AC
:102A5000A548D0F8E8100268920401F0300140F176
:102A60002581002940F02281CD4889E1CB48D0F86A
:102A7000E81001F0070102292AD0012900F05B814A
:102A800011B30268032903D112F400327FF4F8AEC7
:102A900002680068042903D112F0020240F0188194
:102AA00010F400701CBF40F60010C0F23D00052974
:102AB0004EE1BA48D0F8E41001F00301DFE811F06C
:102AC0000400FB000800AB00BDE8BF4000F06CBE96
:102AD00001A8FFF76FFC93E0B048D0F8E01011F4C4
:102AE000606100F08F800268B1F5007F03D112F0C1
:102AF000006240F0B3800268B1F5806F40F02B8136
:102B000012F0005200F0278101A8FFF7BBFCD5E0CE
:102B1000A248D0F8E41001F44011B1F5801F00F094
:102B20006C80002940F0CC80BDE8BF4000F064BE5E
:102B30009A49D1F8E000C0F3C202042A00F28C8066
:102B40009A48DFE812F0B80063002A001D018F00E8
:102B50009249D1F8E40000F04072B2F1807F4CD08D
:102B6000002A46D000200B68B2F1007F40F00881B7
:102B700013F0020200F004810868A9E08749D1F847
:102B8000E000C0F38212042A66D88848DFE812F019
:102B900093003E000500F8006A0001A8FFF772FCF0
:102BA00037E07E48D0F8E41001F44021B1F5802FE1
:102BB00023D0F1B102680068B1F5002F03D112F003
:102BC000020240F0858010F400701CBF40F6001037
:102BD000C0F23D00B1F5402FBAE07048D0F8DC10EB
:102BE000C1F30231052937D8DFE801F0031007826D
:102BF0007515BDE8BF4000F0EBBD01A8FFF742FC32
:102C00000398BDE0BDE8BF4000F0ECBD01A8FFF7B0
:102C1000D1FB0198B4E0D0F8E810036802689B0784
:102C200001F0404102D5002900F09D80920503D5B6
:102C3000B1F1804F00F0A3800022B1F1004F04BF3A
:102C400047F64002C0F27D12006823E0B0F5007F35
:102C500004D0B0F5807F2ED0002091E001A8FFF7CE
:102C6000A9FB2BE0D1F8E8000B680A689B0700F08D
:102C7000404001D5002876D0920502D5B0F1804FB2
:102C80007DD00022B0F1004F04BF47F64002C0F2F1
:102C90007D12086810F400304AE0D0F8F0201201EC
:102CA0002DD540292BD14FF4FA4069E002689201FA
:102CB0002ED510292CD101A8FFF714FB02985FE054
:102CC00002680068B1F5001F39D112F0020236D057
:102CD000C0F3C10049E0D0F8F0004FF4FA41000120
:102CE00001EAE0704CE000BF000C02440080BB0031
:102CF000D0F8F0004FF4004101EA803040E00022BB
:102D0000802908BF48F21202006810F400700FE03A
:102D1000D0F8F020920702D520293FF496AE002289
:102D2000302908BF4FF4FA42D0F8F00010F00060EC
:102D300018BF104624E0BDE8BF4000F06BBD10F4A2
:102D400000701CBF40F60010C0F23D00B1F5401FFE
:102D500018BF002014E003680268B1F5C06F08D105
:102D600013F0020305D0C2F3C1000F4921FA00F0AD
:102D700006E0B1F5006F05D112F4007202D00948E7
:102D800004B0B0BD006810F400301CBF47F640002E
:102D9000C0F27D10B1F5206FDAE700BF000C0244ED
:102DA000006CDC0200093D000090D0030080BB00F5
:102DB0002DE9F04704460068C1016849894608D5F5
:102DC000A16DD9F8C0204B4622F040421143C9F80A
:102DD000C010C00712D0E06D052800F2A183DFE823
:102DE00010F00600C4032200060006000600D9F811
:102DF000B0104A4621F0070101F03EFF002620787E
:102E0000800701D435461EE0206E4FEAF000052809
:102E100000F289833546DFE800F00D030A0D0D0D41
:102E200002F00FF805E001F0F9FE00F0A0BB01F0A0
:102E3000F5FE05462F463DB9206E01F0D5FE21F086
:102E4000380101F019FF37462078400719D5606E28
:102E50004FEAB010052800F26A83DFE800F00903AA
:102E60000609090901F0EDFF01E001F0D7FE054672
:102E70002E463DB9606E01F0B7FE21F4E07101F01D
:102E8000FBFE3E462078000719D5A06E4FEA702061
:102E9000052800F25083DFE800F00903060909095C
:102EA00001F0CFFF01E001F0B9FE05462F463DB924
:102EB000A06E01F099FE21F4606101F0DDFE37465D
:102EC0002078C00619D5E06E4FEA3030052800F2B0
:102ED0003683DFE800F009030609090901F0B1FFB4
:102EE00001E001F09BFE05462E463DB9E06E01F083
:102EF0007BFE21F4E04101F0BFFE3E4620788006D3
:102F000019D5206F4FEAF030052800F21C83DFE866
:102F100000F009030609090901F093FF01E001F03F
:102F20007DFE05462F463DB9206F01F05DFE21F480
:102F3000603101F0A1FE37466078C0061CD5606F95
:102F40004FEA3060052800F20183DFE800F00C034F
:102F5000090C0C0C01F075FF04E000BF280C0244C2
:102F600001F05CFE05462E463DB9606F01F048FE5B
:102F700021F0E06101F084FE3E466078800618D5BD
:102F8000A06F6FF0010101EB3041022908D34FEA35
:102F9000304028B1012840F0A88001F03FFE0546EE
:102FA0002F463DB9A06F01F00AFE21F4403101F037
:102FB0002CFE37466078400618D5E06F6FF00101AF
:102FC00001EBB041022908D34FEAB04028B10128F3
:102FD00040F08E8001F022FE05462E463DB9E06F9E
:102FE00001F0EDFD21F4402101F00FFE3E46607836
:102FF00000061AD5D4F880006FF0010101EB3051C2
:10300000022908D34FEA305028B1012840F07380DC
:1030100001F004FE05462F4645B9D4F8800001F0C2
:10302000CEFD21F4401101F0F0FD3746A078C00735
:1030300015D0D4F8840040B1B0F1007F05D0B0F1D4
:10304000807F4CD101F0EAFD05462E4645B9D4F803
:10305000840001F0B4FD21F0407101F0D6FD3E4640
:103060006079C00615D5D4F8880040B1B0F1006F82
:1030700005D0B0F1806F35D101F0D0FD05462F4667
:1030800045B9D4F8880001F09AFD21F0406101F0C3
:10309000BCFD3746D4E900010905C5498A460DD56E
:1030A000DAF80010534621F40041CAF80010D4F8B1
:1030B000C810DAF800201143CAF8001080032DD59B
:1030C000D4F88C004FEA3020052800F24282DFE875
:1030D00000F018031518181801F0B3FE10E00125D0
:1030E0000126BDE701250127D4E70125012761E776
:1030F000012501267BE70125012797E701F08EFDD9
:1031000005462E465DB9D4F88C00D9F8B4100025D8
:103110004A4621F4E0610843C9F8B4003E46A0786D
:1031200040071ED5D4F890004FEA3030052800F251
:103130001382DFE800F009030609090901F081FEA6
:1031400001E001F06BFD05462F465DB9D4F8900013
:10315000D9F8B41000254A4621F4E0410843C9F8E3
:10316000B4003746A078800614D5D4F8A00005280E
:1031700000F2F581022800F0528129465DB9D4F8A9
:10318000A000D9F8C01000254A4621F007010843E5
:10319000C9F8C0003946D4E90002920501D4884636
:1031A00014E0D4F8A42042F00803082B0BD1A84661
:1031B00065B9D9F8C0304D46002523F008031A43FD
:1031C000C9F8C020EBE701254FF00108800101D4C8
:1031D000404619E0794F5AF8070040F001004AF8DC
:1031E0000700FEF7C3FB064650465AF80700C00723
:1031F00007D1FEF7BBFB801B0228F5D9032503206E
:1032000002E0002D284651D021684A011ED5D4F88D
:1032100098206FF0010303EB3213022B0BD34FEA1C
:10322000321343B1012B3ED1D9F800304E4643F45E
:103230000033C9F800302E464DB9D9F8C0304D469C
:10324000002523F030031A43C9F8C020064648027F
:1032500001D4374617E0D4F89C00402803D080B949
:1032600001F034FE02E001F0ECFD05462F4655B9B1
:10327000D4F89C0001F0A3FC21F0400101F0C5FC52
:10328000E7E701250127E078000760D5D4F8AC0016
:10329000042800F2BB80DFE800F0034D4A505000E4
:1032A00001F014FE49E001250126D0E74846D9F88F
:1032B000C80010F4407019D0D4F8BC10884212D065
:1032C000D9F8C800D9F8C8104A4641F4803120F432
:1032D0004070C9F8C810D9F8C81021F48031C9F875
:1032E000C810C9F8C800C00740F04881D4F8BC0035
:1032F000DAF80020AB4900F4407322F47C5201EA72
:1033000010116FF31F30B3F5407F08BF0A43CAF8AE
:103310000020D9F8C81000254A4621F44071C9F8A8
:10332000C810D9F8C8100843C9F8C80050E701F020
:1033300075FC01E001F085FD05462E4645B9D4F83F
:10334000AC0001F05DFC21F0070101F099FC3E4664
:10335000E078C0061DD5D4F8B0004FEAF00004288C
:1033600057D8DFE800F00309060C0C0001F0AEFDB1
:1033700005E001F053FC01E001F063FD05462F4636
:1033800045B9D4F8B00001F03BFC21F0380101F060
:1033900077FC3746E078800625D5D4F8B4004FEAAC
:1033A000B010042838D80FF20C01D1E800F000BFAB
:1033B0001C0C0244090F0C12120000BF08FCFFFF96
:1033C00001F084FD05E001F029FC01E001F039FD88
:1033D00005462E4645B9D4F8B40001F011FC21F49D
:1033E000E07101F04DFC3E46E078400628D5D4F867
:1033F000B8004FEA7020052800F2B480DFE800F042
:1034000016031316161601F01CFD0EE00125012609
:103410009EE701250127BDE701250126E4E701F02C
:1034200010FD0546A9E601F0F9FB05462F4645B912
:10343000D4F8B80001F0E4FB21F4606101F020FC55
:1034400037462079800717D5D4F8A800032864D818
:10345000DFE800F00802050801F038FD02E001F0A5
:10346000F0FC05462E4645B9D4F8A80001F0A7FBAC
:1034700021F0030101F0C9FB3E46207940071BD52E
:10348000D4F8940058B1B0F5007F05D0B0F5807F36
:103490003ED101F01BFD02E001F0D3FC05462F46B2
:1034A0005DB9D4F89400D9F8C01000254A4621F43B
:1034B00040710843C9F8C00037462079C00617D5C7
:1034C000D4F8C400302809D0202804D0102822D1F4
:1034D00001F0FCFC02E001F0A1FB05464DB9D4F877
:1034E000C400D9F8BC104A4621F0300101F08DFB30
:1034F0003D462079000708D5D4F8C000D9F8C0109F
:1035000021F0C0010843C9F8C0002846BDE8F08793
:1035100001250127D1E70125EBE701250126ACE7CD
:103520000126FFF76CBC01250127FFF78DBC0125A3
:103530000126FFF7A7BC01250127FFF7C1BC012524
:103540000126FFF7DBBC01250127F5E40125012653
:1035500013E501250126E2E50125012702E6012503
:10356000012118E6012501276BE701F06AFC0646F8
:1035700000287FF444ACE06DFFF739BCFEF7F6F9A4
:10358000064641F2883703254846D9F8C800800727
:103590003FF5ACAEFEF7EAF9801BB8424FF00300EE
:1035A000F2D931E6CFFFFF002DE9F843002800F003
:1035B000AA807A4B04460D46186800F00F00884236
:1035C0000AD2186820F00F0028431860186800F02D
:1035D0000F00A84240F097802068714FC1060CD5BB
:1035E0007968702202EA11226169914205D97A68EC
:1035F00022F4E04242EA01217960010704D501F09A
:1036000095FC01D901F016FC994641070AD5E168FD
:103610007A6802F07002914281BF7A6822F07002EB
:103620001143796081070AD5A1687A6802F00F0218
:10363000914281BF7A6822F00F0211437960C0077E
:1036400053D1206881070AD5A1687A6802F00F0279
:1036500091423FBF7A6822F00F0211437960D9F896
:10366000001001F00F01A9420CD9D9F8001021F087
:103670000F012943C9F80010D9F8001001F00F011B
:10368000A94240D141070AD5E1687A6802F0700288
:1036900091423FBF7A6822F07002114379600107BE
:1036A00004D501F043FC01D201F0C4FBC0060CD5E7
:1036B0007868702101EA10216069884205D2796832
:1036C00021F4E04141EA0020786000F0A3F8796835
:1036D0003D4A01F00F01515CC8403C490860314847
:1036E0000068BDE8F843FEF76FB957F81C1C606826
:1036F00001280BD0022804D003284BD1890102D520
:1037000006E0890304D40120BDE8F8838905FAD5D1
:10371000396821F00301084301F035F90646606875
:1037200041F2883803282FD0022821D001280CD15B
:10373000386800F0180008283FF483AFFEF716F948
:10374000811B03204145F3D90AE0386810F0180FB7
:103750003FF477AFFEF70AF9811B03204145F4D906
:10376000BDE8F883FEF702F9811B03204145F7D835
:10377000386800F018001028F4D162E7FEF7F6F878
:10378000811B03204145EBD8386800F01800182849
:10379000F4D156E78907B6D5BAE700BF002002404A
:1037A0001C0C02440800002080B500F033F81749D3
:1037B000054A096801F00F01515C01F01F01C84082
:1037C0000249086080BD00BF327F00082800002049
:1037D00080B5FFF7E9FF0D490D4A0968C1F30211F1
:1037E00001F017BA80B5FFF7DFFF0849084A0968FA
:1037F000C1F3022101F00DBA80B5FFF7D5FF0349EF
:10380000034A0968C1F3023101F003BA200C0244F3
:10381000427F0008B0B53A49C86900F0180008288E
:1038200004BF3848B0BDC86910F0180F32D0C8695D
:1038300000F01800102804BF3348B0BDC86900F07C
:1038400018023248182A5AD18B6A8A6A8C6A8D6BA0
:10385000C2F305223AB3E406ED0803F0030305EAD8
:10386000E474032B6FF35F3400EE104AB8EE400AA5
:103870001BD0012B1CD10B689B0651BF9FED251A55
:103880000B68C3F3C103D84044BF01EE100AB8EE81
:10389000411A0FE0086880061C4830D50968C1F35A
:1038A000C101C840B0BD0020B0BD9FED191A01E0B4
:1038B0009FED191A486B9FED193A6FF35F2002EEE6
:1038C000100A486BC0F34620B8EE422A013000EEE1
:1038D000032AB7EE000A32EE000A02EE102AB8EE12
:1038E000422A81EE021A21EE000A01EE100AB8EE19
:1038F000411A80EE010ABCEEC00A10EE100AB0BDFB
:10390000000C024400093D0040787D010090D00386
:1039100020BCBE4B0024744C0024744A00000039C3
:1039200050B32DE9F843E14F0446F86900F0180858
:10393000DF488146006800F003062078C00628D5DD
:10394000B8F1080F1AD0B8F1180F08BF022E15D021
:103950003868E169002900F05F8140F4807001F06F
:1039600012F80546386880050CD4FDF7FFFF01F01A
:1039700067F8F7D9BDE8F88301207047E0690028AF
:1039800000F0D580206AB96921F47C1141EA004039
:10399000B8612078C00729D0B8F1100F22D0B8F153
:1039A000180F08BF032E1DD062683868002A20F463
:1039B000803100F09A81B2F5A81F40F4802300F016
:1039C0007981B2F5A02F00F07A81B2F5803F00F046
:1039D0007C813960386820F480203860386820F4B1
:1039E000801074E16068002800F0A18020788007D2
:1039F0004DD5B8F1000F1DD0E068B8F1180F08BF21
:103A0000012E2FD03968002800F03181206921F083
:103A1000180108433860386840F0010000F0B3FF37
:103A20000546386880072BD4FDF7A0FF01F008F8A1
:103A3000F7D99FE7E068002879D02069396801F05C
:103A40001801814210D0396821F01801084338600C
:103A5000FFF7AAFEDFF800040068FDF7B5FF0028B5
:103A600065D101E0002862D0FDF780FF0546386887
:103A7000800705D4FDF77AFF401B0228F7D96FE0D5
:103A80006069396921F4FE0141EA0040386120781B
:103A900000074FD42078400765D42078800600F1D5
:103AA0009580A66A002E00F0D381B8F1180F40F07F
:103AB000C2804846D9F80010012ED9F80C0036D043
:103AC000E26A01F00303934231D1C1F30521226B75
:103AD00091422CD10146626B6FF35F21013A914212
:103AE00025D1A26BC0F34621013A91421FD1E26B6E
:103AF000C0F30641013A914219D1216CC0F306602E
:103B00000139884213D1E06CD9F81010C1F3CC010F
:103B1000814200F09D8101F0D2F9FDF727FF0546B3
:103B2000FDF724FFA842FBD001F0DCF88EE1012074
:103B3000BDE8F883D9F8C800A1694E46002958D0DD
:103B400040F08060C6F8C800FDF710FF0546D6F8C3
:103B5000C80000019ED4FDF709FF401B0228F6D9DA
:103B60000320BDE8F883BD4EB859C0070FD1B8593E
:103B700040F00100B851FDF7F9FE0546B859C007FD
:103B800005D1FDF7F3FE00F05BFFF7D9F2E6A2687E
:103B9000D9F8C8004D46002A20F0010100F0E0806D
:103BA000852A40F0040300F0B680052A00F0BA80B0
:103BB000012A00F0BF80C5F8C810D5F8C80020F071
:103BC000040001F0F6F820F08000B5E03868616A82
:103BD00000295BD040F4805000F0D5FE05463868DF
:103BE00080043FF55EAFFDF7C1FE00F029FFF6D976
:103BF000C0E620F08060C6F8C800FDF7B7FE0546B5
:103C00004846D9F8C80000017FF544AFFDF7AEFE85
:103C100000F016FFF4D9ADE620F4807000F0B3FE9A
:103C20000546386880057FF5B4AEFDF79FFE00F0CD
:103C300007FFF6D99EE6386820F0807000F0A3FEFA
:103C40000546022E09D13868800140F1A780FDF7B2
:103C50008DFE00F0F5FEF6D98CE63868800140F163
:103C6000F180FDF783FE00F0EBFEF6D982E621F04D
:103C7000010000F088FE0546386880077FF507AF31
:103C8000FDF774FE00F0DCFEF6D973E620F48050F8
:103C900000F079FE0546386880047FF502AFFDF735
:103CA00065FE00F0CDFEF6D964E600BF000C0244CC
:103CB000280C02443B60386840F4801003E03B600D
:103CC000386820F480103860386840F4803000F0A4
:103CD0005AFE0546386880033FF588AEFDF746FE7C
:103CE000411B03206429F5D944E63960386820F483
:103CF00080103860386820F4802000F044FE0546CB
:103D0000386880037FF572AEFDF730FE411B03205B
:103D10006429F5D92EE6C5F8C830D5F8C80040F0BA
:103D2000800005E0C5F8C830D5F8C80020F0800054
:103D300001F03FF840F00100C5F8C800FDF716FE9D
:103D4000054641F288364846D9F8C80080073FF555
:103D5000A4AEFDF70BFE411B0320B142F3D909E6E7
:103D6000C5F8C810D5F8C80020F0800001F021F88F
:103D700020F00400C5F8C800FDF7F8FD054641F243
:103D800088364846D9F8C80080077FF586AEFDF72B
:103D9000EDFD411B0320B142F3D9EBE5D9F800005A
:103DA00043F6037104F12C0588432ECD0843591EB8
:103DB00040EA02206FF35F214FF4FE02C9F80000D1
:103DC0004FF47E4000EB452080B20844E16B02EBEB
:103DD00001414FF0FE4201F4FE010844216C02EB68
:103DE000016101F0FE410844C9F80C0001F067F8D8
:103DF00000F078FFC9F80000606CD9F8001021F0DD
:103E00000C010843C9F80000D9F80000A16C20F0AB
:103E100020000843C9F80000D9F8000040F48030C1
:103E2000C9F80000386840F0807000F0ACFD04462E
:103E3000386880010CD4FDF799FD011B032002298D
:103E4000F6D997E5D9F8000005490840C9F80000FF
:103E50000020BDE8F88300BF0800002024FCFFFF1D
:103E6000FCFFF8FF70B12DE9F843044600205A4AE0
:103E7000A062206840F08051914205D1E1680F298D
:103E800003D927E001207047E168E26B0123083184
:103E900003EB5212C9085143504A904204D0ED4AF4
:103EA00002F58832904201D1082913D8E44A9042A1
:103EB0000ED0E44A90420BD0E34A90421CBFE34A42
:103EC000904205D0E24A90421CBFE24A904204D19F
:103ED000102902D90120BDE8F88394F8890028B997
:103EE000002084F88800204600F07AF8022084F848
:103EF0008900D4E90009D4F818800368B8F1806F0C
:103F000023F001030360836803F4F81C10D1B9F1B6
:103F1000000F05D0B9F5800F0AD1A56B75B903E084
:103F2000A56BB5F1805F06D1056845F48055056045
:103F30005FEA492502D44FF0010E0DE0E668072E36
:103F400008D3256D07684FF0000E27F480773D43B6
:103F5000056006E04FF0000E066826F480760660E5
:103F6000E668E269A16AA768D4E9043542EA0C026E
:103F70001143E26B114331438160616A626B11430B
:103F8000A26B1143226A1943294304F158051143D6
:103F9000D4E912321143394319432CCD114319434B
:103FA000294341EA0801BEF1000F41EA0901C1605D
:103FB000016D21F00101016505D1616DC26822F03A
:103FC00000421143C16000200121C4F88C0084F834
:103FD0008910BDE8F88300BF004C0150004C01403F
:103FE00010B5BCB0044637A81421FCF79BF902A811
:103FF00000F0AAFC20689449884224D100244FF0A4
:1040000000600394029002A8FEF7D2FE08B1FCF70C
:104010007DFB0E48816941F480518161816901F421
:1040200080510191019900F000FD01900520CDE93A
:1040300039443B9002203890E0203790019837A90E
:104040000348FDF7CDFB3CB010BD00BF8C0C024413
:10405000000002422DE9F047D0F800901D461746B7
:104060000E460446FDF782FC00F00EFE04D136B188
:104070002FB100F0FDFD05D10220BDE8F087012041
:10408000BDE8F0870320012100F028FFA4F86A7042
:1040900084F88810A4F868706666A4F87000E0667A
:1040A000C4E91E00A4F87200A2682068B2F5C02F0F
:1040B00004D1016841F40061016003E0C26861F36A
:1040C0005242C26041684FF6FF72914339444160E9
:1040D00000F07AFD02BF016841F400710160E168FF
:1040E00010292BD3564988420CD05649884209D012
:1040F0005549884206D0554988421CBF54498842D8
:1041000040F099806E1CB4F86A0000287DD02068C9
:104110004169890708D4FDF729FC002EF3D0A0EBF4
:104120000800A842EFD380E0616E04C902626166B4
:10413000B4F86A000138A4F86A00E4E707292AD92C
:1041400000F0BAFDB4F86A0000285ED02168486922
:10415000800708D4FDF70AFC002EF3D0A0EB08007E
:10416000A842EFD361E0B4F86A00012806D9E26BF7
:10417000606E22B104C80A62514605E0606E30F8F4
:10418000021BA9F8201039466066B4F86A0008449A
:10419000A4F86A00D6E700F08FFDB4F86A00A0B377
:1041A00020684169890708D4FDF7E0FB002EF4D0B0
:1041B000A0EB0800A842F0D337E0B4F86A10042955
:1041C00024BFE16B412914D2B4F86A10012908D93F
:1041D000E26B616E32B131F8020BA9F82000504653
:1041E0000CE0616E097880F82010606E411C384642
:1041F00004E0616E04C902624FF6FC706166B4F8B7
:104200006A100844A4F86A00C7E7204629464246D7
:1042100000F0ECFF08B100F0ECFC00F0C2FE00F092
:104220008EFD18BF0120BDE8F08700F0BAFE00F057
:1042300022FCBDE8F087CD4988423FF463AF7FE7B9
:1042400000380040003C0040003001400038005081
:1042500000300150003C00502DE9F04F85B0D0F8FF
:104260000090D0F83CA01E4615460F460446FDF7C8
:104270007DFB00F009FD05D137B12DB126B100F06D
:10428000F7FC05D1022000E0012005B0BDE8F08F69
:10429000052001214FF0100B00F020FEA4F8726001
:1042A000A4F86A60C4E91E0084F88810E566A4F8E2
:1042B00070606766A4F868602068C16821F4C02156
:1042C000C160A649884210D0A54A90420DD0A54AA7
:1042D00090420AD0A44A90421CBFA44A904204D003
:1042E000A34A904218BF4FF0080B43684FF6FF7582
:1042F0000122AB4302EB5A1233444360036843F09C
:10430000010303606368B3F5800F02BF036843F4E1
:1043100000730360E368102B52D388420CD090499D
:10432000884209D08F49884206D08F4988421CBFF5
:104330008F49884240F00C814FEA9B0097B2354686
:1043400004900E9800F1010B1FFA85F94FEA054A17
:1043500046EA0500000400F0E78000F02AFC18BFE0
:1043600011F0020109D0049911FA86F1494504D9E6
:10437000616E04C9026200F0C7FB4169BAF1000F27
:104380001CD04269D2070CD1B94501D2090408D426
:10439000FDF7ECFABBF1000FDAD000F09AFCD7D3AE
:1043A000D1E0016BE06E01600430B4F872100139A5
:1043B000A4F87210E066B4F87250C5E70025C3E7B0
:1043C000072B5DD94FEA5B0097B2B34603906FF0BD
:1043D0000300811C033002900E980191013004907B
:1043E0001FFA8BF54FEA0B4A46EA0B00000400F077
:1043F0009B8000F0DEFB18BF11F002010BD0039987
:1044000011FA86F1A94206D9616E31F8022BA9F89A
:10441000202000F079FB4169BAF1000F1AD0406901
:10442000C00710D1BD4201D2080416D4012D01D11C
:10443000880408D4FDF79AFA04990029D4D000F032
:1044400048FCD1D37FE0B9F83010E06E20F8021BB1
:1044500002990CE04FF0000BC2E7B9F83010E06EA3
:1044600020F8041BB9F8301020F8021C0199B4F8A8
:1044700072201144A4F87210E066B4F872B0AFE78D
:104480006FF0030097B23546033004901FFA85FAA7
:104490004FEA054946EA0500000445D000F089FBD3
:1044A00018BF11F0020112D01BFA86F151450ED946
:1044B000616E097880F82010B4F86A000138A4F819
:1044C0006A00616E206801316166B4F86A60416912
:1044D000B9F1000F19D04269D20712D1BA4501D201
:1044E0000A0414D4BAF1030F02D811F4C04F08D152
:1044F000FDF73CFA0E990131CCD000F0EAFBC9D3AC
:1045000021E000F06CFB049803E00025BEE700F01A
:104510004AFAB4F872100844A4F87200E06E013050
:10452000E066B4F87250B1E720460E99424600F0BA
:104530005DFE08B100F05DFB00F033FD00F0FFFB15
:1045400018BF0120A1E600F02CFD00F094FA9CE6D3
:10455000064988423FF4F0AE34E700BF003800401F
:10456000003C00400030014000380050003C00504A
:1045700000300150042821D8DFE800F003100D209E
:104580001B002048016821F0040101601E480168F9
:1045900021F00C0111E01B48022201E01948012220
:1045A000016821F0040101601748016862F383018A
:1045B00003E01448016841F004010160704700BF46
:1045C000411E0020B0EB116F1CBF012070470D4A47
:1045D00051609060116841F003011160704700BFA5
:1045E00008480068400744BF042070470648006838
:1045F00000F00C01081FB0FA80F04009082908BF3C
:104600000220704710E000E0E40C024490F83C30D7
:104610000222012B41D070B580F83D20674C026822
:1046200055689368A24208D0654EB24205D06C4EE0
:10463000B24202D0684EB24203D125F470054E68F2
:104640003543224E35400E683543B2F1804F5560F8
:1046500016D0564DAA4213D0554DAA4210D0554DF2
:10466000AA420DD0544DAA4218BFA24208D0544CC1
:10467000A24205D0534CA24218BFB2F1A04F0ED1B6
:1046800023F080038968194391600022012180F89A
:104690003C2080F83D10BDE87040104670474A4C01
:1046A000A242EDD0494CA242EAD0494CA242E7D006
:1046B000484CA242E4D0484CA242E1D0474CA2422E
:1046C000DED0474CA242DBD0DFE700BF8FFFFFFD0B
:1046D00058B110B500F0DEFB03D100F0E8FA00F0AD
:1046E00007F800F03BFC00F0D4B90120704700004F
:1046F00000680849884200D0704781B006480168C8
:1047000041F010010160006800F010000090009876
:1047100001B07047001000409C0C024490F83D101E
:10472000012929D1022180F83D100168B1F1804FA3
:1047300017D01E48814214D01D48814211D01D4817
:1047400081420ED01C4881420BD01C48814208D0C7
:104750001B48814205D01B48814218BFB1F1A04FD0
:104760000CD188681F4A734600F060FB9E4618BF54
:10477000B2F5803F17D1704701207047124881423F
:10478000EFD012488142ECD011488142E9D0114863
:104790008142E6D010488142E3D010488142E0D007
:1047A0000F488142DDD000F07ABB00BF000400401A
:1047B00000080040000C004000180040002C0140A0
:1047C0000034014000400140000400500008005047
:1047D000000C005000180050002C01500040015007
:1047E000003401500700010010B568B10446D0F84C
:1047F000880008B900F08CFB00F0B4FA01D000F09A
:10480000CFFA00F0D0FA08B1012010BD00F0C1FAD3
:1048100021F02A01816000F09AF9BDE8104000F013
:1048200097BE70472DE9F8430446D0F88800202849
:104830001CBF0220BDE8F8838846E1B31746D2B317
:1048400020681D468168090642BF816821F0800109
:1048500081600020C4F890002120C4F88800FDF792
:1048600085F8A4F856700646A4F85470A068B0F510
:10487000805F04BF2069002832D04FF0000947460E
:10488000B4F85600D0B12046802100F07DFA08BB74
:1048900027B117F8010B2168886206E039F8021B7E
:1048A000206800276FF35F218162B4F85600013859
:1048B000A4F85600E4E70120BDE8F8832046402133
:1048C00000F062FA2021C4F88810002818BF0320E5
:1048D000BDE8F8832020C4F888000320BDE8F883F1
:1048E0000027C146CCE7FEE710B5C1F30453C1F37E
:1048F0004061072400EB81009C409A404169A1433C
:104900001143416110BD00000C224261002242624D
:104910004FF40042C261074A12680260D1E90023E5
:1049200042604A8902610A8989898360C260816123
:10493000FFF75ABF24000020FEE7FEE720464FF4B1
:1049400000710122FDF70CB8C8210830FBF7EABC62
:10495000016841F001010160016801F0010101916C
:1049600001997047A06D40F01000A065E06D40F027
:104970000100E06501207047012084F8540094F89C
:104980005010090670473860FCF7F0BF01EE102A9E
:10499000B8EE411A31EE021A80EE011ABCEEC11ACD
:1049A00011EE102A704790F83000E16E0870E16E49
:1049B00020684A1CE26690F830004870E16E20687A
:1049C0004A1CE26690F830004870E16E20684A1C8C
:1049D000E26690F8300048704FF6FC70704757F868
:1049E000310020F07C4047F8310057F8310040F0AA
:1049F000004047F8310007EBC100426822F07C42DA
:104A00004260426842F000427047016400207047F3
:104A100000F0FE002070207800F0FB00207070474E
:104A2000BFF34F8FBFF36F8F7047016841F00101F3
:104A30000160006800F0010070476FF001007047EE
:104A4000411B032002297047C3F3C103B8EE411A8A
:104A500024FA03F300EE021AB7EE000A02EE102A5F
:104A600031EE000A01EE103AB8EE422AB8EE411AD1
:104A700081EE021A7047D4F88C0040F48070C4F8BC
:104A80008C00002084F88800012084F8890003202D
:104A90007047012084F8480084F83E0084F83F0005
:104AA00084F8400084F8410084F8420084F8430010
:104AB00084F8440084F8450084F8460084F84700F0
:104AC00084F83D00002010BD012084F89402206885
:104AD000704701F00F0004EB400000EBD11414F814
:104AE000330FC0077047002084F85400704741F826
:104AF000280001202561666020737047D0F8F0001F
:104B000000F0020200207047B4F86A20013AA4F8CD
:104B10006A206166B4F86A607047016851E8001F56
:104B2000026821F4907142E80013002B704780F86E
:104B300054101973002181651961704731EE001A14
:104B400000EE102AB8EE400A82EE000A70470168B3
:104B500041F00101016020467047002180F84C10AF
:104B60004021816501217047F06A20F01000F06259
:104B7000306C8843216A40EAC1003064F06A40F03A
:104B80001000F06270470068B0FBF1F0022101EB09
:104B900040007047306B20F010003063B06C8843E9
:104BA000216A40EAC100B064306B40F0100030630D
:104BB000704720684FF6FF72416916427047D9F876
:104BC000BC1000254A467047016841F001010160B0
:104BD0006168B1F5800F70473060FCF7C7BE90F890
:104BE0003000E16E08707047D9F8B01000254A46D1
:104BF0007047D4F88C0040F02000C4F88C00704757
:104C0000D9F8B81000254A4670470843C9F8BC00D7
:104C10007047515C01F01F01C84080BD04F13000B5
:104C200000F056BA57F8310080B247F8310057F813
:104C3000310047F8310007EBC100426892B2426090
:104C40004268704768692A69002347468119286AC3
:104C500069619042704741E80002002A704704F001
:104C60000F0001EB400000EBD41090F833107047B8
:104C700094F88800012870470843C9F8B0007047CD
:104C80000843C9F8B8007047804694F889000128A5
:104C90007047A069F16A21F00C010843F062704787
:104CA000A069316B21F00C0108433063704700208C
:104CB00084F83C00204670474FF6FC706E1C00F1F3
:104CC000020AC71C704700222B460090204600F0C5
:104CD00067BDA0EB08000E99884270470121206152
:104CE00021737047E06CC000C9F81000D9F80000CB
:104CF00040F010007047F06A43F60371884394E86F
:104D00002E000843591E40EA02206FF35F214FF442
:104D1000FE02F0624FF47E4000EB452080B2084472
:104D2000216902EB01414FF0FE4201F4FE0108440B
:104D3000616902EB016101F0FE4108447047012006
:104D400084F88900002084F88800D4F88C000028BA
:104D5000704748F2C00351F820202A401A4341F816
:104D6000202070472420C4F888002068A16A0268C7
:104D7000002922F0010202607047626A616833F81C
:104D80001220B0FBF2F0704700223346009500F08D
:104D900007BD2068416821F49041416081687047F7
:104DA000204600F081BB204600F03ABC06B0BDE8CA
:104DB000F081C5F8C800D5F8C8007047306B43F6DD
:104DC0000371884394E82E000843591E40EA0220EC
:104DD0006FF35F214FF4FE0230634FF47E4000EB2F
:104DE000452080B20844216902EB01414FF0FE42A8
:104DF00001F4FE010844616902EB016101F0FE412A
:104E000008447047002084F8940210BDDC1C4FF069
:104E1000FF3513F003004FEA94037047069D0078B6
:104E2000267846F001062670009570470240002063
:104E3000062A70477A6822F4E06242EA011179603A
:104E4000704704F1080000F00BB931782268AC46D5
:104E500052F821302B404CF280052B43654642F836
:104E60002130704749F8301069692A8900F0A4BEE2
:104E7000206850E8020F216820F0010041E802029A
:104E8000002A704700F00F0098F801104044C07CE1
:104E900081427047044690F83D000028704708683A
:104EA00040F00100086000207047D5F8081321F099
:104EB000E0710843704720463146FBF7CFBBD9F875
:104EC000000020F01000C9F800007047D9F8000079
:104ED000494640F40030C9F80000704784F8890062
:104EE0000020C4F88C0070473078216805F54053E5
:104EF00051F820201A404AF280035A4041F82020FD
:104F00007047426892B24260426811434160704704
:104F1000002084F884002046FFF783BC410800F09D
:104F2000020061F3596200F1050870477968702248
:104F300002EA1112216991427047B7EE002AC1F3CB
:104F4000066101EE101AB8EE411A31EE021A80EE37
:104F5000010ABCEEC00A10EE101A70470220211D93
:104F600084F83D00206800F0F9B9044690F89402F6
:104F7000012870474A6892B24A604A681043486004
:104F80007047ED06F60804F003046FF35F2306EAAA
:104F9000E575032C6FF35F3500EE105AB8EE400A4A
:104FA0007047204600F0CCB8206805F1300350F877
:104FB00021201A4048F2A0035A4040F821207047AF
:104FC0008168826801F0040102F0080289187047C4
:104FD000B8EE411A00EE021AB7EE000A70470168F7
:104FE00051E8001F026821F0100142E80013002B75
:104FF0007047000081B00A210091009911B1009919
:105000000139F9E7034951F83000C0F3094001B014
:10501000704700BF0064014081B00A2100910099EF
:1050200011B100990139F9E70B4951F83000C0F38B
:10503000094001B0704700BF81B00A21009100997A
:1050400011B100990139F9E7034951F83000C0F373
:10505000094001B0704700BF046401407047000080
:1050600070B5B84E0446306820F08060FFF7B4FD9C
:1050700005463068000105D5FCF778FC401B022886
:10508000F7D922E0FFF737FEF063FFF702FEE06991
:10509000F16A21F020010843F062606AF16A084376
:1050A0004FF6F871F062FFF75FFD306840F0806006
:1050B000FFF792FD04463068000144BF002070BD38
:1050C000FCF754FC001B0328F5D3032070BD00BF80
:1050D00070B59C4E0446306820F08050FFF77CFD90
:1050E00005463068800005D5FCF740FC401B0228CF
:1050F000F7D922E0FFF762FE7064FFF7D1FDE069A7
:10510000316B21F0200108433063606A316B084342
:105110004FF6F8713063FFF73DFD306840F0805086
:10512000FFF75AFD04463068800044BF002070BD80
:10513000FCF71CFC001B0328F5D3032070BD00BF47
:1051400010B5016840F26F344A698B6943F0080377
:105150008B618B6943F010038B610B6823F00103B3
:105160000B600B69A3430B618B6823F440438B6096
:1051700090F88930042B0BD0930609D5D0F88C30E9
:1051800043F08003C0F88C308B6943F020038B61BF
:1051900090F88930032B0BD0530609D5D0F88C300A
:1051A00043F00403C0F88C308B6943F040038B61FB
:1051B000930509D5D0F88C3043F00103C0F88C304A
:1051C0008B6943F400738B61D20509D5D0F88C202C
:1051D00042F00802C0F88C208A6942F480728A6129
:1051E0000021A0F86A10A0F8721010BDF8B514469E
:1051F0000D4606464F1C30684069000744BF00203A
:10520000F8BDFCF7B3FB002FF5D0001BA84224BF6C
:105210000320F8BDEFE77047FCF7ACBB10B59CB0BE
:1052200008A85021FBF77EF802AC18212046FBF7B6
:1052300079F82248016821F030010160016801F02D
:1052400030010191019941680907FCD54FF4805064
:105250003222012111904020089200220B910D90E2
:1052600008201B92CDE919020C9002200322CDE9FF
:10527000160220221890CDE912004FF48070CDE97B
:10528000141210920F9008A8FEF74AFB08B172B6EC
:10529000FEE71F2014210290201DFBF743F8204653
:1052A0000121FEF781F908B172B6FEE704480168F2
:1052B00021F0300101601CB010BD00BF1008024495
:1052C0000020024010B51E4801221F4CD0F880106B
:1052D00041F47001C0F880101A490A600022CA61C6
:1052E0000A620B6823400B60184B8A62CA620A6329
:1052F0004B638A63CB630A644B648A640B6823F450
:1053000080230B600A654FF0006101601048C1689E
:105310004A0F062A04D801F06041B1F1404F0ED186
:105320000169C9071FBF0B4901600B490160016991
:1053300041F002010161016941F00101016110BD0B
:1053400008ED00E0000C0244E3EAE2EA8002010119
:105350000C2002403B2A19087F6E5D4C70B5444A10
:105360000368904243D0B0F1804F0ED0414CA04230
:105370000BD0414CA04208D0404CA04205D0404C3C
:10538000A04218BFB0F1A04F5CD123F070034C686D
:105390002343B0F1804F1CBF364CA0422BD0364C7B
:1053A000A04228D0354CA04225D03B4CA04222D070
:1053B000334CA0421FD0394CA04218BFB0F1A04FCF
:1053C00019D0304CA0421CBF2F4CA04213D02F4C00
:1053D000A04210D0324CA0420DD02E4CA0421CBF97
:1053E000304CA04207D02A4CA04204D007E023F062
:1053F00070034C682343CC6823F4407323434E6905
:1054000023F080030C688D6833430360C5628462B7
:1054100090421CBF1A4A904208D0204A904205D0C0
:105420001C4A90421CBF1F4A90421CD1096901636B
:10543000012141610169C9071EBF016921F0010114
:10544000016170BD0F4CA0429FD00F4CA0429CD078
:105450000E4CA04299D00E4CA04296D00D4CA042CA
:105460003FF493AF95E70A4A9042DFD0E0E700BFF0
:10547000002C01400004004000080040000C0040E7
:10548000003401400004005000080050000C00509F
:1054900000340150002C0150001800400040014031
:1054A000001800500040015010B5816A0A0706D567
:1054B0000268836B546824F4004423435360CA0792
:1054C00006D00268C36A546824F40034234353604E
:1054D0008A0706D50268036B546824F4803423439A
:1054E00053604A0706D50268436B546824F480244D
:1054F00023435360CA0606D50268C36B946824F43C
:105500008054234393608A0606D50268036C94682E
:1055100024F40054234393604A060FD50268436C79
:10552000546824F480141C43B3F5801F546005D1E3
:10553000836C546824F4C00423435360090606D5E1
:105540000168C06C4A6822F400221043486010BD14
:10555000BCB504460020C4F89000FCF707FA0546E5
:1055600020680168090714D56FF07E404FF40011E0
:10557000FFF7A9FB60B1206850E8000F216820F018
:105580008000FFF768FBF6D103202021882223E06A
:1055900020680068400716D56FF07E404FF4800108
:1055A000FFF791FB78B1206850E8000F216820F4E4
:1055B0009070FFF750FBF6D1FFF75AFCFCD10320A7
:1055C00020218C2208E0202000217022C4F88800CD
:1055D000C4F88C00E1660020A150002184F88410FA
:1055E000BCBD000010B5FFF798FAFCD10B4902686A
:1055F00052E8022F03680A4043E80224002CF6D147
:10560000C16E012902D1FFF7EAFCFCD12021C0F8CC
:105610008C1000214167C16610BD00BFFEFFFFEF87
:1056200070B504460068524E04F108030ECB0568BD
:1056300035401943666940F0805331434E4E29434B
:10564000E56929430160416821F4405111434160FB
:105650004849A2698B421CBF236A1A4383683340BE
:105660001A438260626AC36A23F00F031A438842B6
:10567000C26251D0414988421BD0414988421CD066
:105680004049884217D0404988420BD03F49884260
:105690000DD03F49884207D03E49884214BF0020C0
:1056A00002200BE0202009E04FF4805035E001207B
:1056B00004E0042002E0102000E008200021FCF7B4
:1056C0004BFFB5F5004F15D120B3334BFFF755FB1A
:1056D0004A0802EB40004FF6EF72B0FBF1F0A0F188
:1056E000100191423AD84FF6F0710140C0F34200E8
:1056F00008440DE070B1284BFFF73FFB4FF6EF7207
:1057000000EB5100B0FBF1F0A0F11001914225D85F
:105710002168C860002522E0002000210025FCF758
:105720001BFFE0B11C4B616A626833F81110B0FBDB
:10573000F1F002EB4201884210D3B0EB023F0DD8EA
:10574000010E000210EB520041F100010023FAF7B4
:105750009FFDA0F54071114A9142D9D30125002047
:10576000C4E91D004FF00110A066284670BD00BFBF
:10577000F369FFCF00240054FFF4FF1100480040FC
:10578000004C0040005000400064004000380140E0
:1057900000240044004400404A7F000800FD0F0040
:1057A0002DE9F047DDF820908246984616460F46D0
:1057B0000068032509F10104C1693940C91BB1FA28
:1057C00081F14909B1421ED1002CF5D0FCF7CEF889
:1057D000A0EB0800484517D8B9F1000F14D0DAF84B
:1057E000000001684907E7D5402F18BF802FE3D09C
:1057F000C16909070BD4C1690905DDD5032520243A
:105800004FF4006106E000252846BDE8F087012539
:105810000821082401625046FFF7E4FE00208AF8C0
:105820008400CAF89040EFE750B1016C21F00041CC
:105830000164016C41F0010101640021416400E058
:1058400001210846704700000148FCF75DB900BF20
:10585000C4040020816D21F400418165002070475F
:1058600001210164016C21F001010164016C21F04E
:10587000004101640021416400207047016C4BF637
:1058800080729143FFF7C1B82DE9F8430446487888
:105890000D46012857D1AE692969AE4FEA4A8E42BA
:1058A00028BF0E46287B002865D0E8782B6A02289E
:1058B00040F0918028789146B846A7F5807754F853
:1058C00020203A408B4240F2A48048F280111143DC
:1058D00044F82010296A891B296254F820104906CF
:1058E0004FEA064100F1BD8059F83020B3B292B2C0
:1058F00049F8302059F830201143FFF7B3FAFFF789
:10590000A1F988BF831B2B6288BF30466A78012AC1
:1059100000F0D280002A40F0F9802A78002809EBB4
:10592000C20252F8043F23F07C43136000F0DA8097
:105930003E2800F2DD8000F00103166803EB5003FF
:1059400046EA8363E1E0287B48B3E878012859D030
:1059500002281CBF0120BDE8F8837E4AEB69287845
:1059600002F54051002B79D054F820305D046BD4FF
:105970005B066BD572E0B8461746EA886969B3B230
:1059800000F01AF9287857F8301089B247F830102B
:1059900057F8301041EA064147F830104AE0A8694C
:1059A00018B9E878002800F0848048F2800228784E
:1059B000684954F82030A1F5807601F54051334014
:1059C0001A4344F820202A69AB6993428CBF9A1A83
:1059D0000022AA6142E0981B2978286254F821002D
:1059E00040064FEA064027D4134652F8312092B2BF
:1059F00043F8312053F83120104343F831006969EE
:105A00002A891FE00020A861524800F540512878FB
:105A100024E048F28001114344F8201059F8301076
:105A200089B249F8301059F8301041EA03419BB26D
:105A3000FFF718FA47467FE002EBC101FFF79AFA39
:105A400069696A89B3B275E05B0607D554F82030FE
:105A50001A4048F2C0031A4344F820204BF2800257
:105A60006FE009EBC000B3B2FFF74BFA69696A89CE
:105A700000F0A2F8FFF7E6F888BF831B2B6288BF0F
:105A800030466A78012A22D0002A51D12A7859F862
:105A9000323023F07C4349F8323028B33E2837D8DF
:105AA00000F0010659F8323006EB500643EA8663EF
:105AB0003CE048F280127AE72A7809EBC202536888
:105AC0009BB25360536843EA004353601EE02A7858
:105AD00059F832309BB249F8323059F8323043EA43
